:1000000044C100006FC100006DC100006BC1000061
:1000100069C1000067C1000065C1000063C1000044
:1000200061C100005FC100005DC100005BC1000054
:1000300059C1000057C1000055C1000053C1000064
:1000400051C100004FC100004DC100004BC1000074
:1000500049C1000047C1000045C100000C9439119E
:1000600041C100000C94E3120C9437143BC1000012
:1000700039C1000037C1000035C1000033C10000A4
:1000800031C100002FC100002DC100002BC10000B4
:100090000C9423130C94761425C100000C94880F43
:1000A00021C100001FC100001DC100001BC10000D4
:1000B00019C1000017C1000015C1000013C10000E4
:1000C00011C100000FC100000DC100000C946313AA
:1000D0000C94B51407C100000C94A3130C94F414F1
:1000E00001C1000007634236B79BD8A71A3968568A
:1000F00018AEBAAB558C1D3CB7CC5763BD6DEDFD4A
:10010000753EF6177231BF000000803F0800000006
:10011000BE922449123EABAAAA2ABECDCCCC4C3EFC
:1001200000000080BEABAAAAAA3E00000000BF00EB
:100130000000803F0000000000084178D3BB4387E7
:10014000D1133D190E3CC3BD4282AD2B3E68EC82FB
:1001500076BED98FE1A93E4C80EFFFBE01C4FF7F80
:100160003F000000000000002100240027002A00BA
:100170002D003000330001010000040107010A01D5
:1001800000002200250028002B002E003100340042
:1001900002010000050108010B01000020002300FE
:1001A000260029002C002F0032000001000003016E
:1001B00006010901050505050705080808080202EA
:1001C00002020A0A080804040404010101010101F1
:1001D00001010303030303030303040707070C0CD4
:1001E0000C0C0C0C0C0C020202020606060606069B
:1001F00006060B0B0B0B0B0B0B0B01021020200840
:100200000810204010204080020102010804020171
:1002100001020408102040808040201008040201E0
:100220008004020180402010080402010804020139
:1002300001020408102040800102040810204080C0
:100240000000090A02080B0C0D0706030401000058
:10025000000000000000000000000000000000009E
:1002600000000000000000000000000011100F005E
:10027000000000000000000000000000000000007E
:100280000000000000002C0E641611241FBECFEFEA
:10029000D1E2DEBFCDBF00E00CBF14E0A0E0B2E0D1
:1002A000E6EBF9E300E00BBF02C007900D92AE341D
:1002B000B107D9F71BBE17E0AEE4B4E001C01D9250
:1002C000A93FB107E1F712E0CAE8D2E004C02297E3
:1002D000FE010E949E1CC638D107C9F70E949B17D9
:1002E0000C94D91C8DCEAEE0B0E0E9E7F1E00C94BF
:1002F000B01C0E891F8986E08C831A8309838FEFD7
:100300009FE79E838D839E01265E3F4FCE0101961F
:10031000688D798DA9010AD02F813885020F131FAE
:10032000F80110822E96E4E00C94CC1CABE0B0E017
:10033000ECE9F1E00C94A21C3C012B015A01FC01F8
:1003400017821682838181FD03C06FEF7FEFB9C1F1
:100350009AE0892E1E010894211C311CF30123818F
:10036000F20123FD859123FF81912F01882309F458
:10037000A5C1853239F423FD859123FF81912F0199
:10038000853221F490E0B301B7D1E8CF982FFF2454
:10039000EE249924FFE1FF15D0F09B3269F09C32E6
:1003A00028F4903259F0933291F40EC09D3249F006
:1003B000903369F441E024C052E0F52A84E0F82A41
:1003C00028C098E0F92A25C0E0E1FE2A22C0F7FC07
:1003D00029C0892F80538A3070F4F6FE05C0989C9E
:1003E000902C1124980E15C0E89CE02C1124E80EE6
:1003F000F0E2FF2A0EC09E3229F4F6FC5FC140E411
:10040000F42A07C09C3619F450E8F52A02C0983641
:1004100049F4F20123FD959123FF91912F01992336
:1004200009F0B8CF892F8554833018F0805283307B
:1004300038F444E050E0A40EB51E5FE359830FC0CA
:10044000933631F0933779F0933509F052C01FC0DD
:10045000F5018081898342E050E0A40EB51E610160
:1004600001E010E011C0F501C080D180F6FC03C0AE
:100470006FEF7FEF02C0692D70E042E050E0A40E04
:10048000B51EC6012ED18C015FE7F52213C0F50120
:10049000C080D180F6FC03C06FEF7FEF02C0692DF2
:1004A00070E042E050E0A40EB51EC6010FD18C01F1
:1004B00050E8F52AF3FE06C018C080E290E0B301D0
:1004C0001BD1EA948E2D90E008171907B0F30DC0E8
:1004D000F601F7FC8591F7FE81916F0190E0B30181
:1004E0000BD1E110EA94015010400115110581F77C
:1004F000E2C0943611F0993661F5F7FE08C0F501B7
:10050000208131814281538184E090E00AC0F5016D
:10051000808191819C01442737FD4095542F82E0D2
:1005200090E0A80EB91E9FE6F92257FF09C050952A
:100530004095309521953F4F4F4F5F4FE0E8FE2AA1
:10054000CA01B901A1012AE030E002D1D82ED218A7
:100550003FC0953729F41F2D1F7E2AE030E01DC0D3
:100560001F2D197F9F3661F0903720F4983509F0E0
:10057000A5C00FC0903739F0983709F09FC004C06C
:1005800028E030E00AC0106114FD146020E130E082
:1005900004C014FD166020E132E017FF08C0F50129
:1005A000608171818281938144E050E008C0F5014F
:1005B00080819181BC0180E090E042E050E0A40E97
:1005C000B51EA101C5D0D82ED2188FE7F82EF12282
:1005D000F6FE0BC05EEFF522D91438F4F4FE07C026
:1005E000F2FC05C08FEEF82202C01D2D01C0192DAE
:1005F000F4FE0DC0FE01ED0DF11D8081803319F474
:1006000099EEF92208C01F5FF2FE05C003C08F2DCE
:10061000867809F01F5F0F2DF3FC13C0F0FE0EC0AB
:100620001E1510F09D2C0AC09D2C9E0C911A1E2D9B
:1006300005C080E290E0B3015FD01F5F1E15C8F3D4
:1006400004C01E1510F4E11A01C0EE2404FF0EC010
:1006500080E390E0B30150D002FF1BC001FD03C056
:1006600088E790E00EC088E590E00BC0802F867888
:1006700081F001FF02C08BE201C080E2F7FC8DE255
:1006800090E0B30139D005C080E390E0B30134D0ED
:100690009A94D914C8F3DA94F101ED0DF11D80811B
:1006A00090E0B30129D0DD20B1F705C080E290E0F1
:1006B000B30122D0EA94EE20C9F750CEF30166814F
:1006C0007781CB012B96E2E10C94BE1CFC010590D6
:1006D000615070400110D8F7809590958E0F9F1F44
:1006E0000895FC016150704001900110D8F7809589
:1006F00090958E0F9F1F08950F931F93CF93DF93B5
:100700008C01EB018B8181FF1BC082FF0DC02E810C
:100710003F818C819D812817390764F4E881F98134
:100720000193F983E88306C0E885F985802F199540
:10073000892B31F48E819F8101969F838E8302C025
:100740000FEF1FEFC801DF91CF911F910F91089517
:10075000FA01AA27283051F1203181F1E8946F93F2
:100760006E7F6E5F7F4F8F4F9F4FAF4FB1E03ED098
:10077000B4E03CD0670F781F891F9A1FA11D680F36
:10078000791F8A1F911DA11D6A0F711D811D911D69
:10079000A11D20D009F468943F912AE0269F1124DE
:1007A0003019305D3193DEF6CF010895462F477042
:1007B000405D4193B3E00FD0C9F7F6CF462F4F709D
:1007C000405D4A3318F0495D31FD4052419302D0FB
:1007D000A9F7EACFB4E0A6959795879577956795A1
:1007E000BA95C9F700976105710508959B01AC01A1
:1007F0000A2E06945795479537952795BA95C9F7C8
:10080000620F731F841F951FA01D0895CF93DF9360
:10081000EC016115710519F420E030E00FC0DB0137
:100820000D900020E9F71197A61BB70BE881F9811D
:100830000280F381E02DAD0119959C01C901DF9182
:10084000CF910895EF92FF920F931F93DF93CF9371
:10085000CDB7DEB7EC970FB6F894DEBF0FBECDBFB5
:10086000F62EE42E8EEC94E00E94E80D8EEC94E0DF
:100870006E2D0E94730E8EEC94E00E94B40E809157
:100880004E04882369F18DB79EB708970FB6F89488
:100890009EBF0FBE8DBFEDB7FEB731968E010F5FC5
:1008A0001F4FADB7BEB712961C930E93119780E001
:1008B00092E093838283F4821582E682178213DDAD
:1008C0008DB79EB708960FB6F8949EBF0FBE8DBF2A
:1008D00080914F04882321F081E797E0B80196DFEB
:1008E000EC960FB6F894DEBF0FBECDBFCF91DF916F
:1008F0001F910F91FF90EF9008956115710521F4FC
:100900006091230440EF9ECF6130710539F0623071
:10091000710521F46091230442EF94CF0895CF92A2
:10092000DF92EF92FF920F931F93D82EC92E62E0B1
:1009300070E0E3DF0EEC14E0C80168E470E00E94B0
:10094000F20DC80168E470E042E050E00E94C20E7F
:10095000C8010E94050EF82EC8010E94050E1F2D29
:1009600000E0080F191F31E7E32E37E0F32EC7012F
:1009700061E372E00E94C218C701B8014AE050E08A
:100980000E9493188D2D9C2D60E070E0B6DFC801A9
:10099000880F892F881F990B62E070E00E94531C1A
:1009A000162F072FC70167E372E00E94C218C70124
:1009B000612F702F4AE050E00E94A518812F902FE0
:1009C0001F910F91FF90EF90DF90CF90089585E8F1
:1009D00094E0A5DFBC0181E797E04AE050E00C9489
:1009E000A518DF92EF92FF920F931F93DF93CF939F
:1009F000CDB7DEB7C050D1400FB6F894DEBF0FBE02
:100A0000CDBF8C01D62EF42EEE24222311F4EE2439
:100A1000E3948EEC94E06D2D0E94E80D8EEC94E052
:100A20006D2D70E042E050E00E94C20E8EEC94E02A
:100A30000E94050ED80111968C938EEC94E00E94D2
:100A4000050E282FF8018283F7E0FF15E8F0D801A2
:100A500011962C911197EE2061F481E090E002C094
:100A6000880F991FFA94E2F78095282311962C930A
:100A700026C081E090E002C0880F991FFA94E2F747
:100A8000282BF80121831BC04F2D4850EE2069F41C
:100A900081E090E002C0880F991F4A95E2F78095A7
:100AA0008223D80112968C930AC081E090E002C0A4
:100AB000880F991F4A95E2F7282BF8012283D80165
:100AC0001196FC90119712961C918EEC94E06D2D6E
:100AD0000E94E80D8EEC94E06F2D0E94730E8EEC58
:100AE00094E0612F0E94730E8EEC94E00E94B40E8D
:100AF00080914E04882359F1EDB7FEB738970FB6B1
:100B0000F894FEBF0FBEEDBF31968E010F5F1F4FF1
:100B1000ADB7BEB712961C930E93119783E492E083
:100B200093838283D4821582F6821782DCDBEDB751
:100B3000FEB738960FB6F894FEBF0FBEEDBF80919A
:100B40004F04813021F481E797E0B8015FDEC050A7
:100B5000DF4F0FB6F894DEBF0FBECDBFCF91DF9150
:100B60001F910F91FF90EF90DF900895662329F079
:100B70006091270448E021E004C06091270448E028
:100B800020E02FCF0F931F93182F092F662361F0BA
:100B90006091270444E021E024DF812F902F6091B1
:100BA000270446E021E00BC06091270444E020E0E8
:100BB00018DF812F902F6091270446E020E011DF9D
:100BC0001F910F9108950F931F93182F092F6623DC
:100BD00061F06091270445E021E003DF812F902F31
:100BE0006091270443E021E00BC06091270443E0BB
:100BF00020E0F7DE812F902F6091270445E020E070
:100C0000F0DE1F910F9108950F931F93182F092F56
:100C10006091280441E020E0E4DE812F902F609174
:100C2000280446E020E0DDDE812F902F609128042B
:100C300040E020E0D6DE812F902F6091280447E02D
:100C400020E0CFDE1F910F910895662329F0609177
:100C500027044AE021E004C0609127044AE020E034
:100C6000C0CE0F931F93182F092F662361F0609158
:100C7000270441E021E0B5DE812F902F6091270409
:100C800040E021E00BC06091270441E020E0A9DEB4
:100C9000812F902F6091270440E020E0A2DE1F9179
:100CA0000F910895662329F06091270441E021E027
:100CB00004C06091270441E020E093CE662329F030
:100CC0006091270449E021E004C06091270449E0D5
:100CD00020E087CE662329F06091280444E021E0DB
:100CE00004C06091280444E020E07BCE0F931F9362
:100CF000182F092F662309F047C06091280441E0AE
:100D000020E06FDE812F902F6091280446E021E0E3
:100D100068DE65E070E080E090E00E948111812F44
:100D2000902F6091280440E020E05BDE812F902F1F
:100D30006091280447E021E054DE65E070E080E047
:100D400090E00E948111812F902F6091280446E04D
:100D500020E047DE812F902F6091280441E021E0C0
:100D600040DE65E070E080E090E00E948111812F1C
:100D7000902F6091280447E020E033DE812F902FF0
:100D80006091280440E046C06091280447E020E0DC
:100D900028DE812F902F6091280440E021E021DEA1
:100DA00065E070E080E090E00E948111812F902F3B
:100DB0006091280446E020E014DE812F902F60919E
:100DC000280441E021E00DDE65E070E080E090E085
:100DD0000E948111812F902F6091280440E020E033
:100DE00000DE812F902F6091280447E021E0F9DD9B
:100DF00065E070E080E090E00E948111812F902FEB
:100E00006091280441E020E0ECDD812F902F60917B
:100E1000280446E021E0E5DD65E070E080E090E058
:100E20000E9481111F910F9108950F931F93182F06
:100E3000092F662309F047C06091280443E020E0B1
:100E4000D0DD812F902F609128044BE021E0C9DD97
:100E500065E070E080E090E00E948111812F902F8A
:100E60006091280442E020E0BCDD812F902F60914A
:100E700028044AE021E0B5DD65E070E080E090E024
:100E80000E948111812F902F609128044BE020E077
:100E9000A8DD812F902F6091280443E021E0A1DD9F
:100EA00065E070E080E090E00E948111812F902F3A
:100EB000609128044AE020E094DD812F902F60911A
:100EC000280442E046C0609128044AE020E089DD21
:100ED000812F902F6091280442E021E082DD65E0BF
:100EE00070E080E090E00E948111812F902F60914E
:100EF00028044BE020E075DD812F902F60912804BD
:100F000043E021E06EDD65E070E080E090E00E946B
:100F10008111812F902F6091280442E020E061DD53
:100F2000812F902F609128044AE021E05ADD65E08E
:100F300070E080E090E00E948111812F902F6091FD
:100F4000280443E020E04DDD812F902F609128049C
:100F50004BE021E046DD65E070E080E090E00E943B
:100F600081111F910F910895DF92EF92FF920F93DD
:100F70001F93609129044CEB65DC0EEC14E0C80172
:100F80006091290425D6C8016091290442E0FCD66D
:100F9000C8013BD6D82EC80138D67C01C801E4D69A
:100FA0003D2D20E02E0D3F1DC9011F910F91FF9097
:100FB000EF90DF900895DF92EF92FF920F931F93CF
:100FC000609129044CEF3EDC0EEC14E0C801609106
:100FD0002904FED5C8016091290442E0D5D6C80194
:100FE00014D6D82EC80111D67C01C801BDD63D2D1E
:100FF00020E02E0D3F1DC9011F910F91FF90EF9032
:10100000DF9008950F931F930EEC14E0C8016091D8
:101010002404DED5C8016091240448E1B5D6C80196
:10102000F4D580935E04C801F0D580935F04C801B5
:10103000ECD580936004C801E8D580936104C801B1
:10104000E4D580936204C801E0D580936304C801AD
:10105000DCD580936404C801D8D580936504C801A9
:10106000D4D580936604C801D0D580936704C801A5
:10107000CCD580936804C801C8D580936904C801A1
:10108000C4D580936A04C801C0D580936B04C8019D
:10109000BCD580936C04C801B8D580936D04C80199
:1010A000B4D580936E04C801B0D580936F04C80195
:1010B000ACD580937004C801A8D580937104C80191
:1010C000A4D580937204C801A0D580937304C8018D
:1010D0009CD580937404C80198D580937504C80189
:1010E000609124042FD680916E0460916F040E9459
:1010F000D7189C013F70442737FD4095542FCA01F3
:10110000B9010E94DE1920E030E44CE955E40E9468
:1011100043192AE037ED43E25DE30E94DE182CEB31
:1011200034E743E15CE30E94431920E030E040E211
:1011300051E40E946A1A0E94AB19CB011F910F91D2
:1011400008952F923F924F925F926F927F928F926B
:101150009F92AF92BF92CF92DF92EF92FF920F9346
:101160001F930EEC14E0C8016091240431D5C8012E
:101170006091240448E108D6C80147D580935E04F5
:10118000C80143D580935F04C8013FD580936004B4
:10119000C8013BD580936104C80137D580936204B0
:1011A000C80133D580936304C8012FD580936404AC
:1011B000C8012BD580936504C80127D580936604A8
:1011C000C80123D580936704C8011FD580936804A4
:1011D000C8011BD580936904C80117D580936A04A0
:1011E000C80113D580936B04C8010FD580936C049C
:1011F000C8010BD580936D04C80107D580936E0498
:10120000C80103D580936F04C801FFD48093700494
:10121000C801FBD480937104C801F7D48093720491
:10122000C801F3D480937304C801EFD4809374048D
:10123000C801EBD480937504C8016091240482D561
:1012400080916404609165040E94D7189C013F70EE
:10125000442737FD4095542FCA01B9010E94DE1979
:101260001B012C01A20191010E946A1A3B014C0151
:10127000C201B10120E030E040E450E40E94CD1A08
:101280005B016C01C201B10120E030E040E850E4B4
:101290000E94CD1A7B018C01C201B10123E83FE518
:1012A00045E95DE30E946A1A28E133E841E451E42C
:1012B0000E94DF181B012C01C401B30123E33CE6AB
:1012C0004DEE58E30E946A1A9B01AC01C201B101C4
:1012D0000E94DF183B014C01C601B5012BE434E547
:1012E0004EE853EB0E946A1A9B01AC01C401B301A2
:1012F0000E94DF185B016C01C801B70120ED3CE4DE
:1013000047E55DE20E946A1A9B01AC01C601B50186
:101310000E94DF180E94AB19CB011F910F91FF9023
:10132000EF90DF90CF90BF90AF909F908F907F9085
:101330006F905F904F903F902F900895CF92DF92E3
:10134000EF92FF920F931F93CF93DF937C01162FA1
:1013500081E797E040E855E260E070E00E943315D5
:1013600081E590E0909351048093500410925304CF
:1013700010925204109255041092540487E790E0A2
:10138000909355048093540410925704109256047D
:10139000109259041092580483E390E090935904FA
:1013A0008093580485E090E090935B0480935A0406
:1013B00010925D0410925C048EEC94E0E7D4C701B7
:1013C00060911B044FEF3EDAC70160911C044FEFA0
:1013D00039DAC70160911D044FEF34DAC70160911B
:1013E0001E044FEF2FDAC70160911E044FEF2ADA77
:1013F000C701609120044FEF25DAC70160912104F5
:101400004FEF20DAC701609122044FEF1BDAC701CA
:1014100060911F044FEF16DA8EEC94E06091270480
:10142000D7D38EEC94E06FEF5ED48EEC94E06FEF48
:101430005AD48EEC94E098D48EEC94E06091280419
:10144000C7D38EEC94E06FEF4ED48EEC94E06FEF48
:101450004AD48EEC94E088D4C7016091240447E11B
:10146000F1D9C7016091240442EDECD9C701609124
:10147000260440E0E7D98EEC94E060912504A8D3DF
:101480008EEC94E0609150042ED48EEC94E0609148
:10149000520429D48EEC94E06091540424D48EEC50
:1014A00094E062D48EEC94E06091250491D38EECAC
:1014B00094E06091540417D48EEC94E0609156044B
:1014C00012D48EEC94E0609158040DD48EEC94E02C
:1014D0004BD48EEC94E0609125047AD38EEC94E0AA
:1014E0006091580400D48EEC94E060915A04FBD3D0
:1014F0008EEC94E060915C04F6D38EEC94E034D4EE
:101500008EEC94E06091240463D38EEC94E06091BF
:10151000240448E139D48EEC94E077D380935E04C0
:101520008EEC94E072D380935F048EEC94E06DD3E4
:10153000809360048EEC94E068D3809361048EEC19
:1015400094E063D3809362048EEC94E05ED3809346
:1015500063048EEC94E059D3809364048EEC94E0A1
:1015600054D3809365048EEC94E04FD3809366044B
:101570008EEC94E04AD3809367048EEC94E045D3DC
:10158000809368048EEC94E040D3809369048EECE1
:1015900094E03BD380936A048EEC94E036D380933E
:1015A0006B048EEC94E031D380936C048EEC94E069
:1015B0002CD380936D048EEC94E027D380936E043B
:1015C0008EEC94E022D380936F048EEC94E01DD3D4
:1015D000809370048EEC94E018D3809371048EECA9
:1015E00094E013D3809372048EEC94E00ED3809336
:1015F00073048EEC94E009D3809374048EEC94E031
:1016000004D3809375048EEC94E060912604E0D2BC
:101610008EEC94E06091240442E0B6D38EEC94E02A
:10162000F4D2809375048EEC94E0EFD2809376042C
:1016300082958F7090917504292F30E004E0220F7D
:10164000331F0A95E1F7280F311D88E02030380755
:1016500054F4B4E035952795BA95E1F730935D04DD
:1016600020935C040BC0C9018050904160E170E0A0
:101670000E94531C70935D0460935C048EEC94E0B4
:1016800073D381E797E06AE772E00E94C518809102
:101690004E04882329F081E797E064E972E004C0F2
:1016A00081E797E063EA72E0B1D868EE73E080E02A
:1016B00090E027D6112309F410C281E797E065EA8C
:1016C00072E00E94C518C701039661E0CADA81E79B
:1016D00097E061EB72E00E94C5188701075F1F4F1A
:1016E000ACE0CA2ED12CCE0CDF1CC6013DDC8C52E6
:1016F000914024F00CC0C80161E097DBC60134DCE6
:101700008C529140C4F308C0C80160E08EDBC60172
:101710002BDC8D529140C4F764EF71E080E090E0E3
:10172000F0D5C60148DC805D974024F00CC0C801AC
:1017300061E0DCDAC6013FDC805D9740C4F308C09D
:10174000C80160E0D3DAC60136DC815D9740C4F79A
:1017500081E797E062EC72E00E94C518C80161E081
:1017600074DA68EE73E080E090E0CBD5C80160E009
:101770006CDAC80161E0FAD968EB7BE080E090E0C8
:10178000C0D5C80160E0F2D981E797E064ED72E06E
:101790000E94C218C80161E058DAC80161E08EDA1F
:1017A000C80161E097DA68EE73E080E090E0A9D5C7
:1017B00081E797E06EEE72E00E94C21868EE73E077
:1017C00080E090E09ED581E797E063EF72E00E94B1
:1017D000C21868EE73E080E090E093D581E797E06F
:1017E00063EF72E00E94C21868EE73E080E090E060
:1017F00088D581E797E063EF72E00E94C21868EE37
:1018000073E080E090E07DD581E797E063EF72E0E0
:101810000E94C21868EE73E080E090E072D581E724
:1018200097E063EF72E00E94C21868EE73E080E018
:1018300090E067D581E797E063EF72E00E94C218FD
:1018400068EE73E080E090E05CD581E797E063EFBD
:1018500072E00E94C21868EE73E080E090E051D51B
:1018600081E797E063EF72E00E94C21868EE73E0D0
:1018700080E090E046D581E797E065EF72E00E9456
:10188000C218C80160E01ADAC80160E0DED9C801F8
:1018900060E020DA81E797E06AEF72E00E94C51805
:1018A00068EC70E080E090E02CD581E797E064E0A0
:1018B00073E00E94C51881E797E06CE173E00E9435
:1018C000C51880912A0490912B04EC01F4E0CC0F10
:1018D000DD1FFA95E1F7C80FD91FC45DDE4FC601C1
:1018E00043DB8C179D0724F00CC0C80161E09DDA32
:1018F000C6013ADB8C179D07C4F308C0C80160E03D
:1019000094DAC60131DBC817D907C4F381E797E041
:1019100063E273E00E94C51880912C0490912D041D
:10192000880F991FEC0173E0CC0FDD1F7A95E1F76A
:10193000C80FD91FC853DF4FC6013DDB8C179D0769
:1019400024F00CC0C80161E0D1D9C60134DB8C178A
:101950009D07C4F308C0C80160E0C8D9C6012BDBED
:10196000C817D907C4F381E797E069E273E00E94E2
:10197000C51881E797E060E473E00E94C51881E72D
:1019800097E065E573E00E94C51880914E048823B6
:1019900009F0A3C010E081E797E00E94EB158937BA
:1019A00011F411E003C08E3619F410E001E001C01B
:1019B00000E06AE070E080E090E0A3D4002359F3F7
:1019C000112309F453C081E797E064E673E00E94B5
:1019D000C51868EE73E080E090E093D466E0C62E10
:1019E000D12CCE0CDF1CC60161E0CCD8E7012F96CC
:1019F00034C0CE01A6DB8C0181E797E06FE873E08D
:101A00000E94C218B801660F771F600F711F81E72F
:101A100097E04AE050E00E94931881E797E060EA7F
:101A200073E00E94C21881E797E06BEA73E00E94BE
:101A3000C218CE0186DBBC0181E797E04AE050E0A6
:101A40000E94931881E797E06DEB73E00E94C51840
:101A500068EE73E080E090E054D4CE0172DB8C52EB
:101A600091403CF2C60160E08DD806C081E797E066
:101A700062EC73E00E94C51881E797E065ED73E0C2
:101A80000E94C51887010A5F1F4FC80161E09BD8FB
:101A9000E7012F961AC060ED77E080E090E031D446
:101AA00081E797E065EE73E00E94C218CE01AADAE2
:101AB000BC0181E797E04AE050E00E94931881E77B
:101AC00097E060EF73E00E94C518CE019BDA845F57
:101AD00091400CF3C80160E076D864EF71E080E0DB
:101AE00090E00FD481E797E066EF73E00E94060470
:101AF00087010D5F1F4FC80160E0B3D8C80161E0E6
:101B0000D1D881E080934F0464E670E080E090E0FB
:101B1000F8D3DF91CF911F910F91FF90EF90DF905D
:101B2000CF900895CF92DF92EF92FF920F931F9381
:101B300096E7C92E94E0D92EC60160E0FFDB89E06C
:101B4000E82EF12CEC0CFD1CC7016091280443E049
:101B500020E00E94F104C701609128044BE020E0DE
:101B60000E94F104C701609128044AE020E00E942D
:101B7000F104C7016091280442E020E00E94F104D2
:101B8000C70142D886010D5F1F4FC80160E08AD8A7
:101B9000C8016091270440E021E00E94F104C701E0
:101BA0006091270447E020E00E94F104C70160E053
:101BB00085D8C601069660E00E94C205C70160E0B4
:101BC00089D81F910F91FF90EF90DF90CF900895EB
:101BD00081E08093CD046093AA041092CB0410920C
:101BE000CC04089581E08093CD046093AA04109200
:101BF000CB041092CC0408952091A90430E0809188
:101C0000A804281B3109C90108954091A8048091B6
:101C1000A904481718F02FEF3FEF0AC0E42FF0E0B7
:101C2000E857FB4F8081282F30E04F5F4093A80496
:101C3000C9010895E091A8048091A904E81718F05B
:101C4000EFEFFFEF06C0F0E0E857FB4F8081E82F91
:101C5000F0E0CF01089508951092D1041092D004BD
:101C600088EE93E0A0E0B0E08093D2049093D30498
:101C7000A093D404B093D50482E394E09093CF046E
:101C80008093CE040895CF92DF92EF92FF920F934C
:101C90001F93CF93DF937C016B018A018091CD0468
:101CA0008823A1F0C0E0D0E00DC0D701ED91FC91F8
:101CB000D601AC0FBD1F0190F081E02DC7016C91E2
:101CC00019952196C017D10780F303C0CB01642F6B
:101CD00004D1C801DF91CF911F910F91FF90EF9038
:101CE000DF90CF900895DF93CF930F92CDB7DEB7FB
:101CF000FC0169838091CD048823C9F08091CC04D4
:101D0000803238F081E090E09383828320E030E0FD
:101D100014C08091CB04E82FF0E0E555FB4F99818A
:101D200090838F5F8093CB048093CC0404C0CE015A
:101D3000019661E0D2D021E030E0C9010F90CF914F
:101D4000DF9108950F93062F8091AA046BEA74E047
:101D50004091CC0421E06CD01092CB041092CC04C2
:101D60001092CD040F91089561E0ECCF413208F05C
:101D700040E2862F68E874E012D01092A8048093A5
:101D8000A904089521E0F2CF21E0F0CF1092A80439
:101D90001092A9041092CB041092CC044EC2382F9A
:101DA000413210F040E042C08091DA048823E1F72C
:101DB00091E09093DA042093DC048FEF8093470541
:101DC000109202054150409303054F5F9093DB044E
:101DD0008091DB04330F832B8093DB048091DD043F
:101DE000813041F41092DD048091DB048093BB00CC
:101DF00085EC01C085EE8093BC008091DA048130CF
:101E0000E1F380910205841710F44091020520E06F
:101E100030E00AC0FB01E20FF31FD901AE51BB4F06
:101E20008C9180832F5F3F4F2417A0F3842F089558
:101E30000F931F93582F122F413210F081E04AC0A8
:101E40008091DA048823E1F782E08093DA0400933A
:101E5000DC048FEF80934705109202054093030541
:101E6000A2EEB4E0FB0102C081918D938E2F861B00
:101E70008417D0F31092DB048091DB04550F852B7F
:101E80008093DB048091DD04813041F41092DD0405
:101E90008091DB048093BB0085EC01C085EE8093CC
:101EA000BC00112321F08091DA048230E1F38091AB
:101EB00047058F3F11F480E00DC0809147058032C7
:101EC00011F482E007C080914705803311F084E06F
:101ED00001C083E01F910F910895482F613210F0E7
:101EE00081E008958091DA04843011F082E0089551
:101EF00060932505A4E0B5E0842F9C01F90102C0A0
:101F000081918D938E2F841B8617D0F380E00895E6
:101F10001F920F920FB60F920BB60F9211242F93B0
:101F20003F934F935F936F937F938F939F93AF9361
:101F3000BF93EF93FF938091B90090E0887F9070FA
:101F40008036910509F4F2C081369105CCF58832CE
:101F5000910509F47BC089329105B4F48031910573
:101F600009F46FC0813191053CF4009709F447C131
:101F7000089709F04FC165C08831910509F466C022
:101F8000809709F047C182C08034910509F4A4C04C
:101F90008134910544F48033910509F482C0C897D7
:101FA00009F038C189C08035910509F489C08835A8
:101FB000910509F496C08834910509F02BC1AEC093
:101FC0008839910509F413C189399105ECF48837F2
:101FD000910509F4ABC0893791054CF48836910519
:101FE00009F4A4C08037910509F014C19FC0883856
:101FF000910509F4FCC08039910509F49DC0803831
:10200000910509F007C198C0803B910509F4C6C04D
:10201000813B91054CF4803A910509F49FC0883AC0
:10202000910509F0F7C0BAC0803C910509F4E3C0FE
:10203000883C910509F4DFC0883B910509F0EAC0AE
:10204000C2C08091DB048093BB00CFC09091020599
:1020500080910305981768F490910205E92FF0E04C
:10206000EE51FB4F80818093BB009F5F90930205F0
:10207000BCC08091DC04882309F44BC085ED8093BB
:10208000BC008091BC0084FDFCCFC2C080E2809384
:10209000470585ED8093BC008091BC0084FDFCCF9A
:1020A000B7C080E38093470585ED8093BC008091A5
:1020B000BC0084FDFCCFACC088E3809347059BC087
:1020C000809102059091BB00E82FF0E0EE51FB4FAC
:1020D00090838F5F809302059091020580910305A4
:1020E00082C0809102059091BB00E82FF0E0EE5194
:1020F000FB4F90838F5F809302058091DC048823DF
:1021000041F085ED8093BC008091BC0084FDFCCF44
:102110007FC081E08093DD0484EA6EC085ED80930A
:10212000BC008091BC0084FDFCCF72C083E0809332
:10213000DA041092460559C080914605803208F0B5
:1021400056C0809146059091BB00E82FF0E0EA5D13
:10215000FA4F90838F5F8093460547C08091460574
:10216000803230F4E0914605F0E0EA5DFA4F1082EB
:1021700085ED8093BC008091BC0084FDFCCF109263
:10218000DA0460914605E091E004F091E10486E212
:1021900095E070E01995109246052DC084E080937B
:1021A000DA041092240510922505E091DE04F091E6
:1021B000DF04199580912505882329F481E0809317
:1021C00025051092040590912405E92FF0E0EC5FBD
:1021D000FA4F80818093BB009F5F9093240590917C
:1021E000240580912505981710F485EC01C085E839
:1021F0008093BC000FC085EC8093BC0009C0109296
:10220000470585ED8093BC008091BC0084FDFCCF28
:102210001092DA04FF91EF91BF91AF919F918F914E
:102220007F916F915F914F913F912F910F900BBED6
:102230000F900FBE0F901F9018951092DA0481E056
:102240008093DC041092DD0484E161E089D185E1B2
:1022500061E086D1E9EBF0E080818E7F8083808130
:102260008D7F808388E48093B80085E48093BC00F0
:1022700008951F920F920FB60F9211242F933F9340
:102280008F939F93AF93BF9380914C0590914D0591
:10229000A0914E05B0914F05309150050196A11DBA
:1022A000B11D232F2D5F2D3720F02D570196A11D35
:1022B000B11D2093500580934C0590934D05A0933C
:1022C0004E05B0934F058091480590914905A09126
:1022D0004A05B0914B050196A11DB11D809348059B
:1022E00090934905A0934A05B0934B05BF91AF91D8
:1022F0009F918F913F912F910F900FBE0F901F9044
:1023000018959B01AC017FB7F89480914805909196
:102310004905A0914A05B0914B0566B5A89B05C03B
:102320006F3F19F00196A11DB11D7FBFBA2FA92FD4
:10233000982F8827860F911DA11DB11D62E0880F7F
:10234000991FAA1FBB1F6A95D1F7BC012DC0FFB70B
:10235000F8948091480590914905A0914A05B09163
:102360004B05E6B5A89B05C0EF3F19F00196A11DEE
:10237000B11DFFBFBA2FA92F982F88278E0F911D4F
:10238000A11DB11DE2E0880F991FAA1FBB1FEA958E
:10239000D1F7861B970B885E9340C8F221503040DE
:1023A0004040504068517C4F211531054105510591
:1023B00071F60895789484B5826084BD84B5816097
:1023C00084BD85B5826085BD85B5816085BDEEE63D
:1023D000F0E0808181608083E1E8F0E0108280811C
:1023E00082608083808181608083E0E8F0E080818A
:1023F00081608083E1EBF0E0808184608083E0EBAA
:10240000F0E0808181608083E1E9F0E0808182609A
:102410008083808181608083E0E9F0E08081816059
:102420008083E1EAF0E08081826080838081816046
:102430008083E0EAF0E0808181608083E1E2F1E086
:10244000808182608083808181608083E0E2F1E02E
:10245000808181608083EAE7F0E08081846080830E
:1024600080818260808380818160808380818068B8
:1024700080831092C1000895893009F449C08A30E0
:10248000A0F4843051F1853040F4823079F183300A
:1024900000F5813009F063C026C0873079F18830BB
:1024A00098F5863009F05BC025C08D3009F442C034
:1024B0008E3028F48B30B1F18C30C0F52DC08031D6
:1024C00009F442C0813109F445C08F3009F047C09A
:1024D00037C0809180008F7703C0809180008F7D0E
:1024E00080938000089584B58F7702C084B58F7D76
:1024F00084BD08958091B0008F7703C08091B000B3
:102500008F7D8093B0000895809190008F7707C0F1
:10251000809190008F7D03C080919000877F809391
:10252000900008958091A0008F7707C08091A0004F
:102530008F7D03C08091A000877F8093A0000895C5
:10254000809120018F7703C0809120018F7D80933F
:102550002001089580912001877F809320010895B4
:10256000FF920F931F93F62E482F50E0CA01805C14
:102570009D4FFC012491CA0186509E4FFC0114918D
:102580004C545E4FFA0104910023C1F0222311F054
:10259000822F72DFE02FF0E0EE0FFF1FE058FE4FBA
:1025A000A591B4919FB7F894FF2021F48C911095D8
:1025B000812302C08C91812B8C939FBF1F910F911F
:1025C000FF90089508951F920F920FB60F920BB6C9
:1025D0000F9211242F933F934F938F939F93EF93D9
:1025E000FF938091C00082FD1DC04091C6002091E4
:1025F0009105309192052F5F3F4F2F73307080917E
:102600009305909194052817390771F0E091910591
:10261000F0919205EF5AFA4F408330939205209340
:10262000910502C08091C600FF91EF919F918F911B
:102630004F913F912F910F900BBE0F900FBE0F90B7
:102640001F90189508951F920F920FB60F920BB618
:102650000F9211242F933F934F938F939F93EF9358
:10266000FF938091C80082FD1DC04091CE00209153
:10267000190630911A062F5F3F4F2F7330708091EB
:102680001B0690911C062817390771F0E091190676
:10269000F0911A06E752FA4F408330931A062093BE
:1026A000190602C08091CE00FF91EF919F918F910A
:1026B0004F913F912F910F900BBE0F900FBE0F9037
:1026C0001F90189508951F920F920FB60F920BB698
:1026D0000F9211242F933F934F938F939F93EF93D8
:1026E000FF938091D00082FD1DC04091D6002091C3
:1026F000A1063091A2062F5F3F4F2F73307080915B
:10270000A3069091A4062817390771F0E091A1065D
:10271000F091A206EF59F94F40833093A20620931F
:10272000A10602C08091D600FF91EF919F918F91F9
:102730004F913F912F910F900BBE0F900FBE0F90B6
:102740001F90189508951F920F920FB60F920BB617
:102750000F9211242F933F934F938F939F93EF9357
:10276000FF938091300182FD1DC040913601209180
:10277000290730912A072F5F3F4F2F7330708091C8
:102780002B0790912C072817390771F0E091290742
:10279000F0912A07E751F94F408330932A0720939D
:1027A000290702C080913601FF91EF919F918F918F
:1027B0004F913F912F910F900BBE0F900FBE0F9036
:1027C0001F901895E0917D07F0917E07E05CFF4F28
:1027D0008191919120813181805C9F4F821B930B6D
:1027E00060E470E00E94531C892B09F0EBDEE0915D
:1027F0009F07F091A007E05CFF4F819191912081AC
:102800003181805C9F4F821B930B60E470E00E94DB
:10281000531C892B09F016DFE091C107F091C20724
:10282000E05CFF4F8191919120813181805C9F4FCD
:10283000821B930B60E470E00E94531C892B09F00B
:1028400041DFE091E307F091E407E05CFF4F819105
:10285000919120813181805C9F4F821B930B60E4BA
:1028600070E00E94531C892B09F06CCF08951F92D1
:102870000F920FB60F920BB60F9211242F933F9326
:102880008F939F93EF93FF932091D5053091D605B9
:102890008091D7059091D8052817390731F4809198
:1028A000C1008F7D8093C10014C0E091D705F091E5
:1028B000D805EB56FA4F20818091D7059091D80525
:1028C00001968F7390709093D8058093D7052093CD
:1028D000C600FF91EF919F918F913F912F910F90A3
:1028E0000BBE0F900FBE0F901F9018951F920F9266
:1028F0000FB60F920BB60F9211242F933F938F9325
:102900009F93EF93FF9320915D0630915E06809137
:102910005F06909160062817390731F48091C9004D
:102920008F7D8093C90014C0E0915F06F09160062E
:10293000E35EF94F208180915F06909160060196D9
:102940008F7390709093600680935F062093CE0003
:10295000FF91EF919F918F913F912F910F900BBE1F
:102960000F900FBE0F901F9018951F920F920FB6E9
:102970000F920BB60F9211242F933F938F939F9337
:10298000EF93FF932091E5063091E6068091E706EC
:102990009091E8062817390731F48091D1008F7D96
:1029A0008093D10014C0E091E706F091E806EB5562
:1029B000F94F20818091E7069091E80601968F7388
:1029C00090709093E8068093E7062093D600FF91DD
:1029D000EF919F918F913F912F910F900BBE0F9090
:1029E0000FBE0F901F9018951F920F920FB60F9267
:1029F0000BB60F9211242F933F938F939F93EF93D6
:102A0000FF9320916D0730916E0780916F07909131
:102A100070072817390731F4809131018F7D809339
:102A2000310114C0E0916F07F0917007E35DF84F3A
:102A3000208180916F079091700701968F7390703D
:102A40009093700780936F0720933601FF91EF9169
:102A50009F918F913F912F910F900BBE0F900FBEC2
:102A60000F901F901895AF92BF92DF92EF92FF9256
:102A70000F931F93CF93DF93EC017A018B01DD2439
:102A8000403081EE580780E0680780E0780711F059
:102A9000DD24D39491E0A92EB12CEC89FD89DD20B1
:102AA00069F0C50108A002C0880F991F0A94E2F7D7
:102AB000808360E079E08DE390E005C0108260E8FB
:102AC00074E88EE190E0A801970100D721503040D2
:102AD00040405040569547953795279580E12030E6
:102AE000380720F0DD2011F0DD24D7CFE889F989FF
:102AF0003083EA89FB89208319A2EE89FF8940810E
:102B000021E030E0C9010C8C02C0880F991F0A94A3
:102B1000E2F7482B4083EE89FF894081C9010D8C83
:102B200002C0880F991F0A94E2F7482B4083EE8970
:102B3000FF894081C9010E8C02C0880F991F0A9439
:102B4000E2F7482B4083EE89FF8980810F8C02C019
:102B5000220F331F0A94E2F7209528232083DF9168
:102B6000CF911F910F91FF90EF90DF90BF90AF90AA
:102B70000895DC011C96ED91FC911D97E05CFF4FE0
:102B80008191919120813181805C9F4F821B930BB9
:102B900060E470E088C6DC011C96ED91FC911D9705
:102BA000E05CFF4F20813181E054F040DF01AE5BFB
:102BB000BF4F8D919C9111972817390719F42FEF6A
:102BC0003FEF07C08D919C91E80FF91F8081282F5E
:102BD00030E0C9010895DC011C96ED91FC911D9730
:102BE000E05CFF4F20813181E054F040DF01AE5BBB
:102BF000BF4F8D919C9111972817390719F42FEF2A
:102C00003FEF10C08D919C911197E80FF91F208123
:102C10008D919C91119701968F73907011969C9352
:102C20008E9330E0C9010895DC0191968C919197C3
:102C3000882339F05496ED91FC915597808186FF59
:102C4000F9CF91961C920895CF93DF93EC01EE8516
:102C5000FF85E05CFF4F20813181E054F0402F5F21
:102C60003F4F2F733070DF01AE5BBF4F8D919C9152
:102C7000119728173907D1F3E05CFF4F80819181CC
:102C8000E054F040E80FF91F6083EE85FF85E05CBB
:102C9000FF4F31832083EE89FF89208181E090E01E
:102CA0000F8C02C0880F991F0A94E2F7282B20830B
:102CB00081E089A3EC89FD8980818064808381E043
:102CC00090E0DF91CF9108951F93109274071092B6
:102CD000730728EE33E040E050E02093750730930F
:102CE0007607409377075093780762E474E0709317
:102CF00072076093710781E595E090937E0780935A
:102D00007D0785E995E09093800780937F0785ECA8
:102D100090E0909382078093810784EC90E09093F9
:102D200084078093830780EC90E0909386078093DC
:102D3000850781EC90E0909388078093870782EC69
:102D400090E090938A078093890786EC90E09093B7
:102D50008C0780938B0714E010938D07B3E0B0933A
:102D60008E07A7E0A0938F07F5E0F0939007E1E0CE
:102D7000E09391071092960710929507209397077A
:102D8000309398074093990750939A07709394074C
:102D90006093930789ED95E09093A00780939F0738
:102DA0008DE196E09093A2078093A1078DEC90E0CF
:102DB0009093A4078093A3078CEC90E09093A607D0
:102DC0008093A50788EC90E09093A8078093A707CD
:102DD00089EC90E09093AA078093A9078AEC90E091
:102DE0009093AC078093AB078EEC90E09093AE0786
:102DF0008093AD071093AF07B093B007A093B107CE
:102E0000F093B207E093B3071092B8071092B70798
:102E10002093B9073093BA074093BB075093BC0780
:102E20007093B6076093B50781E696E09093C2076A
:102E30008093C10785EA96E09093C4078093C30707
:102E400085ED90E09093C6078093C50784ED90E0F0
:102E50009093C8078093C70780ED90E09093CA07CE
:102E60008093C90781ED90E09093CC078093CB07C6
:102E700082ED90E09093CE078093CD0786ED90E0B1
:102E80009093D0078093CF071093D107B093D207C8
:102E9000A093D307F093D407E093D5071092DA07F5
:102EA0001092D9072093DB073093DC074093DD07AE
:102EB0005093DE077093D8076093D70789EE96E0AA
:102EC0009093E4078093E3078DE297E09093E60701
:102ED0008093E50785E391E09093E8078093E70707
:102EE00084E391E09093EA078093E90780E391E01F
:102EF0009093EC078093EB0781E391E09093EE07CA
:102F00008093ED0782E391E09093F0078093EF07C1
:102F100086E391E09093F2078093F1071093F30713
:102F2000B093F407A093F507F093F607E093F70743
:102F30001F9108950895CF93DF933CDAFBDF0E9441
:102F4000920DC2EED3E10E94E7042097E1F33ADC50
:102F5000FACFCF92DF92EF92FF920F931F93CF930E
:102F6000DF937C016B018A01C0E0D0E00FC0D60185
:102F70006D916D01D701ED91FC910190F081E02DF3
:102F8000C7011995C80FD91F01501040011511052F
:102F900071F7CE01DF91CF911F910F91FF90EF90CC
:102FA000DF90CF900895EF92FF920F931F938C01C3
:102FB000DC01ED91FC910190F081E02D6DE019951F
:102FC0007C01D801ED91FC910190F081E02DC801C8
:102FD0006AE019959C012E0D3F1DC9011F910F91AB
:102FE000FF90EF9008954F925F927F928F929F9201
:102FF000AF92BF92CF92DF92EF92FF920F931F9307
:10300000DF93CF93CDB7DEB7A1970FB6F894DEBFAD
:103010000FBECDBF2C01742ECB01223008F42AE064
:1030200019A231E2C32ED12CCC0EDD1E822E9924A2
:10303000AA24BB24672D752FA501940147D47901DB
:103040008A01C801B701A50194010ED4472D461B82
:103050000894C108D1084A3014F4405D01C0495CAD
:10306000F6014083E114F1040105110521F07E2CE5
:103070005F2DC801DFCFC201B6010E940604A196F0
:103080000FB6F894DEBF0FBECDBFCF91DF911F9179
:103090000F91FF90EF90DF90CF90BF90AF909F90F7
:1030A0008F907F905F904F900895CF92DF92EF9234
:1030B000FF920F931F93CF93DF93EC016A017B0183
:1030C0002115310541F4E881F9810190F081E02D6D
:1030D000642F19951DC02A303105C9F477FF16C039
:1030E000E881F9810190F081E02D6DE219958C0164
:1030F00044275527BA014C195D096E097F09CE0195
:103100002AE071DF9801280F391F03C02AE06BDF26
:103110009C01C901DF91CF911F910F91FF90EF901A
:10312000DF90CF900895EF92FF920F931F937B0152
:103130009A010027F7FC0095102FB801A701B5DF11
:103140001F910F91FF90EF900895CF92DF92EF9231
:10315000FF920F931F936C017B019A010027F7FCEC
:103160000095102FB801A701A0DF8C01C6011BDF5D
:10317000080F191FC8011F910F91FF90EF90DF906A
:10318000CF9008950C9406040895EF92FF920F9348
:103190001F937C010E9406048C01C70104DF080F05
:1031A000191FC8011F910F91FF90EF90089570E0D3
:1031B000382F20E0622B732BCB0108955058BB278A
:1031C000AA270ED04DC13ED130F043D120F031F4CA
:1031D0009F3F11F41EF433C10EF4E095E7FB29C1C3
:1031E000E92F4FD180F3BA17620773078407950759
:1031F00018F071F49EF567C10EF4E0950B2EBA2F0E
:10320000A02D0B01B90190010C01CA01A0011124EC
:10321000FF27591B99F0593F50F4503E68F11A1698
:10322000F040A22F232F342F4427585FF3CF469529
:1032300037952795A795F0405395C9F77EF41F164B
:10324000BA0B620B730B840BBAF09150A1F0FF0F15
:10325000BB1F661F771F881FC2F70EC0BA0F621F01
:10326000731F841F48F4879577956795B795F795F1
:103270009E3F08F0B3CF9395880F08F09927EE0F83
:103280009795879508950CD0EBC0E3D040F0DAD045
:1032900030F021F45F3F19F0CCC0511115C1CFC0FF
:1032A000F0D098F39923C9F35523B1F3951B550B2F
:1032B000BB27AA2762177307840738F09F5F5F4F09
:1032C000220F331F441FAA1FA9F333D00E2E3AF04A
:1032D000E0E830D091505040E695001CCAF729D064
:1032E000FE2F27D0660F771F881FBB1F26173707B3
:1032F0004807AB07B0E809F0BB0B802DBF01FF27E3
:1033000093585F4F2AF09E3F510568F092C0DCC091
:103310005F3FECF3983EDCF3869577956795B7951C
:10332000F7959F5FC9F7880F911D9695879597F937
:103330000895E1E0660F771F881FBB1F62177307B0
:103340008407BA0720F0621B730B840BBA0BEE1FC5
:1033500088F7E095089504D06894B111B5C0089538
:1033600098D088F09F5790F0B92F9927B751A0F0C7
:10337000D1F0660F771F881F991F1AF0BA95C9F709
:1033800012C0B13081F09FD0B1E008959CC0672F8A
:10339000782F8827B85F39F0B93FCCF386957795B9
:1033A0006795B395D9F73EF49095809570956195A2
:1033B0007F4F8F4F9F4F0895E89409C097FB3EF4CD
:1033C00090958095709561957F4F8F4F9F4F992372
:1033D000A9F0F92F96E9BB279395F69587957795F0
:1033E0006795B795F111F8CFFAF4BB0F11F460FFB0
:1033F0001BC06F5F7F4F8F4F9F4F16C0882311F008
:1034000096E911C0772321F09EE8872F762F05C01B
:10341000662371F096E8862F70E060E02AF09A95B6
:10342000660F771F881FDAF7880F9695879597F9AB
:10343000089597F99F6780E870E060E008959FEF36
:1034400080EC089500240A9416161706180609063B
:10345000089500240A94121613061406050608950A
:10346000092E0394000C11F4882352F0BB0F40F492
:10347000BF2B11F460FF04C06F5F7F4F8F4F9F4FD2
:10348000089557FD9058440F551F59F05F3F71F054
:103490004795880F97FB991F61F09F3F79F08795BB
:1034A0000895121613061406551FF2CF4695F1DF44
:1034B00008C0161617061806991FF1CF86957105D4
:1034C000610508940895E894BB2766277727CB0108
:1034D00097F908950BD0C4CFB5DF28F0BADF18F004
:1034E000952309F0A6CFABCF1124EECFCADFA0F30E
:1034F000959FD1F3950F50E0551F629FF001729F89
:10350000BB27F00DB11D639FAA27F00DB11DAA1FA7
:10351000649F6627B00DA11D661F829F2227B00DF4
:10352000A11D621F739FB00DA11D621F839FA00D7F
:10353000611D221F749F3327A00D611D231F849FCF
:10354000600D211D822F762F6A2F11249F57504026
:103550008AF0E1F088234AF0EE0FFF1FBB1F661FC1
:10356000771F881F91505040A9F79E3F510570F07A
:1035700060CFAACF5F3FECF3983EDCF3869577955A
:103580006795B795F795E7959F5FC1F7FE2B880F75
:10359000911D9695879597F90895FA01EE0FFF1FF3
:1035A00030962105310599F16115710561F4803876
:1035B000BFE39B0749F168949038810561F080383A
:1035C000BFEF9B0741F0992342F5FF3FE10531052D
:1035D000210511F1E8940894E795D901AA2329F46B
:1035E000AB2FBE2FF85FD0F310C0FF5F70F4A6952D
:1035F000E0F7F73950F019F0FF3A38F49F779F93CE
:103600000CD00F9007FC905808953EF018CF60E062
:1036100070E080E89FE308954FE79F775F934F93B3
:103620003F932F939ED02F913F914F915F9152DF07
:1036300005C019F40EF0FDCE46CF01CF2ADFC8F346
:103640009638C0F707F80F92E8942BE33AEA48EB74
:103650005FE74EDF0F920F920F924DB75EB70F925A
:10366000C0D0E4EEF0E016D04F915F91EF91FF9162
:10367000E595EE1FFF1F49F0FE57E0684427EE0F67
:10368000441FFA95E1F74195550B32D00F9007FE94
:1036900026C00895DF93CF931F930F93FF92EF926D
:1036A000DF927B018C01689405C0DA2EEF011EDFEA
:1036B000FE01E894A5912591359145915591AEF380
:1036C000EF018EDDFE019701A801DA9479F7DF9012
:1036D000EF90FF900F911F91CF91DF9108959B0183
:1036E000AC0160E070E080E89FE3CDCDA2CEACC03D
:1036F000D0DEE8F39923D9F3940F511DBBF3915019
:10370000504094F059F0882332F0660F771F881FDD
:1037100091505040C1F79E3F510544F7880F911DCD
:103720009695879597F908955F3FACF0983E9CF089
:10373000BB27869577956795B79508F4B160939503
:10374000C1F7BB0F58F711F460FFE8CF6F5F7F4FF1
:103750008F4F9F4FE3CFB8CE0EF076C070CE6894F7
:1037600068CE97DEC8F39923D1F3C6F3DF93CF93E6
:103770001F930F93FF92C92FDD2788232AF02197EB
:10378000660F771F881FDAF720E030E040E85FEB34
:103790009FE3883920F0803E30F021968F770FDD4F
:1037A000ECE0F1E003C00BDDE9E3F1E073DF8B0156
:1037B000BE01EC01FB2E6F5771097595771F880BC1
:1037C000990BFCDD28E132E741E35FE38FDEAF2DAB
:1037D0009801AE01FF900F911F91CF91DF9100DD15
:1037E0003FCEFA01DC01AA0FBB1F9B01AC01BF5702
:1037F00028F422273327442750781FC0B75188F474
:10380000AB2F0024469537952795011CA395D2F33D
:10381000002069F0220F331F441FB395DAF30DD057
:10382000CDCC61307105A0E88A07B94630F49B0120
:10383000AC016627772788279078309621F020837F
:1038400031834283538308959F3F49F0915028F478
:10385000869577956795B7959F5F80389F4F880FBE
:103860009695879597F90895629FD001739FF0010F
:10387000829FE00DF11D649FE00DF11D929FF00D00
:10388000839FF00D749FF00D659FF00D9927729F37
:10389000B00DE11DF91F639FB00DE11DF91FBD01C2
:1038A000CF011124089597FB092E07260AD077FD32
:1038B00004D02ED006D000201AF4709561957F4F69
:1038C0000895F6F7909581959F4F0895A1E21A2EDD
:1038D000AA1BBB1BFD010DC0AA1FBB1FEE1FFF1FB4
:1038E000A217B307E407F50720F0A21BB30BE40B04
:1038F000F50B661F771F881F991F1A9469F760954B
:103900007095809590959B01AC01BD01CF01089504
:10391000AA1BBB1B51E107C0AA1FBB1FA617B707F5
:1039200010F0A61BB70B881F991F5A95A9F7809511
:103930009095BC01CD010895EE0FFF1F0590F49105
:10394000E02D19942F923F924F925F926F927F9247
:103950008F929F92AF92BF92CF92DF92EF92FF929F
:103960000F931F93CF93DF93CDB7DEB7CA1BDB0B4B
:103970000FB6F894DEBF0FBECDBF19942A883988E0
:1039800048885F846E847D848C849B84AA84B984F7
:10399000C884DF80EE80FD800C811B81AA81B98103
:1039A000CE0FD11D0FB6F894DEBF0FBECDBFED0117
:0639B0000895F894FFCF1A
:1039B60061207061636B6574206861732062656560
:1039C6006E2073656E7420746F20307825782077AA
:1039D6006974682076616C75653A20307825780AB6
:1039E600007261773A2000207C7C206465677265EE
:1039F600653A0074776F207061636B657473206835
:103A0600617665206265656E2073656E7420746FDD
:103A1600203078257820776974682076616C756522
:103A260020413A20307825780A000A43434D522037
:103A360070726F6772616D20696E697469616C6915
:103A46007A656400205B4445425547204D4F444506
:103A56005D0A000A002D2D426F6F74696E672D2D69
:103A660000524553455454494E472056414C5645FD
:103A760053007265666C7578696E67207761746548
:103A8600722E2E00436C65616E696E672056616CFE
:103A960076657320616E64205069706573003C7CA6
:103AA6002E2E002E002E2E7C3E0020434F4D504CD5
:103AB6004554450053455454494E47205354414EAE
:103AC60044415254204D49582E2E2E00434F322E3B
:103AD6002E2E0048322E2E2E0053595354454D207B
:103AE600424F4F54555020434F4D504C455445007E
:103AF6005553455220494E5055542052455155492B
:103B0600524544210050524548454154204F5645A0
:103B16004E203F0050524548454154494E47204F9C
:103B260056454E2E2E2E202874686973206D6179B5
:103B36002074616B652061207768696C6529005087
:103B4600726568656174696E672E2E207C7C200024
:103B5600252046696E697368656400207C7C205464
:103B6600656D70657261747572653A2000EFBFBD50
:103B7600430050524548454154494E472041424F23
:103B8600525445440050524550524F445543494EB5
:103B9600472048320050726573737572653A20008B
:103BA600206D626172000A0A2D2D2D2D2D2D2D2DD1
:103BB6002D2D524541445920544F204255524E2DE9
:103BC6002D2D2D2D2D2D2D2D2D0A0025252223269B
:103BD60022232070351F4F26204B1400550000006D
:103BE6000000730E430EFC0D050E1A0E2B0E000080
:0E3BF60000002416A917B915EB15CB151416EF
:00000001FF
