:100000000C943E010C946F010C946F010C946F01E1
:100010000C946F010C946F010C946F010C946F01A0
:100020000C946F010C946F010C946F010C946F0190
:100030000C946F010C946F010C946F010C946F0180
:100040000C946F010C946F010C946F010C946F0170
:100050000C946F010C946F010C946F010C94EC08DC
:100060000C946F010C94E10B0C94170C0C946F0121
:100070000C946F010C946F010C946F010C946F0140
:100080000C946F010C946F010C946F010C946F0130
:100090000C946F010C946F010C946F010C94BB07CE
:1000A0000C946F010C946F010C946F010C946F0110
:1000B0000C946F010C946F010C946F010C946F0100
:1000C0000C946F010C946F010C946F010C946F01F0
:1000D0000C946F010C946F010C946F010C946F01E0
:1000E0000C946F01FC09FF09EE09F209F809360AC0
:1000F000030A070A0D0A110A150A1B0A1F0A230A16
:10010000360A290A2D0A310A0C941F0A0C94310A66
:100110000C94C2050C94110A0C94230A0C94EE0959
:100120000C949E0C0C94290A0C94A7050C940D0AAF
:100130000C94FF090C946D0A0C94FF050C94860A2C
:100140000C94030A0C94F80A0C942D0A0C94360AA9
:100150000C94D1050C94D1060C94F8090C94070A60
:100160000C949A0A0C94FC090C941A0B0C94410CF4
:100170000C941B0A0C94150A0C94780A0C94AF0585
:100180000C94F2090C944B0C0C94D20500000A0B51
:1001900002090C0D0E080703040100000000000016
:1001A000000000000000000000000000000000004F
:1001B000000000000000000012111000000000000C
:1001C000000000000000000000000000000000002F
:1001D000000001021020200808102040102040805C
:1001E00002010201080402010102040810204080FB
:1001F0008040201008040201800402018040201089
:1002000008040201080402010102040810204080D1
:1002100001020408102040800505050507050808AF
:100220000808020202020A0A080804040404010180
:100230000101010101010303030303030303040795
:1002400007070C0C0C0C0C0C0C0C0202020206062C
:100250000606060606060B0B0B0B0B0B0B0B000022
:100260002200250028002B002E003100340002015E
:100270000000050108010B01D1064B0C11241FBE23
:10028000CFEFD1E2DEBFCDBF00E00CBF13E0A0E0B6
:10029000B2E0EEE4F1E200E00BBF02C007900D9285
:1002A000AC30B107D9F724E0ACE0B3E001C01D9257
:1002B000AC3AB207E1F712E0CCE7D2E000E006C0CA
:1002C00022970109FE010BBF0E94D10DC837D1074B
:1002D00080E00807A9F70E948F0C0C94A5100C94DD
:1002E00000006115710581F0DB010D900020E9F738
:1002F000AD0141505109461B570BDC01ED91FC91BA
:100300000280F381E02D199480E090E00895DC01F3
:10031000ED91FC910190F081E02D19940F931F93C2
:10032000CF93DF93CDB7DEB7EC970FB6F894DEBF6F
:100330000FBECDBF082F162F682F86E493E00E94D2
:100340004806612F86E493E00E94FF0586E493E06F
:100350000E94CE06809145038823E9F01F921F93E7
:100360001F920F9382E192E09F938F938E010F5F14
:100370001F4F1F930F930E94D50D0FB6F894DEBF49
:100380000FBECDBF80914403882329F0B8018FE0D0
:1003900094E00E947101EC960FB6F894DEBF0FBE98
:1003A000CDBFDF91CF911F910F91089562EF8091A2
:1003B00009020C948E01CF93DF930E94D60168E46A
:1003C00070E086E493E00E94520642E050E068E468
:1003D00070E086E493E00E94CB0686E493E00E94FE
:1003E000AF05C82F86E493E00E94AF0560E070E09F
:1003F0007C2FEB01C80FD91F63E472E08FE094E01B
:100400000E94C60C4AE050E0BE018FE094E00E94DA
:10041000880D60EF809109020E948E01CE01880F45
:10042000892F881F990B97FD0196EC01D595C795EB
:1004300069E472E08FE094E00E94C60C4AE050E06C
:10044000BE018FE094E00E94900DCE01DF91CF912C
:1004500008958BE193E00E94DB014AE050E0BC018B
:100460008FE094E00C94900DEF92FF920F931F9306
:10047000CF93DF93CDB7DEB7C150D1400FB6F8941C
:10048000DEBF0FBECDBF8C01F62EE42E86E493E0D6
:10049000CF5FDE4F2883C150D1400E9448066F2DA8
:1004A00070E042E050E086E493E00E94CB0686E4F0
:1004B00093E00E94AF05D80111968C9386E493E0F7
:1004C0000E94AF05F8018283CF5FDE4F2881C150C3
:1004D000D140F7E0FE15E8F0D80111964C91119744
:1004E000222361F021E030E00E2C01C0220F0A949B
:1004F000EAF72095242311962C9325C081E090E003
:100500000E2C01C0880F0A94EAF7842BF80181832E
:100510001AC098EF9E0D222369F0E1E0F0E0092E69
:1005200001C0EE0F0A94EAF7E095E823D80112968D
:10053000EC9309C021E030E001C0220F9A95EAF760
:10054000282BF8012283D8011296EC90129711966D
:100550001C916F2D86E493E00E944806612F86E48B
:1005600093E00E94FF056E2D86E493E00E94FF0554
:1005700086E493E00E94CE06809145038823E9F04B
:100580001F921F931F92FF9285E592E09F938F9396
:100590008E010F5F1F4F1F930F930E94D50D0FB653
:1005A000F894DEBF0FBECDBF80914403882329F0AD
:1005B000B8018FE094E00E947101CF5FDE4F0FB66B
:1005C000F894DEBF0FBECDBFDF91CF911F910F9189
:1005D000FF90EF900895CF93DF93EC0120E041E08E
:1005E000609104020E94340220E046E0609104021F
:1005F000CE010E94340220E040E060910402CE016E
:100600000E94340220E047E060910402CE01DF91B5
:10061000CF910C943402CF93DF93EC0121E044E0BE
:10062000609105020E94340221E046E060910502DB
:10063000CE01DF91CF910C943402CF93DF93EC0184
:10064000662321F0DF91CF910C940B0320E044E06E
:10065000609105020E94340220E046E060910502AC
:10066000CE01DF91CF910C94340226E040E855E2B0
:1006700060E070E08FE094E00E947F0B81E590E005
:1006800090934103809340031092430310924203DE
:10069000109245031092440387E790E090933D0346
:1006A00080933C0310923F0310923E03109241034B
:1006B0001092400383E390E09093390380933803D2
:1006C00085E090E090933B0380933A0310923D03C2
:1006D00010923C0386E493E00E943E066FEF809107
:1006E00011020E948E016FEF809110020E948E0114
:1006F0006FEF80910F020E948E016FEF80910E02CA
:100700000E948E016FEF80910E020E948E016FEFAA
:1007100080910C020E948E016FEF80910B020E946B
:100720008E016FEF80910A020E948E016FEF80911F
:100730000D020E948E016091050286E493E00E9402
:1007400048066FEF70E086E493E00E9487016FEF48
:1007500070E086E493E00E94870186E493E00E94C3
:10076000CE066091040286E493E00E9448066FEF93
:1007700070E086E493E00E9487016FEF70E086E40A
:1007800093E00E94870186E493E00E94CE0667E131
:10079000809108020E948E0162ED809108020E9401
:1007A0008E0160E0809106020E948E016091070236
:1007B00086E493E00E9448066091400370914103F3
:1007C00086E493E00E9487016091420370914303A5
:1007D00086E493E00E948701609144037091450391
:1007E00086E493E00E94870186E493E00E94CE06AF
:1007F0006091070286E493E00E94480660913C0302
:1008000070913D0386E493E00E94870160913E036E
:1008100070913F0386E493E00E948701609140035A
:100820007091410386E493E00E94870186E493E09F
:100830000E94CE066091070286E493E00E9448067B
:10084000609138037091390386E493E00E94870138
:1008500060913A0370913B0386E493E00E94870124
:1008600060913C0370913D0386E493E00E94870110
:1008700086E493E00E94CE066091080286E493E04D
:100880000E94480648E16091080286E493E00E94D5
:10089000C80686E493E00E94AF0580931F0386E4B8
:1008A00093E00E94AF058093200386E493E00E94CA
:1008B000AF058093210386E493E00E94AF05809307
:1008C000220386E493E00E94AF058093230386E42D
:1008D00093E00E94AF058093240386E493E00E9496
:1008E000AF058093250386E493E00E94AF058093D3
:1008F000260386E493E00E94AF058093270386E4F5
:1009000093E00E94AF058093280386E493E00E9461
:10091000AF058093290386E493E00E94AF0580939E
:100920002A0386E493E00E94AF0580932B0386E4BC
:1009300093E00E94AF0580932C0386E493E00E942D
:10094000AF0580932D0386E493E00E94AF0580936A
:100950002E0386E493E00E94AF0580932F0386E484
:1009600093E00E94AF058093300386E493E00E94F9
:10097000AF058093310386E493E00E94AF05809336
:10098000320386E493E00E94AF058093330386E44C
:1009900093E00E94AF058093340386E493E00E94C5
:1009A000AF058093350386E493E00E94AF05809302
:1009B00036036091060286E493E00E94480642E016
:1009C0006091080286E493E00E94C80686E493E002
:1009D0000E94AF0580931E0386E493E00E94AF055A
:1009E00080931F0320911E0382958F7090E030E169
:1009F000239F800D911D1124811528E092071CF082
:100A0000905197FD0F9664E0959587956A95E1F76B
:100A1000909337038093360386E493E00E94CE06DA
:100A20006CE872E08FE094E00E94D30C8091450363
:100A3000882319F066EA72E002C06BEF72E08FE083
:100A400094E00E94710168EE73E080E090E00E9403
:100A5000590964EF71E080E090E00E94590965EB6C
:100A600072E08FE094E00E94710120E041E060912B
:100A700005028FE093E00E94340220E040E06091A4
:100A800005028FE093E00E94340221E041E0609192
:100A900005028FE093E00E94340281E080934403DA
:100AA00064E670E080E090E00E94590920E043E0B5
:100AB0006091040285E193E00E94340220E04BE063
:100AC0006091040285E193E00E94340220E04AE054
:100AD0006091040285E193E00E94340220E042E04C
:100AE0006091040285E193E00E94340285E193E085
:100AF0000E94EB0220E041E0609105028FE093E06C
:100B00000E94340221E040E0609105028FE093E012
:100B10000E94340220E047E06091050285E193E005
:100B20000E94340220E049E06091050285E193E0F3
:100B30000E94340260E082E193E00E941D0320E005
:100B400044E06091040285E193E00C9434028091CA
:100B5000760390E020917703821B910908952091FC
:100B6000770380917603281750F4E22FF0E0E858DD
:100B7000FC4F808190E02F5F2093770308958FEFE3
:100B80009FEF0895E091770380917603E81730F4A2
:100B9000F0E0E858FC4F808190E008958FEF9FEFE0
:100BA00008950895CF92DF92EF92FF920F931F93D3
:100BB000CF93DF937C01CB018A0120915203222342
:100BC00089F0EB016B01C40ED51ECC15DD0569F073
:100BD0006991D701ED91FC910190F081E02DC70161
:100BE0001995F3CF642F0E949207C801DF91CF912E
:100BF0001F910F91FF90EF90DF90CF900895CF93CA
:100C0000DF931F92CDB7DEB7698320915203222371
:100C1000D1F020915303203240F021E030E0FC017C
:100C20003383228380E090E015C080915403E82F45
:100C3000F0E0EB5AFC4F998190838F5F80935403CF
:100C40008093530305C061E0CE0101960E94920794
:100C500081E090E00F90DF91CF910895FC01138225
:100C6000128248EE53E060E070E04483558366836F
:100C700077838EED92E091838083089510927703BD
:100C80001092760310925403109253030C94D506DD
:100C900081E0809352036093750310925403109285
:100CA000530308950C9448060F93062F21E04091BA
:100CB000530365E573E0809175030E943B07109232
:100CC000540310925303109252030F9108958F9280
:100CD0009F92AF92BF92CF92DF92EF92FF920F93CB
:100CE0001F93CF93DF93EC01F62ED42E48015901C8
:100CF000EE2019F10E9448061E2D143008F013E072
:100D00001150B8F0E881F98128E0129FB001112458
:100D1000A501940104C056954795379527956A9586
:100D2000D2F7CA01B9010190F081E02DCE011995E9
:100D3000E7CF60E0CE010E9454064D2D413208F00D
:100D400040E22C2D68E773E08F2D0E94F30610928D
:100D5000770380937603DF91CF911F910F91FF90DE
:100D6000EF90DF90CF90BF90AF909F908F900895BD
:100D7000CF92EF920F931F93C22EE12C00E010E070
:100D800098010E9467061F910F91EF90CF900895F0
:100D900021E00C94B80621E00C94B80661E00C94B4
:100DA000540686E493E00C942E061092050481E02C
:100DB000809303041092020461E084E10E94370AE8
:100DC00061E085E10E94370AE9EBF0E080818E7FE7
:100DD000808380818D7F808388E48093B80085E460
:100DE0008093BC000895413208F043C090910504FF
:100DF0009111FCCF91E090930504209303042FEF11
:100E0000209398031092DD03240F2093DC0390932A
:100E1000040490910404880F892B8093040480912A
:100E20000204813061F410920204809104048093E2
:100E3000BB008091BC0083FDF8CF85EC01C085EE3E
:100E40008093BC00809105048130E1F38091DD0343
:100E5000841710F44091DD032EED33E0FB01D9013E
:100E60008A2F821B841718F48D918193F9CF842FD8
:100E7000089580E008950F93413208F04AC09091A0
:100E800005049111FCCF92E09093050400930304B4
:100E90009FEF909398031092DD034093DC03FB01D6
:100EA0006EED73E0DB019A2F961B941718F4919165
:100EB0009D93F9CF1092040490910404880F892B1C
:100EC0008093040480910204813061F41092020442
:100ED000809104048093BB008091BC0083FDF8CF17
:100EE00085EC01C085EE8093BC00222321F0809127
:100EF00005048230E1F3809198038F3F61F0809187
:100F00009803803251F080919803803341F483E05C
:100F100007C081E005C080E003C082E001C084E03A
:100F20000F910895613298F420910504243089F4DA
:100F30006093BA03FC018CEB93E0DC012A2F281BA1
:100F4000261718F421912D93F9CF80E0089581E0C0
:100F5000089582E0089585ED8093BC008091BC00E7
:100F600084FDFCCF10920504089585EC8093BC00AD
:100F70001092050408951F920F920FB60F9211243C
:100F80000BB60F922F933F934F935F936F937F9383
:100F90008F939F93AF93BF93EF93FF938091B9008B
:100FA000887F803609F49EC078F5883209F45DC0E8
:100FB00090F4803109F456C038F4882309F4F5C060
:100FC000883009F44FC0F5C0883109F44EC0803232
:100FD00009F45FC0EEC0803409F46AC058F480336D
:100FE00009F457C0883309F0E4C0809398030E9445
:100FF000B507DFC0803509F44FC0883509F45DC0FE
:10100000883409F0D6C0D3C0883909F4C4C0A8F424
:10101000883709F467C038F4883609F463C080372C
:1010200009F460C0C6C0883809F4B5C0803909F435
:101030005FC0803809F0BDC05BC0803B09F483C04D
:1010400038F4803A09F466C0883A09F47CC0B1C02B
:10105000803C09F4A4C0883C09F4A1C0883B09F491
:1010600087C0A7C08091040410C09091DD038091D7
:10107000DC03981770F5E091DD0381E08E0F80931B
:10108000DD03F0E0E252FC4F80818093BB0085ECF1
:1010900083C0809398038BC0E091DD0381E08E0FC5
:1010A0008093DD038091BB00F0E0E252FC4F80832F
:1010B0009091DD038091DC036BC0E091DD0381E062
:1010C0008E0F8093DD038091BB00F0E0E252FC4F75
:1010D00080838091030481116AC081E080930204BF
:1010E00084EA5EC083E08093050410929903CFCF19
:1010F00080919903803208F04EC0E091990381E01D
:101100008E0F809399038091BB00F0E0E656FC4F70
:101110008083BDCF0E94B50780919903803230F45F
:10112000E0919903F0E0E656FC4F1082609199033C
:1011300070E0E091FE03F091FF038AE993E01995D6
:101140001092990336C084E0809305041092BB038B
:101150001092BA03E0910004F09101041995809176
:10116000BA03811105C081E08093BA031092BC03D9
:10117000E091BB0381E08E0F8093BB03F0E0E45469
:10118000FC4F80818093BB009091BB038091BA0398
:10119000981708F47CCF85E88093BC000AC085ECE2
:1011A0008093BC001092050404C0109298030E9422
:1011B000AB07FF91EF91BF91AF919F918F917F917D
:1011C0006F915F914F913F912F910F900BBE0F90B8
:1011D0000FBE0F901F9018951F920F920FB60F928F
:1011E00011242F933F938F939F93AF93BF9380913D
:1011F000070490910804A0910904B0910A04309169
:10120000060423E0230F2D3720F40196A11DB11D04
:1012100005C026E8230F0296A11DB11D20930604E8
:101220008093070490930804A0930904B0930A04E0
:1012300080910B0490910C04A0910D04B0910E04C8
:101240000196A11DB11D80930B0490930C04A093F3
:101250000D04B0930E04BF91AF919F918F913F9178
:101260002F910F900FBE0F901F9018953FB7F894D5
:1012700080910B0490910C04A0910D04B0910E0488
:1012800026B5A89B05C02F3F19F00196A11DB11DE1
:101290003FBF6627782F892F9A2F620F711D811DFE
:1012A000911D42E0660F771F881F991F4A95D1F75D
:1012B0000895CF92DF92EF92FF92CF93DF936B016D
:1012C0007C010E943609EB01C114D104E104F10450
:1012D00089F00E94A80D0E9436096C1B7D0B683EA8
:1012E000734090F381E0C81AD108E108F108C851B1
:1012F000DC4FEACFDF91CF91FF90EF90DF90CF905E
:101300000895789484B5826084BD84B5816084BD7D
:1013100085B5826085BD85B5816085BDEEE6F0E06E
:10132000808181608083E1E8F0E0108280818260CA
:101330008083808181608083E0E8F0E0808181604B
:101340008083E1EBF0E0808184608083E0EBF0E07B
:10135000808181608083E1E9F0E080818260808328
:10136000808181608083E0E9F0E08081816080831A
:10137000E1EAF0E080818260808380818160808307
:10138000E0EAF0E0808181608083E1E2F1E0808149
:1013900082608083808181608083E0E2F1E08081EF
:1013A00081608083EAE7F0E08081846080838081CF
:1013B0008260808380818160808380818068808377
:1013C0001092C100089590E0FC013197E231F105DF
:1013D00008F04CC0EE58FF4F0C94CB0D809180006C
:1013E0008F7703C0809180008F7D80938000089567
:1013F00080918000877FF9CF84B58F7702C084B554
:101400008F7D84BD08958091B0008F7703C0809157
:10141000B0008F7D8093B0000895809190008F7709
:1014200007C0809190008F7D03C080919000877FDE
:101430008093900008958091A0008F7707C08091DD
:10144000A0008F7D03C08091A000877F8093A000C3
:101450000895809120018F7707C0809120018F7DB2
:1014600003C080912001877F8093200108950F930E
:101470001F93CF93DF931F92CDB7DEB7282F30E0B5
:10148000F901E457FE4F8491F901EE52FE4F149199
:10149000F901E85EFD4F04910023C9F0882321F093
:1014A00069830E94E3096981E02FF0E0EE0FFF1FDE
:1014B000E25AFD4FA591B4919FB7F8948C916111B8
:1014C00003C01095812301C0812B8C939FBF0F9087
:1014D000DF91CF911F910F910895FC01818D228D95
:1014E00090E0805C9F4F821B91098F73992708952C
:1014F000FC01918D828D981731F0828DE80FF11DDE
:10150000858D90E008958FEF9FEF0895FC01918DF8
:10151000828D981761F0828DDF01A80FB11D5D9655
:101520008C91928D9F5F9F73928F90E008958FEFC3
:101530009FEF089581E49CE0892B41F080E090E0EA
:10154000892B21F00E94410C811125C080E090E0A0
:10155000892B41F080E090E0892B21F00E9400006F
:1015600081111CC080E090E0892B41F080E090E088
:10157000892B21F00E940000811113C080E090E0CF
:10158000892BA1F080E090E0892B81F00E9400007F
:1015900081110AC008950E940000D8CF0E94000067
:1015A000E1CF0E940000EACF0C9400000895FC01F6
:1015B000848DDF01A80FB11DA35ABF4F2C91848DDC
:1015C00090E001968F739927848FA689B7892C9311
:1015D000A089B1898C9180648C93938D848D9813AC
:1015E00006C00288F389E02D80818F7D8083089575
:1015F000CF93DF93EC01888D8823C9F0EA89FB89BA
:10160000808185FD05C0A889B9898C9186FD0FC0B0
:101610000FB607FCF5CF808185FFF2CFA889B98985
:101620008C9185FFEDCFCE010E94D70AE7CFDF91E5
:10163000CF910895CF92DF92FF920F931F93CF9394
:10164000DF931F92CDB7DEB76C0181E0D6015896CB
:101650008C9358975B969C915B975C968C915C976A
:10166000981307C05096ED91FC915197808185FDAC
:101670002EC0F601038D10E00F5F1F4F0F7311276F
:10168000F02EF601848DF81211C00FB607FCF9CFC9
:10169000D6015096ED91FC915197808185FFF1CF55
:1016A000C60169830E94D70A6981EBCF838DE80F59
:1016B000F11DE35AFF4F6083D6015B960C935B9755
:1016C0005296ED91FC915397808180620CC0D601B7
:1016D0005696ED91FC91579760835096ED91FC9151
:1016E000519780818064808381E090E00F90DF914A
:1016F000CF911F910F91FF90DF90CF900895BF92EF
:10170000CF92DF92EF92FF92CF93DF93EC016A01C9
:101710007B01B22EE889F98982E08083411581EE50
:10172000580761057105A1F060E079E08DE390E074
:10173000A70196010E94A90D2150310941095109C3
:101740005695479537952795211580E1380798F0EC
:10175000E889F989108260E874E88EE190E0A701D9
:1017600096010E94A90D2150310941095109569550
:10177000479537952795EC85FD853083EE85FF8568
:101780002083188EEC89FD89B082EA89FB898081EB
:1017900080618083EA89FB89808188608083EA890F
:1017A000FB89808180688083EA89FB8980818F7DC5
:1017B0008083DF91CF91FF90EF90DF90CF90BF902B
:1017C00008951F920F920FB60F9211240BB60F922D
:1017D0002F938F939F93EF93FF93E0911F04F091CA
:1017E00020048081E0912504F091260482FD12C03E
:1017F0009081809128048F5F8F7320912904821734
:1018000051F0E0912804F0E0E15FFB4F958F809369
:10181000280401C08081FF91EF919F918F912F91BA
:101820000F900BBE0F900FBE0F901F9018951F9238
:101830000F920FB60F9211240BB60F922F933F9376
:101840004F935F936F937F938F939F93AF93BF93C8
:10185000EF93FF938FE094E00E94D70AFF91EF91FE
:10186000BF91AF919F918F917F916F915F914F91B8
:101870003F912F910F900BBE0F900FBE0F901F90B6
:1018800018958FE094E00E946D0A21E0892B09F4FD
:1018900020E0822F0895109212041092110488EE15
:1018A00093E0A0E0B0E08093130490931404A0931D
:1018B0001504B09316048EEE92E09093100480937A
:1018C0000F0485EC90E090931C0480931B0484EC3F
:1018D00090E090931E0480931D0480EC90E0909320
:1018E000200480931F0481EC90E090932204809365
:1018F000210482EC90E0909324048093230486ECEE
:1019000090E090932604809325041092280410926E
:10191000290410922A0410922B04089508950E941D
:1019200081090E948E0C0E943503CAE9DAE00E9408
:1019300029022097E1F30E949A0AF9CFCF92DF9211
:10194000EF92FF920F931F93CF93DF937C016A0175
:10195000EB0100E010E00C151D0571F06991D70155
:10196000ED91FC910190F081E02DC7011995892B33
:1019700019F00F5F1F4FEFCFC801DF91CF911F917B
:101980000F91FF90EF90DF90CF9008950C9471012C
:10199000DC01ED91FC910190F081E02D19946AEF4A
:1019A00072E00C9471010F931F93CF93DF93EC01BE
:1019B0000E9471018C01CE010E94CF0C800F911FFB
:1019C000DF91CF911F910F9108958F929F92AF92C7
:1019D000BF92CF92DF92EF92FF920F931F93CF931C
:1019E000DF93CDB7DEB7A1970FB6F894DEBF0FBE79
:1019F000CDBF7C01C42EE52FCB01D22E19A221E050
:101A00002D1510F02AE0D22E8E010F5D1F4F8D2C68
:101A1000912CA12CB12C6C2D7E2FA50194010E943C
:101A2000A90D8C2DD29E80191124015011098A30E4
:101A300014F4805D01C0895CF801808321153105B3
:101A40004105510521F0C22EE32FCA01E4CFB801B0
:101A5000C7010E947101A1960FB6F894DEBF0FBEB8
:101A6000CDBFDF91CF911F910F91FF90EF90DF904D
:101A7000CF90BF90AF909F908F900895CF92DF92BC
:101A8000EF92FF920F931F93CF93DF93EC016A01C4
:101A90007B012115310579F4E881F9810190F0810C
:101AA000E02D642FDF91CF911F910F91FF90EF9068
:101AB000DF90CF9019942A303105E9F477FF1AC0EE
:101AC0006DE20E94C80C8C0144275527BA014C19BD
:101AD0005D096E097F092AE0CE010E94E50C800FA6
:101AE000911FDF91CF911F910F91FF90EF90DF90A9
:101AF000CF9008952AE0B701A601CE01DF91CF91E2
:101B00001F910F91FF90EF90DF90CF900C94E50C18
:101B10009A01AB01662757FD6095762F0C943E0D18
:101B20000F931F93CF93DF93EC019A01AB016627CC
:101B300057FD6095762F0E943E0D8C01CE010E94CC
:101B4000CF0C800F911FDF91CF911F910F910895BE
:101B50000895A1E21A2EAA1BBB1BFD010DC0AA1FEE
:101B6000BB1FEE1FFF1FA217B307E407F50720F006
:101B7000A21BB30BE40BF50B661F771F881F991F81
:101B80001A9469F760957095809590959B01AC01CA
:101B9000BD01CF010895EE0FFF1F0590F491E02DD8
:101BA00019940790F691E02D19940F931F93CF93FA
:101BB000DF93CDB7DEB72E970FB6F894DEBF0FBE1A
:101BC000CDBF0E891F8986E08C831A8309838FEF2E
:101BD0009FE79E838D83AE01465E5F4F688D798D52
:101BE000CE0101960E94040EEF81F885E00FF11FEF
:101BF00010822E960FB6F894DEBF0FBECDBFDF91D8
:101C0000CF911F910F9108952F923F924F925F9223
:101C10006F927F928F929F92AF92BF92CF92DF92FC
:101C2000EF92FF920F931F93CF93DF93CDB7DEB761
:101C30002C970FB6F894DEBF0FBECDBF7C016B01B1
:101C40008A01FC0117821682838181FFBDC1CE010A
:101C500001964C01F7019381F60193FD859193FF65
:101C600081916F01882309F4ABC1853239F493FD6A
:101C7000859193FF81916F01853229F4B70190E03E
:101C80000E941510E7CF512C312C20E02032A0F417
:101C90008B3269F030F4803259F0833269F420617C
:101CA0002CC08D3239F0803339F4216026C0226097
:101CB000246023C0286021C027FD27C030ED380FE5
:101CC0003A3078F426FF06C0FAE05F9E300D11240A
:101CD000532E13C08AE0389E300D1124332E20621B
:101CE0000CC08E3221F426FD6BC1206406C08C36F8
:101CF00011F4206802C0883641F4F60193FD859105
:101D000093FF81916F018111C1CF982F9F7D9554D1
:101D1000933028F40C5F1F4FFFE3F9830DC0833627
:101D200031F0833771F0833509F05BC022C0F801D0
:101D3000808189830E5F1F4F44244394512C5401AA
:101D400015C03801F2E06F0E711CF801A080B1805F
:101D500026FF03C0652D70E002C06FEF7FEFC50165
:101D60002C870E940A102C0183012C852F77222EAC
:101D700017C03801F2E06F0E711CF801A080B1802D
:101D800026FF03C0652D70E002C06FEF7FEFC50135
:101D90002C870E94FF0F2C012C852068222E8301A6
:101DA00023FC1BC0832D90E048165906B0F4B70100
:101DB00080E290E00E9415103A94F4CFF50127FCE0
:101DC000859127FE81915F01B70190E00E94151077
:101DD00031103A94F1E04F1A51084114510471F74F
:101DE000E5C0843611F0893639F5F80127FF07C0C0
:101DF00060817181828193810C5F1F4F08C0608177
:101E00007181882777FD8095982F0E5F1F4F2F7661
:101E1000B22E97FF09C090958095709561957F4F80
:101E20008F4F9F4F2068B22E2AE030E0A4010E941D
:101E30004710A82EA81844C0853729F42F7EB22E4B
:101E40002AE030E025C0F22FF97FBF2E8F36C1F097
:101E500018F4883579F0B4C0803719F0883721F04C
:101E6000AFC02F2F2061B22EB4FE0DC08B2D846029
:101E7000B82E09C024FF0AC09F2F9660B92E06C055
:101E800028E030E005C020E130E002C020E132E08F
:101E9000F801B7FE07C060817181828193810C5F78
:101EA0001F4F06C06081718180E090E00E5F1F4F80
:101EB000A4010E944710A82EA818FB2DFF77BF2E63
:101EC000B6FE0BC02B2D2E7FA51450F4B4FE0AC015
:101ED000B2FC08C02B2D2E7E05C07A2C2B2D03C002
:101EE0007A2C01C0752C24FF0DC0FE01EA0DF11DF6
:101EF0008081803311F4297E09C022FF06C07394CB
:101F0000739404C0822F867809F0739423FD13C064
:101F100020FF06C05A2C731418F4530C5718732C56
:101F2000731468F4B70180E290E02C870E941510CA
:101F300073942C85F5CF731410F4371801C0312C2D
:101F400024FF12C0B70180E390E02C870E94151097
:101F50002C8522FF17C021FF03C088E590E002C056
:101F600088E790E0B7010CC0822F867859F021FDF8
:101F700002C080E201C08BE227FD8DE2B70190E054
:101F80000E941510A51438F4B70180E390E00E9478
:101F900015105A94F7CFAA94F401EA0DF11D80812F
:101FA000B70190E00E941510A110F5CF332009F47D
:101FB00051CEB70180E290E00E9415103A94F6CF1E
:101FC000F7018681978102C08FEF9FEF2C960FB6A5
:101FD000F894DEBF0FBECDBFDF91CF911F910F915F
:101FE000FF90EF90DF90CF90BF90AF909F908F9039
:101FF0007F906F905F904F903F902F900895FC01DD
:102000000590615070400110D8F7809590958E0F23
:102010009F1F0895FC016150704001900110D8F796
:10202000809590958E0F9F1F08950F931F93CF93C8
:10203000DF93182F092FEB018B8181FD03C08FEFF8
:102040009FEF20C082FF10C04E815F812C813D81B7
:10205000421753077CF4E881F9819F012F5F3F4FBE
:1020600039832883108306C0E885F985812F199567
:10207000892B29F72E813F812F5F3F4F3F832E838E
:10208000812F902FDF91CF911F910F910895FA0129
:10209000AA27283051F1203181F1E8946F936E7FA7
:1020A0006E5F7F4F8F4F9F4FAF4FB1E03ED0B4E098
:1020B0003CD0670F781F891F9A1FA11D680F791FD9
:1020C0008A1F911DA11D6A0F711D811D911DA11DEA
:1020D00020D009F468943F912AE0269F11243019FA
:1020E000305D3193DEF6CF010895462F4770405D95
:1020F0004193B3E00FD0C9F7F6CF462F4F70405D44
:102100004A3318F0495D31FD4052419302D0A9F79E
:10211000EACFB4E0A6959795879577956795BA9598
:10212000C9F700976105710508959B01AC010A2E5E
:1021300006945795479537952795BA95C9F7620F35
:0E214000731F841F951FA01D0895F894FFCFF4
:10214E000100000020264F1F357020232226232257
:10215E00252561207061636B657420686173206250
:10216E0065656E2073656E7420746F2030782578E7
:10217E0020776974682076616C75653A2030782511
:10218E00780A007261773A2000207C7C20646567B3
:10219E007265653A0074776F207061636B65747356
:1021AE002068617665206265656E2073656E7420A9
:1021BE00746F203078257820776974682076616C8A
:1021CE00756520413A20307825780A000A43434D40
:1021DE00522070726F6772616D20696E69746961E9
:1021EE006C697A656400205B4445425547204D4F2B
:1021FE0044455D0A000A0A2D2D2D2D2D2D2D2D2D38
:10220E002D524541445920544F204255524E2D2DAA
:10221E002D2D2D2D2D2D2D2D0A0000000000FF053A
:10222E00D205A705AF05C205D105000000001A0BA7
:10223E009E0C6D0A860A780AF80A0D0A006E616E07
:0C224E0000696E66006F7666002E0000CE
:00000001FF
