:1000000003C100002EC100002CC100002AC1000065
:1000100028C1000026C1000024C1000022C1000048
:1000200020C100001EC100001CC100001AC1000058
:1000300018C1000016C1000014C1000012C1000068
:1000400010C100000EC100000CC100000AC1000078
:1000500008C1000006C1000004C100000C94090D95
:1000600000C100000C94F20E0C944210FAC0000083
:10007000F8C00000F6C00000F4C00000F2C00000AC
:10008000F0C00000EEC00000ECC00000EAC00000BC
:100090000C94320F0C948110E4C000000C94580BA7
:1000A000E0C00000DEC00000DCC00000DAC00000DC
:1000B000D8C00000D6C00000D4C00000D2C00000EC
:1000C000D0C00000CEC00000CCC000000C94720F65
:1000D0000C94C010C6C000000C94B20F0C94FF101A
:1000E000C0C0000000002100240027002A002D00CD
:1000F0003000330001010000040107010A01000083
:100100002200250028002B002E00310034000201BF
:100110000000050108010B0100002000230026005B
:1001200029002C002F00320000010000030106010D
:10013000090105050505070508080808020202026D
:100140000A0A080804040404010101010101010173
:100150000303030303030303040707070C0C0C0C3E
:100160000C0C0C0C02020202060606060606060627
:100170000B0B0B0B0B0B0B0B0102102020080810B4
:100180002040102040800201020108040201010207
:1001900004081020408080402010080402018004E0
:1001A000020180402010080402010804020101023B
:1001B0000408102040800102040810204080000044
:1001C000090A02080B0C0D070603040100000000D9
:1001D000000000000000000000000000000000001F
:1001E0000000000000000000000011100F000000DF
:1001F00000000000000000000000000000000000FF
:1002000000000000FC096F1211241FBECFEFD1E2E5
:10021000DEBFCDBF00E00CBF13E0A0E0B2E0E4E23F
:10022000FBE200E00BBF02C007900D92A830B107BF
:10023000D9F71BBE16E0A8E0B3E001C01D92A33BB6
:10024000B107E1F712E0C8E0D2E004C02297FE0156
:100250000E945515C430D107C9F70E94A6130C940B
:100260009015CECEAEE0B0E0E8E3F1E00C94671577
:100270000E891F8986E08C831A8309838FEF9FE79D
:100280009E838D839E01265E3F4FCE010196688D31
:10029000798DA9010AD02F813885020F131FF8012B
:1002A00010822E96E4E00C948315ABE0B0E0EBE511
:1002B000F1E00C9459153C012B015A01FC01178205
:1002C0001682838181FD03C06FEF7FEFB9C19AE091
:1002D000892E1E010894211C311CF3012381F20197
:1002E00023FD859123FF81912F01882309F4A5C166
:1002F000853239F423FD859123FF81912F018532C9
:1003000021F490E0B301B7D1E8CF982FFF24EE2479
:100310009924FFE1FF15D0F09B3269F09C3228F45C
:10032000903259F0933291F40EC09D3249F09033DF
:1003300069F441E024C052E0F52A84E0F82A28C09C
:1003400098E0F92A25C0E0E1FE2A22C0F7FC29C086
:10035000892F80538A3070F4F6FE05C0989C902C4B
:100360001124980E15C0E89CE02C1124E80EF0E250
:10037000FF2A0EC09E3229F4F6FC5FC140E4F42A45
:1003800007C09C3619F450E8F52A02C0983649F4A3
:10039000F20123FD959123FF91912F01992309F0FB
:1003A000B8CF892F8554833018F08052833038F4C9
:1003B00044E050E0A40EB51E5FE359830FC09336AE
:1003C00031F0933779F0933509F052C01FC0F50131
:1003D0008081898342E050E0A40EB51E610101E0F6
:1003E00010E011C0F501C080D180F6FC03C06FEFB2
:1003F0007FEF02C0692D70E042E050E0A40EB51E10
:10040000C6012ED18C015FE7F52213C0F501C08033
:10041000D180F6FC03C06FEF7FEF02C0692D70E062
:1004200042E050E0A40EB51EC6010FD18C0150E889
:10043000F52AF3FE06C018C080E290E0B3011BD19C
:10044000EA948E2D90E008171907B0F30DC0F6015D
:10045000F7FC8591F7FE81916F0190E0B3010BD11C
:10046000E110EA94015010400115110581F7E2C036
:10047000943611F0993661F5F7FE08C0F501208138
:1004800031814281538184E090E00AC0F50180818E
:1004900091819C01442737FD4095542F82E090E0E4
:1004A000A80EB91E9FE6F92257FF09C05095409546
:1004B000309521953F4F4F4F5F4FE0E8FE2ACA012C
:1004C000B901A1012AE030E002D1D82ED2183FC0F4
:1004D000953729F41F2D1F7E2AE030E01DC01F2D07
:1004E000197F9F3661F0903720F4983509F0A5C048
:1004F0000FC0903739F0983709F09FC004C028E04A
:1005000030E00AC0106114FD146020E130E004C046
:1005100014FD166020E132E017FF08C0F50160818C
:1005200071818281938144E050E008C0F5018081AF
:100530009181BC0180E090E042E050E0A40EB51E45
:10054000A101C5D0D82ED2188FE7F82EF122F6FEE1
:100550000BC05EEFF522D91438F4F4FE07C0F2FCAC
:1005600005C08FEEF82202C01D2D01C0192DF4FE2A
:100570000DC0FE01ED0DF11D8081803319F499EE5F
:10058000F92208C01F5FF2FE05C003C08F2D8678D8
:1005900009F01F5F0F2DF3FC13C0F0FE0EC01E15F7
:1005A00010F09D2C0AC09D2C9E0C911A1E2D05C08A
:1005B00080E290E0B3015FD01F5F1E15C8F304C056
:1005C0001E1510F4E11A01C0EE2404FF0EC080E3F2
:1005D00090E0B30150D002FF1BC001FD03C088E7CB
:1005E00090E00EC088E590E00BC0802F867881F007
:1005F00001FF02C08BE201C080E2F7FC8DE290E0D7
:10060000B30139D005C080E390E0B30134D09A94AF
:10061000D914C8F3DA94F101ED0DF11D808190E059
:10062000B30129D0DD20B1F705C080E290E0B3012D
:1006300022D0EA94EE20C9F750CEF301668177818B
:10064000CB012B96E2E10C947515FC0105906150ED
:1006500070400110D8F7809590958E0F9F1F0895D8
:10066000FC016150704001900110D8F78095909581
:100670008E0F9F1F08950F931F93CF93DF938C01CD
:10068000EB018B8181FF1BC082FF0DC02E813F815A
:100690008C819D812817390764F4E881F9810193E1
:1006A000F983E88306C0E885F985802F1995892BA1
:1006B00031F48E819F8101969F838E8302C00FEF5C
:1006C0001FEFC801DF91CF911F910F910895FA019B
:1006D000AA27283051F1203181F1E8946F936E7F81
:1006E0006E5F7F4F8F4F9F4FAF4FB1E03ED0B4E072
:1006F0003CD0670F781F891F9A1FA11D680F791FB3
:100700008A1F911DA11D6A0F711D811D911DA11DC3
:1007100020D009F468943F912AE0269F11243019D3
:10072000305D3193DEF6CF010895462F4770405D6E
:100730004193B3E00FD0C9F7F6CF462F4F70405D1D
:100740004A3318F0495D31FD4052419302D0A9F778
:10075000EACFB4E0A6959795879577956795BA9572
:10076000C9F700976105710508959B01AC010A2E38
:1007700006945795479537952795BA95C9F7620F0F
:10078000731F841F951FA01D0895CF93DF93EC0165
:100790006115710519F420E030E00FC0DB010D9008
:1007A0000020E9F71197A61BB70BE881F9810280B9
:1007B000F381E02DAD0119959C01C901DF91CF9125
:1007C0000895DF92EF92FF920F931F93DF93CF93E1
:1007D000CDB7DEB7C050D1400FB6F894DEBF0FBE24
:1007E000CDBF8C01D62EF42EEE24222311F4EE245C
:1007F000E39488E893E06D2DBBD588E893E06D2DF8
:1008000070E042E050E08ED688E893E0CED5D80183
:1008100011968C9388E893E0C8D5282FF80182833D
:10082000F7E0FF15E8F0D80111962C911197EE2012
:1008300061F481E090E002C0880F991FFA94E2F71A
:100840008095282311962C9326C081E090E002C069
:10085000880F991FFA94E2F7282BF80121831BC017
:100860004F2D4850EE2069F481E090E002C0880FDF
:10087000991F4A95E2F780958223D80112968C93AE
:100880000AC081E090E002C0880F991F4A95E2F704
:10089000282BF8012283D8011196FC90119712960B
:1008A0001C9188E893E06D2D63D588E893E06F2D67
:1008B000EAD588E893E0612FE6D588E893E024D66E
:1008C00080910803882339F1EDB7FEB738970FB64A
:1008D000F894FEBF0FBEEDBF31968E010F5F1F4F24
:1008E000ADB7BEB712961C930E93119780E092E0BD
:1008F00093838283D4821582F6821782B3DCEDB7AC
:10090000FEB738960FB6F894FEBF0FBEEDBF8BE270
:1009100096E0B8013ADFC050DF4F0FB6F894DEBF63
:100920000FBECDBFCF91DF911F910F91FF90EF9040
:10093000DF900895662329F06091E50247E021E009
:1009400004C06091E50247E020E03BCF662329F038
:100950006091E50249E021E004C06091E50249E0D0
:1009600020E02FCF662329F06091E5024AE021E0E4
:1009700004C06091E5024AE020E023CFEF92FF92AD
:100980000F931F93DF93CF93CDB7DEB7EC970FB6DE
:10099000F894DEBF0FBECDBFF62EE42E88E893E0BC
:1009A000E7D488E893E06E2D6ED588E893E0ACD567
:1009B00080910803882369F18DB79EB708970FB619
:1009C000F8949EBF0FBE8DBFEDB7FEB731968E0176
:1009D0000F5F1F4FADB7BEB712961C930E931197C2
:1009E00087E392E093838283F4821582E682178202
:1009F00039DC8DB79EB708960FB6F8949EBF0FBE30
:100A00008DBF80910903882321F08BE296E0B80125
:100A1000BCDEEC960FB6F894DEBF0FBECDBFCF9113
:100A2000DF911F910F91FF90EF900895611571056F
:100A300021F46091E10240EF14C06130710521F4AE
:100A40006091E10241EF0DC06230710521F46091C7
:100A5000E10242EF06C06330710521F46091E102CA
:100A600044EF8CCF6430710521F46091E10248EFCE
:100A700085CF08950F931F93182F092F662309F030
:100A800044C06091E60241E020E09BDE812F902F80
:100A90006091E60246E021E094DE65E070E080E0EF
:100AA00090E0FFD7812F902F6091E60240E020E098
:100AB00088DE812F902F6091E60247E021E081DE01
:100AC00065E070E080E090E0ECD7812F902F60919E
:100AD000E60246E020E075DE812F902F6091E6026D
:100AE00041E021E06EDE65E070E080E090E0D9D783
:100AF000812F902F6091E60247E020E062DE812F97
:100B0000902F6091E60240E043C06091E60247E02A
:100B100020E057DE812F902F6091E60240E021E037
:100B200050DE65E070E080E090E0BBD7812F902F31
:100B30006091E60246E020E044DE812F902F609134
:100B4000E60241E021E03DDE65E070E080E090E01B
:100B5000A8D7812F902F6091E60240E020E031DE9F
:100B6000812F902F6091E60247E021E02ADE65E0C8
:100B700070E080E090E095D7812F902F6091E602A1
:100B800041E020E01EDE812F902F6091E60246E0DA
:100B900021E017DE65E070E080E090E082D71F91F1
:100BA0000F9108950F931F93182F092F662309F0B3
:100BB00044C06091E60243E020E003DE812F902FE5
:100BC0006091E6024BE021E0FCDD65E070E080E052
:100BD00090E067D7812F902F6091E60242E020E0FD
:100BE000F0DD812F902F6091E6024AE021E0E9DDFF
:100BF00065E070E080E090E054D7812F902F609105
:100C0000E6024BE020E0DDDD812F902F6091E602CF
:100C100043E021E0D6DD65E070E080E090E041D780
:100C2000812F902F6091E6024AE020E0CADD812FFB
:100C3000902F6091E60242E043C06091E6024AE0F4
:100C400020E0BFDD812F902F6091E60242E021E09D
:100C5000B8DD65E070E080E090E023D7812F902F31
:100C60006091E6024BE020E0ACDD812F902F609197
:100C7000E60243E021E0A5DD65E070E080E090E081
:100C800010D7812F902F6091E60242E020E099DD9D
:100C9000812F902F6091E6024AE021E092DD65E02D
:100CA00070E080E090E0FDD6812F902F6091E60209
:100CB00043E020E086DD812F902F6091E6024BE03B
:100CC00021E07FDD65E070E080E090E0EAD61F91F2
:100CD0000F910895DF92EF92FF920F931F9360910F
:100CE000E7024CEF4BDE08E813E0C8016091E70231
:100CF0003FD3C8016091E70242E016D4C80155D342
:100D0000D82EC80152D3FD2CEE24E80EF91EC801DE
:100D1000FBD38BE296E0B7014AE050E00E94C71493
:100D2000C7011F910F91FF90EF90DF900895DF9220
:100D3000EF92FF920F931F936091E7024CEB1EDE40
:100D400008E813E0C8016091E70212D3C80160917E
:100D5000E70242E0E9D3C80128D3D82EC80125D341
:100D6000FD2CEE24E80EF91E8BE296E0B7014AE076
:100D700050E00E94C714C801C7D3C7011F910F914B
:100D8000FF90EF90DF900895CF92DF92FF920F9344
:100D90001F9333E3C32E33E0D32EC60162E070E02D
:100DA00045DE08E813E0C80168E470E0EBD2C80152
:100DB00068E470E042E050E0B5D3C801F6D2F82E06
:100DC000C801F3D2682F8F2D0E94E4148C01C60154
:100DD00060E070E02BDEC801880F892F881F990B17
:100DE00062E070E00E940A158BE296E04AE050E073
:100DF0000E94C7141F910F91FF90DF90CF9008952C
:100E0000FF920F931F93CF93DF93EC01F62E8BE2AB
:100E100096E040E855E260E070E00E943E1181E516
:100E200090E090930B0380930A0310920D031092AD
:100E30000C0310920F0310920E0387E790E090933B
:100E40000F0380930E03109211031092100310925F
:100E500013031092120383E390E0909313038093A3
:100E6000120385E090E09093150380931403109291
:100E700017031092160388E893E058D3CE016091CF
:100E8000D9024FEF7BDDCE016091DA024FEF76DDC4
:100E9000CE016091DB024FEF71DDCE016091DC028B
:100EA0004FEF6CDDCE016091DC024FEF67DDCE01CC
:100EB0006091DE024FEF62DDCE016091DF024FEF05
:100EC0005DDDCE016091E0024FEF58DDCE01609113
:100ED000DD024FEF53DD88E893E06091E50248D2F0
:100EE00088E893E06FEFCFD288E893E06FEFCBD242
:100EF00088E893E009D388E893E06091E60238D26D
:100F000088E893E06FEFBFD288E893E06FEFBBD241
:100F100088E893E0F9D2CE016091E20247E12EDD4C
:100F2000CE016091E20242ED29DDCE016091E40242
:100F300040E024DD88E893E06091E30219D288E87C
:100F400093E060910A039FD288E893E060910C03DC
:100F50009AD288E893E060910E0395D288E893E0F6
:100F6000D3D288E893E06091E30202D288E893E06C
:100F700060910E0388D288E893E06091100383D2D9
:100F800088E893E0609112037ED288E893E0BCD2B7
:100F900088E893E06091E302EBD188E893E0609108
:100FA000120371D288E893E0609114036CD288E850
:100FB00093E06091160367D288E893E0A5D288E8B1
:100FC00093E06091E202D4D188E893E06091E2027C
:100FD00048E1AAD288E893E0E8D18093180388E832
:100FE00093E0E3D18093190388E893E0DED1809306
:100FF0001A0388E893E0D9D180931B0388E893E033
:10100000D4D180931C0388E893E0CFD180931D0353
:1010100088E893E0CAD180931E0388E893E0C5D1A5
:1010200080931F0388E893E0C0D18093200388E871
:1010300093E0BBD18093210388E893E0B6D18093FD
:10104000220388E893E0B1D18093230388E893E0FA
:10105000ACD18093240388E893E0A7D18093250343
:1010600088E893E0A2D18093260388E893E09DD19D
:101070008093270388E893E098D18093280388E839
:1010800093E093D18093290388E893E08ED18093F5
:101090002A0388E893E089D180932B0388E893E0C2
:1010A00084D180932C0388E893E07FD180932D0333
:1010B00088E893E07AD180932E0388E893E075D195
:1010C00080932F0388E893E06091E40251D188E88F
:1010D00093E06091E20242E027D288E893E065D194
:1010E00080932F0388E893E060D18093300382954A
:1010F0008F7090912F03292F30E054E0220F331F7F
:101100005A95E1F7280F311D88E02030380754F454
:1011100044E0359527954A95E1F7309317032093DE
:1011200016030BC0C9018050904160E170E00E943D
:101130000A15709317036093160388E893E0E4D1CF
:101140008BE296E068E672E020DB8BE296E060914D
:101150002F034AE050E00E946D148BE296E060910C
:1011600030034AE050E00E946D148BE296E06DE699
:1011700072E00BDB80910803882329F08BE296E074
:1011800067E872E004C08BE296E066E972E0FDDA9F
:1011900068EE73E080E090E084D48E010D5F1F4F15
:1011A000C80198DDBC018BE296E04AE050E00E9465
:1011B000C714C8018FDDBC018BE296E04AE050E025
:1011C0000E94C714FF2099F18BE296E068E972E073
:1011D000DCDA8E010A5F1F4FC8016091E50241E031
:1011E00021E0EFDAC8016091E50240E021E0E9DAB0
:1011F0008E01075F1F4FC80161E0B4DBC80161E0E9
:10120000A5DBC80160E0AEDBC80160E09FDBC80180
:1012100061E090DB60E177E280E090E042D4C801D9
:1012200060E088DB8BE296E062EB72E0AEDA64EFBE
:1012300071E080E090E035D48BE296E06CEB72E0F8
:10124000A4DACE0106966091E50241E021E0B9DA28
:1012500081E08093090364E670E080E090E021D4AF
:10126000DF91CF911F910F91FF9008958DE061E084
:10127000D3D48DE061E083D580E393E060E0C0DD0E
:1012800089E393E061E062DB89E393E060E06ADB9D
:101290008CE393E01FDD883C91052CF00FC089E3BF
:1012A00093E061E0E7DB8CE393E014DD883C91059B
:1012B000B4F30AC089E393E060E0DCDB8CE393E005
:1012C00009DD893C9105B4F78CE393E030DD8C5265
:1012D00091402CF00FC089E393E061E063DC8CE384
:1012E00093E025DD8C529140B4F30AC089E393E08A
:1012F00060E058DC8CE393E01ADD8D529140B4F746
:1013000089E393E06091E60243E020E05ADA89E362
:1013100093E06091E6024BE020E053DA89E393E04A
:101320006091E6024AE020E04CDA89E393E06091C4
:10133000E60242E020E045DA89E393E06091E602CC
:1013400041E020E03EDA89E393E06091E60246E086
:1013500020E037DA89E393E06091E60240E020E0A4
:1013600030DA89E393E06091E60247E020E029CAA1
:1013700081E0809387036093640310928503109249
:101380008603089581E0809387036093640310923D
:1013900085031092860308952091630330E08091C5
:1013A0006203281B3109C9010895409162038091AD
:1013B0006303481718F02FEF3FEF0AC0E42FF0E067
:1013C000EE5BFC4F8081282F30E04F5F409362033B
:1013D000C9010895E091620380916303E81718F052
:1013E000EFEFFFEF06C0F0E0EE5BFC4F8081E82FEF
:1013F000F0E0CF010895089510928B0310928A03B4
:1014000088EE93E0A0E0B0E080938C0390938D038E
:10141000A0938E03B0938F038CEE92E09093890398
:10142000809388030895CF92DF92EF92FF920F93FB
:101430001F93CF93DF937C016B018A018091870317
:101440008823A1F0C0E0D0E00DC0D701ED91FC9160
:10145000D601AC0FBD1F0190F081E02DC7016C914A
:1014600019952196C017D10780F303C0CB01642FD3
:1014700004D1C801DF91CF911F910F91FF90EF90A0
:10148000DF90CF900895DF93CF930F92CDB7DEB763
:10149000FC016983809187038823C9F080918603CA
:1014A000803238F081E090E09383828320E030E066
:1014B00014C080918503E82FF0E0EB59FC4F99812F
:1014C00090838F5F809385038093860304C0CE0151
:1014D000019661E0D2D021E030E0C9010F90CF91B8
:1014E000DF9108950F93062F8091640365E673E002
:1014F0004091860321E06CD0109285031092860300
:10150000109287030F91089561E0ECCF413208F00B
:1015100040E2862F62E473E012D01092620380935F
:101520006303089521E0F2CF21E0F0CF109262032F
:101530001092630310928503109286034EC2382FD7
:10154000413210F040E042C0809194038823E1F7DB
:1015500091E090939403209396038FEF809301047E
:101560001092BC0341504093BD034F5F909395038D
:1015700080919503330F832B80939503809197037C
:10158000813041F410929703809195038093BB00C2
:1015900085EC01C085EE8093BC008091940381307E
:1015A000E1F38091BC03841710F44091BC0320E068
:1015B00030E00AC0FB01E20FF31FD901A456BC4F73
:1015C0008C9180832F5F3F4F2417A0F3842F0895C1
:1015D0000F931F93582F122F413210F081E04AC011
:1015E000809194038823E1F782E080939403009331
:1015F00096038FEF809301041092BC034093BD03C8
:10160000ACE9B3E0FB0102C081918D938E2F861B64
:101610008417D0F31092950380919503550F852B75
:101620008093950380919703813041F41092970342
:10163000809195038093BB0085EC01C085EE80937B
:10164000BC00112321F0809194038230E1F380915A
:1016500001048F3F11F480E00DC0809101048032BD
:1016600011F482E007C080910104803311F084E01E
:1016700001C083E01F910F910895482F613210F04F
:1016800081E0089580919403843011F082E0089500
:101690006093DF03AEEBB3E0842F9C01F90102C03D
:1016A00081918D938E2F841B8617D0F380E008954F
:1016B0001F920F920FB60F920BB60F9211242F9319
:1016C0003F934F935F936F937F938F939F93AF93CA
:1016D000BF93EF93FF938091B90090E0887F907063
:1016E0008036910509F4F2C081369105CCF5883237
:1016F000910509F47BC089329105B4F480319105DC
:1017000009F46FC0813191053CF4009709F447C199
:10171000089709F04FC165C08831910509F466C08A
:10172000809709F047C182C08034910509F4A4C0B4
:101730008134910544F48033910509F482C0C8973F
:1017400009F038C189C08035910509F489C0883510
:10175000910509F496C08834910509F02BC1AEC0FB
:101760008839910509F413C189399105ECF488375A
:10177000910509F4ABC0893791054CF48836910581
:1017800009F4A4C08037910509F014C19FC08838BE
:10179000910509F4FCC08039910509F49DC0803899
:1017A000910509F007C198C0803B910509F4C6C0B6
:1017B000813B91054CF4803A910509F49FC0883A29
:1017C000910509F0F7C0BAC0803C910509F4E3C067
:1017D000883C910509F4DFC0883B910509F0EAC017
:1017E000C2C0809195038093BB00CFC09091BC0391
:1017F0008091BD03981768F49091BC03E92FF0E045
:10180000E456FC4F80818093BB009F5F9093BC03A4
:10181000BCC080919603882309F44BC085ED80936A
:10182000BC008091BC0084FDFCCFC2C080E28093EC
:10183000010485ED8093BC008091BC0084FDFCCF49
:10184000B7C080E38093010485ED8093BC00809154
:10185000BC0084FDFCCFACC088E3809301049BC036
:101860008091BC039091BB00E82FF0E0E456FC4F60
:1018700090838F5F8093BC039091BC038091BD03E4
:1018800082C08091BC039091BB00E82FF0E0E45649
:10189000FC4F90838F5F8093BC03809196038823D5
:1018A00041F085ED8093BC008091BC0084FDFCCFAD
:1018B0007FC081E08093970384EA6EC085ED8093BA
:1018C000BC008091BC0084FDFCCF72C083E080939B
:1018D00094031092000459C080910004803208F0F3
:1018E00056C0809100049091BB00E82FF0E0E052D8
:1018F000FC4F90838F5F8093000447C08091000469
:10190000803230F4E0910004F0E0E052FC4F1082AD
:1019100085ED8093BC008091BC0084FDFCCF1092CB
:10192000940360910004E0919A03F0919B0380EE90
:1019300093E070E01995109200042DC084E080932C
:1019400094031092DE031092DF03E0919803F0916C
:10195000990319958091DF03882329F481E080930E
:10196000DF031092BE039091DE03E92FF0E0E25412
:10197000FC4F80818093BB009F5F9093DE0390912A
:10198000DE038091DF03981710F485EC01C085E831
:101990008093BC000FC085EC8093BC0009C01092FE
:1019A000010485ED8093BC008091BC0084FDFCCFD8
:1019B00010929403FF91EF91BF91AF919F918F91FE
:1019C0007F916F915F914F913F912F910F900BBE3F
:1019D0000F900FBE0F901F9018951092940381E006
:1019E000809396031092970384E161E0C8D185E16A
:1019F00061E0C5D1E9EBF0E080818E7F808380815A
:101A00008D7F808388E48093B80085E48093BC0058
:101A100008951F920F920FB60F9211242F933F93A8
:101A20008F939F93AF93BF93809106049091070487
:101A3000A0910804B091090430910A040196A11DF7
:101A4000B11D232F2D5F2D3720F02D570196A11D9D
:101A5000B11D20930A048093060490930704A09379
:101A60000804B09309048091020490910304A091AA
:101A70000404B09105040196A11DB11D80930204D8
:101A800090930304A0930404B0930504BF91AF9115
:101A90009F918F913F912F910F900FBE0F901F90AC
:101AA00018959B01AC017FB7F89480910204909146
:101AB0000304A0910404B091050466B5A89B05C079
:101AC0006F3F19F00196A11DB11D7FBFBA2FA92F3D
:101AD000982F8827860F911DA11DB11D62E0880FE8
:101AE000991FAA1FBB1F6A95D1F7BC012DC0FFB774
:101AF000F8948091020490910304A0910404B091A1
:101B00000504E6B5A89B05C0EF3F19F00196A11D9D
:101B1000B11DFFBFBA2FA92F982F88278E0F911DB7
:101B2000A11DB11DE2E0880F991FAA1FBB1FEA95F6
:101B3000D1F7861B970B885E9340C8F22150304046
:101B40004040504068517C4F2115310541055105F9
:101B500071F60895789484B5826084BD84B58160FF
:101B600084BD85B5826085BD85B5816085BDEEE6A5
:101B7000F0E0808181608083E1E8F0E01082808184
:101B800082608083808181608083E0E8F0E08081F2
:101B900081608083E1EBF0E0808184608083E0EB12
:101BA000F0E0808181608083E1E9F0E08081826003
:101BB0008083808181608083E0E9F0E080818160C2
:101BC0008083E1EAF0E080818260808380818160AF
:101BD0008083E0EAF0E0808181608083E1E2F1E0EF
:101BE000808182608083808181608083E0E2F1E097
:101BF000808181608083EAE7F0E080818460808377
:101C00008081826080838081816080838081806820
:101C100080831092C1000895CF93DF93482F50E046
:101C2000CA0188589E4FFC0134914E5C5E4FFA0108
:101C30008491882369F190E0880F991FFC01EC5191
:101C4000FF4FA591B491FC01E250FF4FC591D49193
:101C5000662351F42FB7F8948C91932F9095892394
:101C60008C93888189230BC0623061F42FB7F8947C
:101C70008C91932F909589238C938881832B8883D3
:101C80002FBF06C09FB7F8948C91832B8C939FBF76
:101C9000DF91CF910895893009F449C08A30A0F4CA
:101CA000843051F1853040F4823079F1833000F591
:101CB000813009F063C026C0873079F1883098F50B
:101CC000863009F05BC025C08D3009F442C08E30EB
:101CD00028F48B30B1F18C30C0F52DC0803109F47F
:101CE00042C0813109F445C08F3009F047C037C088
:101CF000809180008F7703C0809180008F7D8093DA
:101D00008000089584B58F7702C084B58F7D84BD2F
:101D100008958091B0008F7703C08091B0008F7DCF
:101D20008093B0000895809190008F7707C08091D4
:101D300090008F7D03C080919000877F80939000FA
:101D400008958091A0008F7707C08091A0008F7DBB
:101D500003C08091A000877F8093A00008958091A8
:101D600020018F7703C0809120018F7D8093200117
:101D7000089580912001877F809320010895FF922C
:101D80000F931F93F62E482F50E0CA0182549E4FA6
:101D9000FC012491CA0188589E4FFC0114914E5CAD
:101DA0005E4FFA0104910023C1F0222311F0822F2B
:101DB00072DFE02FF0E0EE0FFF1FE250FF4FA59122
:101DC000B4919FB7F894FF2021F48C911095812352
:101DD00002C08C91812B8C939FBF1F910F91FF901C
:101DE000089508951F920F920FB60F920BB60F929F
:101DF00011242F933F934F938F939F93EF93FF93D0
:101E00008091C00082FD1DC04091C60020914B040E
:101E100030914C042F5F3F4F2F73307080914D04F1
:101E200090914E042817390771F0E0914B04F0911E
:101E30004C04E55FFB4F408330934C0420934B04EC
:101E400002C08091C600FF91EF919F918F914F91B9
:101E50003F912F910F900BBE0F900FBE0F901F90D0
:101E6000189508951F920F920FB60F920BB60F920E
:101E700011242F933F934F938F939F93EF93FF934F
:101E80008091C80082FD1DC04091CE002091D304F6
:101E90003091D4042F5F3F4F2F7330708091D50461
:101EA0009091D6042817390771F0E091D304F0918E
:101EB000D404ED56FB4F40833093D4042093D304D5
:101EC00002C08091CE00FF91EF919F918F914F9131
:101ED0003F912F910F900BBE0F900FBE0F901F9050
:101EE000189508951F920F920FB60F920BB60F928E
:101EF00011242F933F934F938F939F93EF93FF93CF
:101F00008091D00082FD1DC04091D60020915B05DC
:101F100030915C052F5F3F4F2F73307080915D05CE
:101F200090915E052817390771F0E0915B05F091FB
:101F30005C05E55EFA4F408330935C0520935B05BA
:101F400002C08091D600FF91EF919F918F914F91A8
:101F50003F912F910F900BBE0F900FBE0F901F90CF
:101F6000189508951F920F920FB60F920BB60F920D
:101F700011242F933F934F938F939F93EF93FF934E
:101F80008091300182FD1DC0409136012091E30512
:101F90003091E4052F5F3F4F2F7330708091E5053E
:101FA0009091E6052817390771F0E091E305F0916B
:101FB000E405ED55FA4F40833093E4052093E305A3
:101FC00002C080913601FF91EF919F918F914F91C7
:101FD0003F912F910F900BBE0F900FBE0F901F904F
:101FE0001895E0913706F0913806E05CFF4F81913B
:101FF000919120813181805C9F4F821B930B60E423
:1020000070E008D5892B09F0ECDEE0915906F091DB
:102010005A06E05CFF4F8191919120813181805C73
:102020009F4F821B930B60E470E0F4D4892B09F07E
:1020300018DFE0917B06F0917C06E05CFF4F819118
:10204000919120813181805C9F4F821B930B60E4D2
:1020500070E0E0D4892B09F044DFE0919D06F09117
:102060009E06E05CFF4F8191919120813181805CDF
:102070009F4F821B930B60E470E0CCD4892B09F056
:1020800070CF08951F920F920FB60F920BB60F925A
:1020900011242F933F938F939F93EF93FF9320915E
:1020A0008F043091900480919104909192042817AC
:1020B000390731F48091C1008F7D8093C10014C035
:1020C000E0919104F0919204E15BFB4F20818091BB
:1020D00091049091920401968F7390709093920462
:1020E000809391042093C600FF91EF919F918F916F
:1020F0003F912F910F900BBE0F900FBE0F901F902E
:1021000018951F920F920FB60F920BB60F921124D3
:102110002F933F938F939F93EF93FF9320911705F6
:10212000309118058091190590911A0528173907E3
:1021300031F48091C9008F7D8093C90014C0E09173
:102140001905F0911A05E952FB4F2081809119057C
:1021500090911A0501968F73907090931A05809351
:1021600019052093CE00FF91EF919F918F913F91A0
:102170002F910F900BBE0F900FBE0F901F901895D0
:102180001F920F920FB60F920BB60F9211242F933E
:102190003F938F939F93EF93FF9320919F053091EF
:1021A000A0058091A1059091A2052817390731F467
:1021B0008091D1008F7D8093D10014C0E091A10562
:1021C000F091A205E15AFA4F20818091A1059091EA
:1021D000A20501968F7390709093A2058093A1053C
:1021E0002093D600FF91EF919F918F913F912F9176
:1021F0000F900BBE0F900FBE0F901F9018951F925F
:102200000F920FB60F920BB60F9211242F933F939C
:102210008F939F93EF93FF93209127063091280689
:102220008091290690912A062817390731F4809168
:1022300031018F7D8093310114C0E0912906F09126
:102240002A06E951FA4F20818091290690912A06A9
:1022500001968F73907090932A068093290620939D
:102260003601FF91EF919F918F913F912F910F90A8
:102270000BBE0F900FBE0F901F901895AF92BF929C
:10228000DF92EF92FF920F931F93CF93DF93EC01B6
:102290007A018B01DD24403081EE580780E0680729
:1022A00080E0780711F0DD24D39491E0A92EB12CC1
:1022B000EC89FD89DD2069F0C50108A002C0880F06
:1022C000991F0A94E2F7808360E079E08DE390E063
:1022D00005C0108260E874E88EE190E0A8019701E3
:1022E000ACD32150304040405040569547953795EB
:1022F000279580E12030380720F0DD2011F0DD2423
:10230000D7CFE889F9893083EA89FB89208319A22C
:10231000EE89FF89408121E030E0C9010C8C02C0C8
:10232000880F991F0A94E2F7482B4083EE89FF89B2
:102330004081C9010D8C02C0880F991F0A94E2F7F1
:10234000482B4083EE89FF894081C9010E8C02C071
:10235000880F991F0A94E2F7482B4083EE89FF8982
:1023600080810F8C02C0220F331F0A94E2F7209560
:1023700028232083DF91CF911F910F91FF90EF9041
:10238000DF90BF90AF900895DC011C96ED91FC9119
:102390001D97E05CFF4F8191919120813181805C9C
:1023A0009F4F821B930B60E470E034C3DC011C96EA
:1023B000ED91FC911D97E05CFF4F20813181E0544D
:1023C000F040DF01AE5BBF4F8D919C9111972817B4
:1023D000390719F42FEF3FEF07C08D919C91E80F5B
:1023E000F91F8081282F30E0C9010895DC011C9677
:1023F000ED91FC911D97E05CFF4F20813181E0540D
:10240000F040DF01AE5BBF4F8D919C911197281773
:10241000390719F42FEF3FEF10C08D919C91119760
:10242000E80FF91F20818D919C91119701968F7370
:10243000907011969C938E9330E0C9010895DC0151
:1024400091968C919197882339F05496ED91FC9157
:102450005597808186FFF9CF91961C920895CF936E
:10246000DF93EC01EE85FF85E05CFF4F2081318139
:10247000E054F0402F5F3F4F2F733070DF01AE5BB1
:10248000BF4F8D919C91119728173907D1F3E05CCC
:10249000FF4F80819181E054F040E80FF91F608385
:1024A000EE85FF85E05CFF4F31832083EE89FF8955
:1024B000208181E090E00F8C02C0880F991F0A9460
:1024C000E2F7282B208381E089A3EC89FD898081B4
:1024D0008064808381E090E0DF91CF9108951F9325
:1024E00010922E0610922D0628EE33E040E050E0C8
:1024F00020932F06309330064093310650933206D6
:102500006CEF72E070932C0660932B068BE094E0E6
:1025100090933806809337068FE494E090933A06C0
:102520008093390685EC90E090933C0680933B06BF
:1025300084EC90E090933E0680933D0680EC90E022
:102540009093400680933F0681EC90E09093420682
:102550008093410682EC90E090934406809343067A
:1025600086EC90E0909346068093450614E0109325
:102570004706B3E0B0934806A7E0A0934906F5E00C
:10258000F0934A06E1E0E0934B0610925006109259
:102590004F062093510630935206409353065093B2
:1025A000540670934E0660934D0683E994E0909331
:1025B0005A068093590687ED94E090935C068093C9
:1025C0005B068DEC90E090935E0680935D068CEC4C
:1025D00090E09093600680935F0688EC90E0909383
:1025E00062068093610689EC90E090936406809384
:1025F00063068AEC90E090936606809365068EEC05
:1026000090E0909368068093670610936906B093F4
:102610006A06A0936B06F0936C06E0936D06109229
:1026200072061092710620937306309374064093DD
:102630007506509376067093700660936F068BE173
:1026400095E090937C0680937B068FE595E09093D0
:102650007E0680937D0685ED90E0909380068093C2
:102660007F0684ED90E0909382068093810680ED52
:1026700090E0909384068093830681ED90E09093A0
:1026800086068093850682ED90E09093880680937D
:10269000870686ED90E090938A06809389061093D2
:1026A0008B06B0938C06A0938D06F0938E06E09374
:1026B0008F061092940610929306209395063093FD
:1026C00096064093970650939806709392066093EF
:1026D000910683EA95E090939E0680939D0687EE8F
:1026E00095E09093A00680939F0685E391E09093F8
:1026F000A2068093A10684E391E09093A4068093C0
:10270000A30680E391E09093A6068093A50681E35B
:1027100091E09093A8068093A70682E391E09093BE
:10272000AA068093A90686E391E09093AC06809375
:10273000AB061093AD06B093AE06A093AF06F09330
:10274000B006E093B1061F9108950895CF93DF93EB
:1027500001DAFBDF0E943609C1EFDFE00E94C40608
:102760002097E1F33EDCFACFCF92DF92EF92FF9217
:102770000F931F93CF93DF937C016B018A01C0E01D
:10278000D0E00FC0D6016D916D01D701ED91FC91A4
:102790000190F081E02DC7011995C80FD91F015094
:1027A00010400115110571F7CE01DF91CF911F91F6
:1027B0000F91FF90EF90DF90CF900895EF92FF92EE
:1027C0000F931F938C01DC01ED91FC910190F0813E
:1027D000E02D6DE019957C01D801ED91FC910190FF
:1027E000F081E02DC8016AE019959C012E0D3F1D76
:1027F000C9011F910F91FF90EF9008954F925F9242
:102800007F928F929F92AF92BF92CF92DF92EF9280
:10281000FF920F931F93DF93CF93CDB7DEB7A197AE
:102820000FB6F894DEBF0FBECDBF2C01742ECB01C6
:10283000223008F42AE019A231E2C32ED12CCC0EAA
:10284000DD1E822E9924AA24BB24672D752FA50195
:102850009401F3D079018A01C801B701A50194015F
:10286000BAD0472D461B0894C108D1084A3014F449
:10287000405D01C0495CF6014083E114F1040105AB
:10288000110521F07E2C5F2DC801DFCFC201B601FA
:102890000E94C503A1960FB6F894DEBF0FBECDBF50
:1028A000CF91DF911F910F91FF90EF90DF90CF902C
:1028B000BF90AF909F908F907F905F904F900895C2
:1028C000DC012115310541F4ED91FC910190F0817D
:1028D000E02D642F1995089591CFCF92DF92EF925A
:1028E000FF920F931F936C01E62E9A01FF2400E0E4
:1028F00010E0B801A701E4DF8C01C6015FDF080F1B
:10290000191FC8011F910F91FF90EF90DF90CF909A
:102910000895CF92DF92EF92FF920F931F93CF9380
:10292000DF93EC016A017B012115310541F4E88157
:10293000F9810190F081E02D642F19951DC02A3096
:102940003105C9F477FF16C0E881F9810190F08163
:10295000E02D6DE219958C0144275527BA014C19D9
:102960005D096E097F09CE012AE048DF9801280F32
:10297000391F03C02AE042DF9C01C901DF91CF91DA
:102980001F910F91FF90EF90DF90CF900895CF921D
:10299000DF92EF92FF920F931F936C017B019A01DC
:1029A0000027F7FC0095102FB801A701B2DF8C01BA
:1029B000C60104DF080F191FC8011F910F91FF9076
:1029C000EF90DF90CF90089570E0382F20E0622BD9
:1029D000732BCB010895629FD001739FF001829FFA
:1029E000E00DF11D649FE00DF11D929FF00D839F9E
:1029F000F00D749FF00D659FF00D9927729FB00D3B
:102A0000E11DF91F639FB00DE11DF91FBD01CF014D
:102A10001124089597FB092E07260AD077FD04D0CC
:102A20002ED006D000201AF4709561957F4F08953E
:102A3000F6F7909581959F4F0895A1E21A2EAA1B53
:102A4000BB1BFD010DC0AA1FBB1FEE1FFF1FA2175E
:102A5000B307E407F50720F0A21BB30BE40BF50B5B
:102A6000661F771F881F991F1A9469F760957095E4
:102A7000809590959B01AC01BD01CF010895AA1BE3
:102A8000BB1B51E107C0AA1FBB1FA617B70710F059
:102A9000A61BB70B881F991F5A95A9F7809590958B
:102AA000BC01CD010895EE0FFF1F0590F491E02DBC
:102AB00019942F923F924F925F926F927F928F92D2
:102AC0009F92AF92BF92CF92DF92EF92FF920F93BD
:102AD0001F93CF93DF93CDB7DEB7CA1BDB0B0FB6C7
:102AE000F894DEBF0FBECDBF19942A883988488874
:102AF0005F846E847D848C849B84AA84B984C8841A
:102B0000DF80EE80FD800C811B81AA81B981CE0F10
:102B1000D11D0FB6F894DEBF0FBECDBFED010895F5
:042B2000F894FFCF57
:102B240074776F207061636B657473206861766578
:102B3400206265656E2073656E7420746F20307832
:102B4400257820776974682076616C756520413A30
:102B540020307825780A0061207061636B657420E9
:102B6400686173206265656E2073656E7420746F8E
:102B7400203078257820776974682076616C7565D3
:102B84003A20307825780A0054454D50000A4343D2
:102B94004D522070726F6772616D20696E6974693D
:102BA400616C697A656400205B4445425547204D59
:102BB4004F44455D0A000A00436C65616E696E67A7
:102BC4002056616C76657320616E6420506970656F
:102BD400730020434F4D504C455445000A0A2D2D97
:102BE4002D2D2D2D2D2D2D2D52454144592D2D2D7D
:102BF4002D2D2D2D2D2D2D0A002525222326222392
:102C04002070351F4F26204B00000000430A130A92
:102C1400CC09D509EA09FB09000000002F12B413FE
:082C2400C411F611D6111F12B4
:00000001FF
