:100000000C947F010C94B0010C94B0010C94B001DD
:100010000C94B0010C94B0010C94B0010C94B0019C
:100020000C94B0010C94B0010C94B0010C94B0018C
:100030000C94B0010C94B0010C94B0010C94B0017C
:100040000C94B0010C94B0010C94B0010C94B0016C
:100050000C94B0010C94B0010C94B0010C946D1090
:100060000C94B0010C9462130C9498130C94B0018E
:100070000C94B0010C94B0010C94B0010C94B0013C
:100080000C94B0010C94B0010C94B0010C94B0012C
:100090000C94B0010C94B0010C94B0010C943C0F82
:1000A0000C94B0010C94B0010C94B0010C94B0010C
:1000B0000C94B0010C94B0010C94B0010C94B001FC
:1000C0000C94B0010C94B0010C94B0010C94B001EC
:1000D0000C94B0010C94B0010C94B0010C94B001DC
:1000E0000C94B0017D1180116F1173117911B7114A
:1000F000841188118E11921196119C11A011A411D6
:10010000B711AA11AE11B21107634236B79BD8A737
:100110001A39685618AEBAAB558C1D3CB7CC57632C
:10012000BD6DEDFD753EF6177231BF000000803FDA
:1001300008000000BE922449123EABAAAA2ABECDF6
:10014000CCCC4C3E00000080BEABAAAAAA3E000068
:100150000000BF000000803F000000000008417860
:10016000D3BB4387D1133D190E3CC3BD4282AD2B97
:100170003E68EC8276BED98FE1A93E4C80EFFFBE8F
:1001800001C4FF7F3F00000000000C947D110C941F
:10019000F9110C94A0110C9488110C9484110C94F6
:1001A000450D0C94A4110C94AA110C9479120C9482
:1001B0009C110C94320D0C94B2110C949B120C9463
:1001C000CC130C941F140C94550D0C94B7110C9473
:1001D00007120C9496110C948E110C946F110C94C0
:1001E000C2130C9473110C9492110C942A0D0C945C
:1001F000820D0C94520E0C94EE110C941B120C9464
:1002000080110C9479110C94AE110C94540D0000D3
:100210000A0B02090C0D0E08070304010000000080
:1002200000000000000000000000000000000000CE
:10023000000000000000000000001211100000008B
:1002400000000000000000000000000000000000AE
:10025000000000000102102020080810204010209B
:10026000408002010201080402010102040810207A
:100270004080804020100804020180040201804078
:1002800020100804020108040201010204081020E1
:10029000408001020408102040800505050507057F
:1002A00008080808020202020A0A080804040404F2
:1002B000010101010101010103030303030303031E
:1002C000040707070C0C0C0C0C0C0C0C02020202AD
:1002D00006060606060606060B0B0B0B0B0B0B0B96
:1002E00000002200250028002B002E0031003400E1
:1002F00002010000050108010B01520ECC1311246C
:100300001FBECFEFD1E2DEBFCDBF00E00CBF14E0D7
:10031000A0E0B2E0E2EDF6E300E00BBF02C0079020
:100320000D92A835B107D9F725E0A8E5B4E001C0E2
:100330001D92AB3FB207E1F712E0CEEFD2E000E052
:1003400006C022970109FE010BBF0E949318CA3F05
:10035000D10780E00807A9F70E9410140C94671BCE
:100360000C9400006115710581F0DB010D900020F7
:10037000E9F7AD0141505109461B570BDC01ED91E6
:10038000FC910280F381E02D199480E090E00895C3
:10039000DC01ED91FC910190F081E02D19944F92D8
:1003A0005F926F927F928F929F92AF92BF92CF9205
:1003B000DF92EF92FF920F931F93CF93DF9300D0C2
:1003C0001F92CDB7DEB76091110285E994E00E94DB
:1003D000CB0D48E16091110285E994E00E94490E3D
:1003E00085E994E00E94320D80936C0485E994E0E5
:1003F0000E94320D80936D0485E994E00E94320DD5
:1004000080936E0485E994E00E94320D80936F041E
:1004100085E994E00E94320D8093700485E994E0B0
:100420000E94320D8093710485E994E00E94320DA0
:1004300092E7E92E94E0F92EF701808385E994E0B4
:100440000E94320D03E714E0F801808385E994E00F
:100450000E94320D8093740485E994E00E94320D6D
:100460008093750485E994E00E94320D80937604B0
:1004700085E994E00E94320D8093770485E994E049
:100480000E94320D8093780485E994E00E94320D39
:100490008093790485E994E00E94320D80937A0478
:1004A00085E994E00E94320D80937B0485E994E015
:1004B0000E94320D80937C0485E994E00E94320D05
:1004C00080937D0485E994E00E94320D80937E0440
:1004D00085E994E00E94320D80937F0485E994E0E1
:1004E0000E94320D8093800485E994E00E94320DD1
:1004F0008093810485E994E00E94320D8093820408
:1005000085E994E00E94320D80938304609111028A
:1005100085E994E00E94D50DF8016081F7018081A2
:100520000E9411159F70BC01882777FD8095982F38
:100530000E9417166B017C0120E030E040E450E49B
:100540000E9406174B015C0120E030E040E850E4D7
:10055000C701B6010E94061769837A838B839C8347
:1005600023E83FE545E95DE3C701B6010E94A31614
:1005700028E133E841E451E40E9418152B013C01C5
:10058000A7019601C701B6010E94A31623E33CE62A
:100590004DEE58E30E94A3169B01AC01C301B201CA
:1005A0000E9418156B017C012BE434E54EE853EBF7
:1005B000C501B4010E94A3169B01AC01C701B6019D
:1005C0000E9418156B017C0120ED3CE447E55DE2DB
:1005D00069817A818B819C810E94A3169B01AC0169
:1005E000C701B6010E9418150E94E415CB010F90B7
:1005F0000F900F900F90DF91CF911F910F91FF906F
:10060000EF90DF90CF90BF90AF909F908F907F90B2
:100610006F905F904F9008950F931F93CF93DF9348
:100620006091110285E994E00E94CB0D48E1609150
:10063000110285E994E00E94490E85E994E00E9448
:10064000320D80936C0485E994E00E94320D809312
:100650006D0485E994E00E94320D80936E0485E973
:1006600094E00E94320D80936F0485E994E00E942B
:10067000320D8093700485E994E00E94320D8093DE
:10068000710485E994E00E94320D8093720485E93B
:1006900094E00E94320D8093730485E994E00E94F7
:1006A000320D8093740485E994E00E94320D8093AA
:1006B000750485E994E00E94320D8093760485E903
:1006C00094E00E94320D8093770485E994E00E94C3
:1006D000320D8093780485E994E00E94320D809376
:1006E000790485E994E00E94320D80937A0485E9CB
:1006F00094E00E94320D80937B0485E994E00E948F
:10070000320DCCE7D4E0888385E994E00E94320D75
:100710000DE714E0F801808385E994E00E94320D32
:1007200080937E0485E994E00E94320D80937F04DB
:1007300085E994E00E94320D8093800485E994E07D
:100740000E94320D8093810485E994E00E94320D6D
:100750008093820485E994E00E94320D80938304A3
:100760006091110285E994E00E94D50DF801608145
:1007700088810E9411159F70BC01882777FD8095A4
:10078000982F0E94171620E030E44CE955E40E94AF
:100790007C152AE037ED43E25DE30E9417152CEB50
:1007A00034E743E15CE30E947C1520E030E040E266
:1007B00051E40E94A3160E94E415CB01DF91CF9172
:1007C0001F910F9108950F931F93CF93DF93CDB790
:1007D000DEB7EC970FB6F894DEBF0FBECDBF082F83
:1007E000162F682F85E994E00E94CB0D612F85E9D3
:1007F00094E00E94820D85E994E00E944F0E809162
:1008000094048823E9F01F921F931F920F938BE1AA
:1008100092E09F938F938E010F5F1F4F1F930F9353
:100820000E9497180FB6F894DEBF0FBECDBF80911F
:100830009304882329F0B8018EE595E00E94B20167
:10084000EC960FB6F894DEBF0FBECDBFDF91CF910F
:100850001F910F910895CF93DF936CEB80910C0261
:100860000E94E30360910C0285E994E00E94CB0DA5
:1008700042E060910C0285E994E00E94490E85E90E
:1008800094E00E94320DC82F85E994E00E94320D59
:1008900020E030E03C2FE901C80FD91F85E994E042
:1008A0000E944F0ECE01DF91CF910895CF93DF9339
:1008B0006CEF80910C020E94E30360910C0285E9C9
:1008C00094E00E94CB0D42E060910C0285E994E037
:1008D0000E94490E85E994E00E94320DC82F85E9F7
:1008E00094E00E94320D20E030E03C2FE901C80F77
:1008F000D91F85E994E00E944F0ECE01DF91CF9180
:100900000895EF92FF920F931F93CF93DF93CDB78C
:10091000DEB7C150D1400FB6F894DEBF0FBECDBFD9
:100920008C01F62EE42E85E994E0CF5FDE4F28831C
:10093000C150D1400E94CB0D6F2D70E042E050E0DD
:1009400085E994E00E944C0E85E994E00E94320D06
:10095000D80111968C9385E994E00E94320DF8013C
:100960008283CF5FDE4F2881C150D140F7E0FE1572
:10097000E8F0D80111964C911197222361F021E003
:1009800030E00E2C01C0220F0A94EAF720952423B0
:1009900011962C9325C081E090E00E2C01C0880FA9
:1009A0000A94EAF7842BF80181831AC098EF9E0D10
:1009B000222369F0E1E0F0E0092E01C0EE0F0A9475
:1009C000EAF7E095E823D8011296EC9309C021E0FC
:1009D00030E001C0220F9A95EAF7282BF801228314
:1009E000D8011296EC90129711961C916F2D85E903
:1009F00094E00E94CB0D612F85E994E00E94820D66
:100A00006E2D85E994E00E94820D85E994E00E94B4
:100A10004F0E809194048823E9F01F921F931F9238
:100A2000FF928EE592E09F938F938E010F5F1F4F91
:100A30001F930F930E9497180FB6F894DEBF0FBE56
:100A4000CDBF80919304882329F0B8018EE595E00D
:100A50000E94B201CF5FDE4F0FB6F894DEBF0FBE2B
:100A6000CDBFDF91CF911F910F91FF90EF9008952F
:100A7000CF93DF93EC0120E043E060910D020E94F0
:100A8000810421E04BE060910D02CE010E948104BF
:100A900065E070E080E090E00E94DA1020E042E043
:100AA00060910D02CE010E94810421E04AE0609134
:100AB0000D02CE010E94810465E070E080E090E0CC
:100AC0000E94DA1020E04BE060910D02CE010E94FE
:100AD000810421E043E060910D02CE010E94810477
:100AE00065E070E080E090E00E94DA1020E04AE0EB
:100AF00060910D02CE010E94810421E042E06091EC
:100B00000D02CE010E94810465E070E080E090E07B
:100B1000DF91CF910C94DA10CF93DF93EC01611148
:100B200004C0DF91CF910C94380520E04AE0609139
:100B30000D020E94810421E042E060910D02CE018D
:100B40000E94810465E070E080E090E00E94DA108D
:100B500020E04BE060910D02CE010E94810421E073
:100B600043E060910D02CE010E94810465E070E0D7
:100B700080E090E00E94DA1020E042E060910D02F7
:100B8000CE010E94810421E04AE060910D02CE0175
:100B90000E94810465E070E080E090E00E94DA103D
:100BA00020E043E060910D02CE010E94810421E02B
:100BB0004BE060910D02CE010E94810465E070E07F
:100BC00080E090E0DF91CF910C94DA10CF93DF9327
:100BD000EC0120E041E060910D020E94810421E0DF
:100BE00046E060910D02CE010E94810465E070E054
:100BF00080E090E00E94DA1020E040E060910D0279
:100C0000CE010E94810421E047E060910D02CE01F7
:100C10000E94810465E070E080E090E00E94DA10BC
:100C200020E046E060910D02CE010E94810421E0A7
:100C300041E060910D02CE010E94810465E070E008
:100C400080E090E00E94DA1020E047E060910D0221
:100C5000CE010E94810421E040E060910D02CE01AE
:100C60000E94810465E070E080E090E0DF91CF9128
:100C70000C94DA10CF93DF93EC01611104C0DF9183
:100C8000CF910C94E60520E047E060910D020E94B0
:100C9000810421E040E060910D02CE010E948104B8
:100CA00065E070E080E090E00E94DA1020E046E02D
:100CB00060910D02CE010E94810421E041E060912B
:100CC0000D02CE010E94810465E070E080E090E0BA
:100CD0000E94DA1020E040E060910D02CE010E94F7
:100CE000810421E047E060910D02CE010E94810461
:100CF00065E070E080E090E00E94DA1020E041E0E2
:100D000060910D02CE010E94810421E046E06091D5
:100D10000D02CE010E94810465E070E080E090E069
:100D2000DF91CF910C94DA1021E048E060910E023F
:100D30000C94810421E04AE060910E020C9481043D
:100D4000CF93DF93EC0121E045E060910E020E9419
:100D5000810421E043E060910E02CE01DF91CF914A
:100D60000C948104CF93DF93EC01662321F0DF9193
:100D7000CF910C94A00620E043E060910E020E9407
:100D8000810420E045E060910E02CE01DF91CF9119
:100D90000C948104CF93DF93EC0121E041E060915A
:100DA0000E020E94810421E040E060910E02CE011B
:100DB000DF91CF910C948104CF93DF93EC0120E07D
:100DC00043E060910D020E94810420E04BE06091BD
:100DD0000D02CE010E94810420E04AE060910D02E4
:100DE000CE010E94810420E042E060910D02CE011C
:100DF000DF91CF910C948104CF93DF93EC0120E03D
:100E000041E060910D020E94810420E046E0609183
:100E10000D02CE010E94810420E040E060910D02AD
:100E2000CE010E94810420E047E060910D02CE01D6
:100E3000DF91CF910C94810421E049E060910E0292
:100E40000C948104CF93DF93EC0121E044E06091A6
:100E50000E020E94810421E046E060910E02CE0164
:100E6000DF91CF910C948104CF93DF93EC01662343
:100E700021F0DF91CF910C94220720E044E06091B3
:100E80000E020E94810420E046E060910E02CE0135
:100E9000DF91CF910C94810421E042E060910E0239
:100EA0000C948104CF93DF9388E694E00E940C03B6
:100EB000C0910602D09107028C1B9D0B18161906D3
:100EC0005CF488E694E00E940C03209106023091C5
:100ED0000702821B930B08C088E694E00E940C0373
:100EE0009E01281B390BC901209104023091050293
:100EF00028173907C4F488E694E00E940C03209177
:100F0000060230910702281739073CF460E08FE5AC
:100F100094E0DF91CF910C94B2068FE594E0DF91DD
:100F2000CF910C94A006DF91CF91089588E694E0CC
:100F30000E94CF018C329140CCF088E694E00E9470
:100F40000C038039914094F081E08093580488E646
:100F500094E00E94CF01813991405CF488E694E0EE
:100F60000E940C038538934024F407C01092580463
:100F7000EECF8CE594E00C944C0720E042E06091C9
:100F80000E028CE594E00C9481041F93CF93DF93C1
:100F90006CEA809112020E94E3036091120285E9DB
:100FA00094E00E94CB0D42E06091120285E994E04A
:100FB0000E94490E85E994E00E94320D182F85E9C0
:100FC00094E00E94320D20E030E0312F820F931F19
:100FD000909392048093910485E994E00E944F0ECF
:100FE0008091910490919204813A9F400CF051C0FD
:100FF0008CE594E00E944C0782E694E00E949406FF
:101000006CEA809112020E94E3036091120285E96A
:1010100094E00E94CB0D42E06091120285E994E0D9
:101020000E94490E85E994E00E94320D182F85E94F
:1010300094E00E94320DD12F20E0C22F8C0F9D1F13
:10104000909392048093910485E994E00E944F0E5E
:101050008091910490919204813A9F409CF020E00D
:1010600048E060910E0282E694E00E94810420E054
:1010700042E060910E028CE594E0DF91CF911F91E8
:101080000C94810462E370E080E090E00E94DA104A
:10109000B7CFDF91CF911F9108950E9496070E94CC
:1010A000C5070E94520780915804811110C020E0AA
:1010B00047E060910E0282E694E00E94810420E005
:1010C00049E060910E0282E694E00C948104089558
:1010D0008F929F92AF92BF92CF92DF92EF92FF9248
:1010E0000F931F93CF93DF931F92CDB7DEB78C0181
:1010F000F62E26E040E855E260E070E08EE595E0EF
:101100000E94001381E590E090938E0480938D04FB
:101110001092900410928F041092920410929104F5
:1011200087E790E090938A048093890410928C045E
:1011300010928B0410928E0410928D0483E390E041
:10114000909386048093850485E090E090938804D2
:101150008093870410928A041092890485E994E0B0
:101160000E94C10D6FEF80911A020E94E3036FEF9E
:10117000809119020E94E3036FEF809118020E9490
:10118000E3036FEF809117020E94E3036FEF8091FA
:1011900017020E94E3036FEF809115020E94E303A0
:1011A0006FEF809114020E94E3036FEF80911302AE
:1011B0000E94E3036FEF809116020E94E3036091A7
:1011C0000E0285E994E00E94CB0D6FEF70E085E997
:1011D00094E00E94C8016FEF70E085E994E00E94FE
:1011E000C80185E994E00E944F0E60910D0285E9E7
:1011F00094E00E94CB0D6FEF70E085E994E00E94CF
:10120000C8016FEF70E085E994E00E94C80185E9AC
:1012100094E00E944F0E67E1809111020E94E30367
:1012200062ED809111020E94E30360E080910F0261
:101230000E94E3036091100285E994E00E94CB0DC7
:1012400060918D0470918E0485E994E00E94C8013C
:1012500060918F047091900485E994E00E94C80128
:10126000609191047091920485E994E00E94C80114
:1012700085E994E00E944F0E6091100285E994E0A8
:101280000E94CB0D6091890470918A0485E994E0F5
:101290000E94C80160918B0470918C0485E994E0F0
:1012A0000E94C80160918D0470918E0485E994E0DC
:1012B0000E94C80185E994E00E944F0E60911002DF
:1012C00085E994E00E94CB0D6091850470918604BD
:1012D00085E994E00E94C8016091870470918804B8
:1012E00085E994E00E94C8016091890470918A04A4
:1012F00085E994E00E94C80185E994E00E944F0EC0
:101300006091110285E994E00E94CB0D48E1609163
:10131000110285E994E00E94490E85E994E00E945B
:10132000320D80936C0485E994E00E94320D809325
:101330006D0485E994E00E94320D80936E0485E986
:1013400094E00E94320D80936F0485E994E00E943E
:10135000320D8093700485E994E00E94320D8093F1
:10136000710485E994E00E94320D8093720485E94E
:1013700094E00E94320D8093730485E994E00E940A
:10138000320D8093740485E994E00E94320D8093BD
:10139000750485E994E00E94320D8093760485E916
:1013A00094E00E94320D8093770485E994E00E94D6
:1013B000320D8093780485E994E00E94320D809389
:1013C000790485E994E00E94320D80937A0485E9DE
:1013D00094E00E94320D80937B0485E994E00E94A2
:1013E000320D80937C0485E994E00E94320D809355
:1013F0007D0485E994E00E94320D80937E0485E9A6
:1014000094E00E94320D80937F0485E994E00E946D
:10141000320D8093800485E994E00E94320D809320
:10142000810485E994E00E94320D8093820485E96D
:1014300094E00E94320D8093830460910F0285E94D
:1014400094E00E94CB0D42E06091110285E994E0A6
:101450000E94490E85E994E00E94320D80936B044E
:1014600085E994E00E94320D80936C0490916B04A6
:1014700082958F70282F30E080E1989F200D311DDC
:101480001124211598E039072CF0305137FF02C0A4
:10149000215F3F4FF4E035952795FA95E1F73093BA
:1014A00084042093830485E994E00E944F0E65E94B
:1014B00072E08EE595E00E94541480919404882394
:1014C00019F06FEA72E002C069E474E08EE595E01D
:1014D0000E94B20168EE73E080E090E00E94DA10B2
:1014E000F80133966F01FF2009F443C26EEB72E0FE
:1014F0008EE595E00E945414C6010E94CA066AEC6B
:1015000072E08EE595E00E9454144801F9E08F0ED8
:10151000911C0E942B048C329140B4F40E942B0445
:101520008C3291402CF461E0C4010E948C05F6CF0E
:1015300064EF71E080E090E00E94DA100E945604AF
:10154000803D974054F005C10E942B048D3291409C
:101550007CF3C4010E943805F7CF0E945604803DF9
:1015600097402CF461E0C4010E943A06F6CF6BED7F
:1015700072E08EE595E00E945414C4010E949A0620
:1015800068EE73E080E090E00E94DA1020E04AE02C
:1015900060910E02C4010E948104C4010E9494065D
:1015A00068EB7BE080E090E00E94DA1020E048E009
:1015B00060910E02C4010E9481046DEE72E08EE51E
:1015C00095E00E944714C4010E949A06C4010E943B
:1015D0001C0721E044E060910D02C4010E948104D7
:1015E00068EE73E080E090E00E94DA1067E073E05C
:1015F0008EE595E00E94471468EE73E080E090E08D
:101600000E94DA1064E373E08EE595E00E944714CF
:1016100068EE73E080E090E00E94DA1064E373E02B
:101620008EE595E00E94471468EE73E080E090E05C
:101630000E94DA1064E373E08EE595E00E9447149F
:1016400068EE73E080E090E00E94DA1064E373E0FB
:101650008EE595E00E94471468EE73E080E090E02C
:101660000E94DA1064E373E08EE595E00E9447146F
:1016700068EE73E080E090E00E94DA1064E373E0CB
:101680008EE595E00E94471468EE73E080E090E0FC
:101690000E94DA1064E373E08EE595E00E9447143F
:1016A00068EE73E080E090E00E94DA1064E373E09B
:1016B0008EE595E00E94471468EE73E080E090E0CC
:1016C0000E94DA106CE073E08EE595E00E9447140A
:1016D00020E049E060910E02C4010E94810420E0F4
:1016E0004AE060910E02C4010E94810420E044E0BF
:1016F00060910D02C4010E94810463E473E08EE5F1
:1017000095E00E94541468EC70E080E090E00E9444
:10171000DA1061E173E08EE595E00E94541469E20D
:1017200073E08EE595E00E94541480910A02909136
:101730000B0221E1289F7001299FF00C1124F4ED88
:10174000EF1AFEEFFF0A0E942B048E159F055CF036
:101750002DC00E945604813D97400CF408CFC4016F
:101760000E94E605F6CF0E942B048E159F052CF4EF
:1017700061E0C4010E948C05F6CF60E373E08EE562
:1017800095E00E945414809108029091090222E190
:10179000289F7001299FF00C112488ECE80EF11CA1
:1017A0000E9456048E159F0554F02BC00E942B04F6
:1017B000E816F90614F7C4010E943805F7CF0E9415
:1017C00056048E159F052CF461E0C4010E943A0670
:1017D000F6CF66E373E08EE595E00E9454146DE465
:1017E00073E08EE595E00E94541462E673E08EE5A6
:1017F00095E00E945414809194048111BAC0B12CD8
:1018000016C00E945604E816F9061CF7C4010E948F
:10181000E605F7CF8E36A1F020E06AE070E080E0C8
:1018200090E029830E94DA10298121110CC08EE5F5
:1018300095E00E940712893769F7BB24B39401C071
:10184000B12C21E0EACFF80136967F01015F1F4FEE
:10185000BB2009F452C061E773E08EE595E00E9479
:10186000541468EE73E080E090E00E94DA10C70143
:101870000E942207C8010E94CF018C329140C4F51A
:10188000C8010E94CF015C016CE973E08EE595E030
:101890000E944714B501660F771F6A0D7B1D4AE051
:1018A00050E08EE595E00E9409156DEA73E08EE543
:1018B00095E00E94471468EB73E08EE595E00E9486
:1018C0004714C8010E94CF014AE050E0BC018EE5F8
:1018D00095E00E9409156AEC73E08EE595E00E94A0
:1018E000541468EE73E080E090E00E94DA10C2CFFA
:1018F00060E0C7010E94340706C06FEC73E08EE51C
:1019000095E00E94541462EE73E08EE595E00E942B
:101910005414C4010E94DC06C4010E94FC06C701E5
:101920000E94A006C8010E940C03843F9140ECF481
:1019300060ED77E080E090E00E94DA1062EF73E003
:101940008EE595E00E944714C8010E940C034AE00E
:1019500050E0BC018EE595E00E9409156DEF73E043
:101960008EE595E00E945414DDCF60E0C7010E942F
:10197000B20664EF71E080E090E00E94DA1063E06C
:1019800074E08EE595E00E94B20120E041E06091B4
:101990000E02C6010E94810420E040E060910E0228
:1019A000C6010E94810421E041E060910E02C6015F
:1019B0000E94810481E08093930464E670E080E0FB
:1019C00090E00F90DF91CF911F910F91FF90EF90DA
:1019D000DF90CF90BF90AF909F908F900C94DA10D3
:1019E00061E089E594E00E94680882E694E00E9444
:1019F000DC0682E694E00E94FC0620E041E0609173
:101A00000E028CE594E00E94810421E040E06091A8
:101A10000E028CE594E00E94810420E047E0609192
:101A20000E0282E694E00E94810420E049E0609189
:101A30000E0282E694E00E94810460E08FE594E06B
:101A40000E94340720E044E060910D0282E694E0B9
:101A50000C9481048091C50490E02091C604821BFF
:101A6000910908952091C6048091C504281750F467
:101A7000E22FF0E0E953FB4F808190E02F5F20934D
:101A8000C60408958FEF9FEF0895E091C6048091FA
:101A9000C504E81730F4F0E0E953FB4F808190E093
:101AA00008958FEF9FEF08950895CF92DF92EF9200
:101AB000FF920F931F93CF93DF937C01CB018A0199
:101AC0002091A104222389F0EB016B01C40ED51EE5
:101AD000CC15DD0569F06991D701ED91FC9101907C
:101AE000F081E02DC7011995F3CF642F0E94130FE9
:101AF000C801DF91CF911F910F91FF90EF90DF9080
:101B0000CF900895CF93DF931F92CDB7DEB769834F
:101B10002091A1042223D1F02091A204203240F090
:101B200021E030E0FC013383228380E090E015C0A7
:101B30008091A304E82FF0E0EC55FB4F998190834E
:101B40008F5F8093A3048093A20405C061E0CE015F
:101B500001960E94130F81E090E00F90DF91CF91EA
:101B60000895FC011382128248EE53E060E070E0B9
:101B700044835583668377838CE294E091838083EA
:101B800008951092C6041092C5041092A3041092F6
:101B9000A2040C94560E81E08093A1046093C404C7
:101BA0001092A3041092A20408950F93062F21E02F
:101BB0004091A20464EA74E08091C4040E94BC0EC7
:101BC0001092A3041092A2041092A1040F91089500
:101BD0008F929F92AF92BF92CF92DF92EF92FF923D
:101BE0000F931F93CF93DF93EC01F62ED42E480171
:101BF0005901EE2019F10E94CB0D1E2D143008F072
:101C000013E01150B8F0E881F98128E0129FB0018B
:101C10001124A501940104C0569547953795279541
:101C20006A95D2F7CA01B9010190F081E02DCE0189
:101C30001995E7CF60E0CE010E94D50D4D2D4132C0
:101C400008F040E22C2D67EC74E08F2D0E94740E9A
:101C50001092C6048093C504DF91CF911F910F911C
:101C6000FF90EF90DF90CF90BF90AF909F908F90BC
:101C70000895CF92EF920F931F93C22EE12C00E0B4
:101C800010E098010E94E80D1F910F91EF90CF9006
:101C9000089521E00C94390E21E00C94390E61E096
:101CA0000C94D50D85E994E00C94B10D1092540577
:101CB00081E0809352051092510561E084E10E9419
:101CC000B81161E085E10E94B811E9EBF0E0808194
:101CD0008E7F808380818D7F808388E48093B800AD
:101CE00085E48093BC000895413208F043C0909190
:101CF00054059111FCCF91E0909354052093520527
:101D00002FEF2093E70410922C05240F20932B052E
:101D10009093530590915305880F892B8093530519
:101D200080915105813061F41092510580915305E5
:101D30008093BB008091BC0083FDF8CF85EC01C08F
:101D400085EE8093BC00809154058130E1F3809151
:101D50002C05841710F440912C052DE235E0FB0191
:101D6000D9018A2F821B841718F48D918193F9CFA2
:101D7000842F089580E008950F93413208F04AC0FF
:101D8000909154059111FCCF92E0909354050093EB
:101D900052059FEF9093E70410922C0540932B057A
:101DA000FB016DE275E0DB019A2F961B941718F486
:101DB00091919D93F9CF1092530590915305880FFF
:101DC000892B8093530580915105813061F41092E5
:101DD0005105809153058093BB008091BC0083FD29
:101DE000F8CF85EC01C085EE8093BC00222321F062
:101DF000809154058230E1F38091E7048F3F61F0D8
:101E00008091E704803251F08091E704803341F4FF
:101E100083E007C081E005C080E003C082E001C02C
:101E200084E00F910895613298F420915405243094
:101E300089F460930905FC018BE095E0DC012A2F11
:101E4000281B261718F421912D93F9CF80E00895CF
:101E500081E0089582E0089585ED8093BC00809133
:101E6000BC0084FDFCCF10925405089585EC80934E
:101E7000BC001092540508951F920F920FB60F9256
:101E800011240BB60F922F933F934F935F936F9351
:101E90007F938F939F93AF93BF93EF93FF93809123
:101EA000B900887F803609F49EC078F5883209F43D
:101EB0005DC090F4803109F456C038F4882309F4E9
:101EC000F5C0883009F44FC0F5C0883109F44EC020
:101ED000803209F45FC0EEC0803409F46AC058F45F
:101EE000803309F457C0883309F0E4C08093E704D5
:101EF0000E94360FDFC0803509F44FC0883509F4E1
:101F00005DC0883409F0D6C0D3C0883909F4C4C094
:101F1000A8F4883709F467C038F4883609F463C038
:101F2000803709F460C0C6C0883809F4B5C080396C
:101F300009F45FC0803809F0BDC05BC0803B09F484
:101F400083C038F4803A09F466C0883A09F47CC04A
:101F5000B1C0803C09F4A4C0883C09F4A1C0883B0E
:101F600009F487C0A7C08091530510C090912C053B
:101F700080912B05981770F5E0912C0581E08E0F6C
:101F800080932C05F0E0E35DFA4F80818093BB00E5
:101F900085EC83C08093E7048BC0E0912C0581E041
:101FA0008E0F80932C058091BB00F0E0E35DFA4F2B
:101FB000808390912C0580912B056BC0E0912C05BE
:101FC00081E08E0F80932C058091BB00F0E0E35DF3
:101FD000FA4F80838091520581116AC081E080931D
:101FE000510584EA5EC083E0809354051092E804B2
:101FF000CFCF8091E804803208F04EC0E091E80431
:1020000081E08E0F8093E8048091BB00F0E0E751FF
:10201000FB4F8083BDCF0E94360F8091E804803251
:1020200030F4E091E804F0E0E751FB4F108260915A
:10203000E80470E0E0914D05F0914E0589EE94E0E2
:1020400019951092E80436C084E0809354051092EC
:102050000A0510920905E0914F05F0915005199578
:1020600080910905811105C081E0809309051092D6
:102070000B05E0910A0581E08E0F80930A05F0E0E0
:10208000E55FFA4F80818093BB0090910A058091B3
:102090000905981708F47CCF85E88093BC000AC036
:1020A00085EC8093BC001092540504C01092E704A4
:1020B0000E942C0FFF91EF91BF91AF919F918F9153
:1020C0007F916F915F914F913F912F910F900BBE38
:1020D0000F900FBE0F901F9018951F920F920FB682
:1020E0000F9211242F933F938F939F93AF93BF939E
:1020F0008091560590915705A0915805B0915905CA
:102100003091550523E0230F2D3720F40196A11DB2
:10211000B11D05C026E8230F0296A11DB11D209315
:1021200055058093560590935705A0935805B09395
:10213000590580915A0590915B05A0915C05B0917D
:102140005D050196A11DB11D80935A0590935B0515
:10215000A0935C05B0935D05BF91AF919F918F9166
:102160003F912F910F900FBE0F901F9018953FB782
:10217000F89480915A0590915B05A0915C05B0910F
:102180005D0526B5A89B05C02F3F19F00196A11D3E
:10219000B11D3FBF6627782F892F9A2F620F711DBF
:1021A000811D911D42E0660F771F881F991F4A9578
:1021B000D1F70895CF92DF92EF92FF92CF93DF9302
:1021C0006B017C010E94B710EB01C114D104E10442
:1021D000F10489F00E9416150E94B7106C1B7D0B4C
:1021E000683E734090F381E0C81AD108E108F10815
:1021F000C851DC4FEACFDF91CF91FF90EF90DF9095
:10220000CF900895789484B5826084BD84B5816050
:1022100084BD85B5826085BD85B5816085BDEEE6EE
:10222000F0E0808181608083E1E8F0E010828081CD
:1022300082608083808181608083E0E8F0E080813B
:1022400081608083E1EBF0E0808184608083E0EB5B
:10225000F0E0808181608083E1E9F0E0808182604C
:102260008083808181608083E0E9F0E0808181600B
:102270008083E1EAF0E080818260808380818160F8
:102280008083E0EAF0E0808181608083E1E2F1E038
:10229000808182608083808181608083E0E2F1E0E0
:1022A000808181608083EAE7F0E0808184608083C0
:1022B000808182608083808181608083808180686A
:1022C00080831092C100089590E0FC013197E231C3
:1022D000F10508F04CC0EE58FF4F0C948D1880911A
:1022E00080008F7703C0809180008F7D8093800075
:1022F000089580918000877FF9CF84B58F7702C0E1
:1023000084B58F7D84BD08958091B0008F7703C020
:102310008091B0008F7D8093B000089580919000EF
:102320008F7707C0809190008F7D03C080919000CF
:10233000877F8093900008958091A0008F7707C0D9
:102340008091A0008F7D03C08091A000877F809343
:10235000A0000895809120018F7707C0809120010F
:102360008F7D03C080912001877F80932001089595
:102370000F931F93CF93DF931F92CDB7DEB7282F14
:1023800030E0F901E25FFD4F8491F901EC5AFD4F15
:102390001491F901E656FD4F04910023C9F08823FA
:1023A00021F069830E9464116981E02FF0E0EE0F53
:1023B000FF1FE052FD4FA591B4919FB7F8948C9107
:1023C000611103C01095812301C0812B8C939FBFA5
:1023D0000F90DF91CF911F910F910895FC01818D96
:1023E000228D90E0805C9F4F821B91098F7399270B
:1023F0000895FC01918D828D981731F0828DE80F40
:10240000F11D858D90E008958FEF9FEF0895FC01F9
:10241000918D828D981761F0828DDF01A80FB11D1B
:102420005D968C91928D9F5F9F73928F90E008953F
:102430008FEF9FEF089582EC93E1892B41F080E0CC
:1024400090E0892B21F00E94C213811125C080E009
:1024500090E0892B41F080E090E0892B21F00E94F0
:10246000000081111CC080E090E0892B41F080E0E9
:1024700090E0892B21F00E940000811113C080E0C0
:1024800090E0892BA1F080E090E0892B81F00E9400
:10249000000081110AC008950E940000D8CF0E9458
:1024A0000000E1CF0E940000EACF0C9400000895E4
:1024B000FC01848DDF01A80FB11DA35ABF4F2C91E1
:1024C000848D90E001968F739927848FA689B789B0
:1024D0002C93A089B1898C9180648C93938D848D89
:1024E000981306C00288F389E02D80818F7D808358
:1024F0000895CF93DF93EC01888D8823C9F0EA8992
:10250000FB89808185FD05C0A889B9898C9186FDEC
:102510000FC00FB607FCF5CF808185FFF2CFA889E9
:10252000B9898C9185FFEDCFCE010E945812E7CF7B
:10253000DF91CF910895CF92DF92FF920F931F9377
:10254000CF93DF931F92CDB7DEB76C0181E0D60148
:1025500058968C9358975B969C915B975C968C9160
:102560005C97981307C05096ED91FC91519780812C
:1025700085FD2EC0F601038D10E00F5F1F4F0F7316
:102580001127F02EF601848DF81211C00FB607FC4A
:10259000F9CFD6015096ED91FC915197808185FF3E
:1025A000F1CFC60169830E9458126981EBCF838DF8
:1025B000E80FF11DE35AFF4F6083D6015B960C9341
:1025C0005B975296ED91FC915397808180620CC08D
:1025D000D6015696ED91FC91579760835096ED91F8
:1025E000FC91519780818064808381E090E00F901E
:1025F000DF91CF911F910F91FF90DF90CF900895C1
:10260000BF92CF92DF92EF92FF92CF93DF93EC01D4
:102610006A017B01B22EE889F98982E08083411545
:1026200081EE580761057105A1F060E079E08DE366
:1026300090E0A70196010E946B18215031094109D1
:1026400051095695479537952795211580E138070B
:1026500098F0E889F989108260E874E88EE190E0EA
:10266000A70196010E946B182150310941095109B7
:102670005695479537952795EC85FD853083EE85F2
:10268000FF852083188EEC89FD89B082EA89FB8959
:10269000808180618083EA89FB8980818860808372
:1026A000EA89FB89808180688083EA89FB8980814F
:1026B0008F7D8083DF91CF91FF90EF90DF90CF905F
:1026C000BF9008951F920F920FB60F9211240BB670
:1026D0000F922F938F939F93EF93FF93E0916E054B
:1026E000F0916F058081E0917405F091750582FD90
:1026F00012C09081809177058F5F8F73209178054C
:10270000821751F0E0917705F0E0E25AFA4F958F89
:102710008093770501C08081FF91EF919F918F9108
:102720002F910F900BBE0F900FBE0F901F9018951A
:102730001F920F920FB60F9211240BB60F922F9388
:102740003F934F935F936F937F938F939F93AF9339
:10275000BF93EF93FF938EE595E00E945812FF918F
:10276000EF91BF91AF919F918F917F916F915F9109
:102770004F913F912F910F900BBE0F900FBE0F9076
:102780001F9018958EE595E00E94EE1121E0892BAF
:1027900009F420E0822F08951092610510926005DF
:1027A00088EE93E0A0E0B0E080936205909363052B
:1027B000A0936405B09365058CE394E090935F0566
:1027C00080935E0585EC90E090936B0580936A059D
:1027D00084EC90E090936D0580936C0580EC90E024
:1027E00090936F0580936E0581EC90E09093710556
:1027F0008093700582EC90E090937305809372054E
:1028000086EC90E09093750580937405109277059F
:10281000109278051092790510927A05089508951E
:102820000E9402110E940F140E94F00CCBE1D2E131
:102830000E944D082097E1F30E941B12F9CFCF921E
:10284000DF92EF92FF920F931F93CF93DF937C0160
:102850006A01EB0100E010E00C151D0571F06991B3
:10286000D701ED91FC910190F081E02DC701199500
:10287000892B19F00F5F1F4FEFCFC801DF91CF9168
:102880001F910F91FF90EF90DF90CF9008950C94DF
:10289000B201DC01ED91FC910190F081E02D1994E1
:1028A00068E474E00C94B2010F931F93CF93DF930D
:1028B000EC010E94B2018C01CE010E945014800FE5
:1028C000911FDF91CF911F910F9108958F929F9249
:1028D000AF92BF92CF92DF92EF92FF920F931F932E
:1028E000CF93DF93CDB7DEB7A1970FB6F894DEBFD5
:1028F0000FBECDBF7C01C42EE52FCB01D22E19A275
:1029000021E02D1510F02AE0D22E8E010F5D1F4F11
:102910008D2C912CA12CB12C6C2D7E2FA501940116
:102920000E946B188C2DD29E801911240150110920
:102930008A3014F4805D01C0895CF8018083211520
:1029400031054105510521F0C22EE32FCA01E4CF24
:10295000B801C7010E94B201A1960FB6F894DEBF7C
:102960000FBECDBFDF91CF911F910F91FF90EF90E0
:10297000DF90CF90BF90AF909F908F900895CF92AF
:10298000DF92EF92FF920F931F93CF93DF93EC01AF
:102990006A017B012115310579F4E881F981019003
:1029A000F081E02D642FDF91CF911F910F91FF9067
:1029B000EF90DF90CF9019942A303105E9F477FF3A
:1029C0001AC06DE20E9449148C0144275527BA01B0
:1029D0004C195D096E097F092AE0CE010E94661438
:1029E000800F911FDF91CF911F910F91FF90EF907A
:1029F000DF90CF9008952AE0B701A601CE01DF91C4
:102A0000CF911F910F91FF90EF90DF90CF900C949A
:102A100066149A01AB01662757FD6095762F0C94DA
:102A2000BF1470E09B01382BC901089508955058D8
:102A3000BB27AA270ED04DC13ED130F043D120F0A4
:102A400031F49F3F11F41EF433C10EF4E095E7FB1F
:102A500029C1E92F4FD180F3BA17620773078407A2
:102A6000950718F071F49EF567C10EF4E0950B2EF2
:102A7000BA2FA02D0B01B90190010C01CA01A001D0
:102A80001124FF27591B99F0593F50F4503E68F12B
:102A90001A16F040A22F232F342F4427585FF3CF6C
:102AA000469537952795A795F0405395C9F77EF43D
:102AB0001F16BA0B620B730B840BBAF09150A1F086
:102AC000FF0FBB1F661F771F881FC2F70EC0BA0F0C
:102AD000621F731F841F48F4879577956795B79594
:102AE000F7959E3F08F0B3CF9395880F08F099278C
:102AF000EE0F9795879508950CD0EBC0E3D040F08A
:102B0000DAD030F021F45F3F19F0CCC0511115C17B
:102B1000CFC0F0D098F39923C9F35523B1F3951B97
:102B2000550BBB27AA2762177307840738F09F5FEE
:102B30005F4F220F331F441FAA1FA9F333D00E2E5D
:102B40003AF0E0E830D091505040E695001CCAF7CA
:102B500029D0FE2F27D0660F771F881FBB1F26178F
:102B600037074807AB07B0E809F0BB0B802DBF0162
:102B7000FF2793585F4F2AF09E3F510568F092C09F
:102B8000DCC05F3FECF3983EDCF386957795679564
:102B9000B795F7959F5FC9F7880F911D9695879513
:102BA00097F90895E1E0660F771F881FBB1F621732
:102BB00073078407BA0720F0621B730B840BBA0BF0
:102BC000EE1F88F7E095089504D06894B111B5C060
:102BD000089598D088F09F5790F0B92F9927B75152
:102BE000A0F0D1F0660F771F881F991F1AF0BA95D1
:102BF000C9F712C0B13081F09FD0B1E008959CC0F8
:102C0000672F782F8827B85F39F0B93FCCF38695C6
:102C100077956795B395D9F73EF490958095709523
:102C200061957F4F8F4F9F4F0895E89409C097FBA0
:102C30003EF490958095709561957F4F8F4F9F4F93
:102C40009923A9F0F92F96E9BB279395F6958795D7
:102C500077956795B795F111F8CFFAF4BB0F11F49A
:102C600060FF1BC06F5F7F4F8F4F9F4F16C0882341
:102C700011F096E911C0772321F09EE8872F762F77
:102C800005C0662371F096E8862F70E060E02AF0B8
:102C90009A95660F771F881FDAF7880F96958795A4
:102CA00097F9089597F99F6780E870E060E00895CC
:102CB0009FEF80EC089500240A9416161706180654
:102CC0000906089500240A94121613061406050630
:102CD0000895092E0394000C11F4882352F0BB0FC1
:102CE00040F4BF2B11F460FF04C06F5F7F4F8F4F24
:102CF0009F4F089557FD9058440F551F59F05F3F5F
:102D000071F04795880F97FB991F61F09F3F79F00D
:102D100087950895121613061406551FF2CF46958F
:102D2000F1DF08C0161617061806991FF1CF869511
:102D30007105610508940895E894BB2766277727F5
:102D4000CB0197F908950BD0C4CFB5DF28F0BADFD7
:102D500018F0952309F0A6CFABCF1124EECFCADF30
:102D6000A0F3959FD1F3950F50E0551F629FF0019E
:102D7000729FBB27F00DB11D639FAA27F00DB11DF7
:102D8000AA1F649F6627B00DA11D661F829F222780
:102D9000B00DA11D621F739FB00DA11D621F839F07
:102DA000A00D611D221F749F3327A00D611D231FDD
:102DB000849F600D211D822F762F6A2F11249F572B
:102DC00050408AF0E1F088234AF0EE0FFF1FBB1F4E
:102DD000661F771F881F91505040A9F79E3F5105ED
:102DE00070F060CFAACF5F3FECF3983EDCF386959E
:102DF00077956795B795F795E7959F5FC1F7FE2B98
:102E0000880F911D9695879597F90895FA01EE0F11
:102E1000FF1F30962105310599F16115710561F4A7
:102E20008038BFE39B0749F168949038810561F0D1
:102E30008038BFEF9B0741F0992342F5FF3FE10542
:102E40003105210511F1E8940894E795D901AA23E9
:102E500029F4AB2FBE2FF85FD0F310C0FF5F70F4E2
:102E6000A695E0F7F73950F019F0FF3A38F49F775C
:102E70009F930CD00F9007FC905808953EF018CF08
:102E800060E070E080E89FE308954FE79F775F93ED
:102E90004F933F932F939ED02F913F914F915F91EE
:102EA00052DF05C019F40EF0FDCE46CF01CF2ADF68
:102EB000C8F39638C0F707F80F92E8942BE33AEA84
:102EC00048EB5FE74EDF0F920F920F924DB75EB760
:102ED0000F92C0D0E8E0F1E016D04F915F91EF91F2
:102EE000FF91E595EE1FFF1F49F0FE57E06844276C
:102EF000EE0F441FFA95E1F74195550B32D00F9034
:102F000007FE26C00895DF93CF931F930F93FF9280
:102F1000EF92DF927B018C01689405C0DA2EEF01FD
:102F20001EDFFE01E894A5912591359145915591BB
:102F3000AEF3EF018EDDFE019701A801DA9479F777
:102F4000DF90EF90FF900F911F91CF91DF91089547
:102F50009B01AC0160E070E080E89FE3CDCDA2CEA4
:102F6000ACC0D0DEE8F39923D9F3940F511DBBF325
:102F70009150504094F059F0882332F0660F771F3B
:102F8000881F91505040C1F79E3F510544F7880F6C
:102F9000911D9695879597F908955F3FACF0983EFF
:102FA0009CF0BB27869577956795B79508F4B16037
:102FB0009395C1F7BB0F58F711F460FFE8CF6F5F2F
:102FC0007F4F8F4F9F4FE3CFB8CE0EF076C070CEBD
:102FD000689468CE97DEC8F39923D1F3C6F3DF93E4
:102FE000CF931F930F93FF92C92FDD2788232AF0D9
:102FF0002197660F771F881FDAF720E030E040E85E
:103000005FEB9FE3883920F0803E30F021968F7788
:103010000FDDE0E3F1E003C00BDDEDE5F1E073DF90
:103020008B01BE01EC01FB2E6F5771097595771F5F
:10303000880B990BFCDD28E132E741E35FE38FDE8B
:10304000AF2D9801AE01FF900F911F91CF91DF91AD
:1030500000DD3FCEFA01DC01AA0FBB1F9B01AC01D2
:10306000BF5728F422273327442750781FC0B75171
:1030700088F4AB2F0024469537952795011CA3951E
:10308000D2F3002069F0220F331F441FB395DAF307
:103090000DD0CDCC61307105A0E88A07B94630F477
:1030A0009B01AC016627772788279078309621F01E
:1030B000208331834283538308959F3F31F09150A1
:1030C00020F4879577956795B795880F911D96950C
:1030D000879597F90895A1E21A2EAA1BBB1BFD0143
:1030E0000DC0AA1FBB1FEE1FFF1FA217B307E407E7
:1030F000F50720F0A21BB30BE40BF50B661F771F3F
:10310000881F991F1A9469F760957095809590951E
:103110009B01AC01BD01CF010895EE0FFF1F05908B
:10312000F491E02D19940790F691E02D19940F93E6
:103130001F93CF93DF93CDB7DEB72E970FB6F894DA
:10314000DEBF0FBECDBF0E891F8986E08C831A8338
:1031500009838FEF9FE79E838D83AE01465E5F4FAD
:10316000688D798DCE0101960E94C618EF81F88591
:10317000E00FF11F10822E960FB6F894DEBF0FBE3F
:10318000CDBFDF91CF911F910F9108952F923F9264
:103190004F925F926F927F928F929F92AF92BF9267
:1031A000CF92DF92EF92FF920F931F93CF93DF9313
:1031B000CDB7DEB72C970FB6F894DEBF0FBECDBFEC
:1031C0007C016B018A01FC0117821682838181FFD9
:1031D000BDC1CE0101964C01F7019381F60193FD2B
:1031E000859193FF81916F01882309F4ABC18532EA
:1031F00039F493FD859193FF81916F01853229F414
:10320000B70190E00E94D71AE7CF512C312C20E073
:103210002032A0F48B3269F030F4803259F08332DE
:1032200069F420612CC08D3239F0803339F421608B
:1032300026C02260246023C0286021C027FD27C04B
:1032400030ED380F3A3078F426FF06C0FAE05F9E82
:10325000300D1124532E13C08AE0389E300D1124F6
:10326000332E20620CC08E3221F426FD6BC1206407
:1032700006C08C3611F4206802C0883641F4F6018D
:1032800093FD859193FF81916F018111C1CF982F9B
:103290009F7D9554933028F40C5F1F4FFFE3F98313
:1032A0000DC0833631F0833771F0833509F05BC090
:1032B00022C0F801808189830E5F1F4F442443940C
:1032C000512C540115C03801F2E06F0E711CF80149
:1032D000A080B18026FF03C0652D70E002C06FEFB3
:1032E0007FEFC5012C870E94CC1A2C0183012C850D
:1032F0002F77222E17C03801F2E06F0E711CF801F3
:10330000A080B18026FF03C0652D70E002C06FEF82
:103310007FEFC5012C870E94C11A2C012C852068E3
:10332000222E830123FC1BC0832D90E048165906F2
:10333000B0F4B70180E290E00E94D71A3A94F4CF3B
:10334000F50127FC859127FE81915F01B70190E08F
:103350000E94D71A31103A94F1E04F1A51084114E3
:10336000510471F7E5C0843611F0893639F5F8015A
:1033700027FF07C060817181828193810C5F1F4F9D
:1033800008C060817181882777FD8095982F0E5F36
:103390001F4F2F76B22E97FF09C09095809570959C
:1033A00061957F4F8F4F9F4F2068B22E2AE030E00B
:1033B000A4010E94091BA82EA81844C0853729F42F
:1033C0002F7EB22E2AE030E025C0F22FF97FBF2EEB
:1033D0008F36C1F018F4883579F0B4C0803719F011
:1033E000883721F0AFC02F2F2061B22EB4FE0DC060
:1033F0008B2D8460B82E09C024FF0AC09F2F9660D1
:10340000B92E06C028E030E005C020E130E002C05F
:1034100020E132E0F801B7FE07C06081718182814E
:1034200093810C5F1F4F06C06081718180E090E046
:103430000E5F1F4FA4010E94091BA82EA818FB2D88
:10344000FF77BF2EB6FE0BC02B2D2E7FA51450F498
:10345000B4FE0AC0B2FC08C02B2D2E7E05C07A2C0B
:103460002B2D03C07A2C01C0752C24FF0DC0FE014A
:10347000EA0DF11D8081803311F4297E09C022FFFD
:1034800006C07394739404C0822F867809F07394F5
:1034900023FD13C020FF06C05A2C731418F4530CDC
:1034A0005718732C731468F4B70180E290E02C87EE
:1034B0000E94D71A73942C85F5CF731410F4371823
:1034C00001C0312C24FF12C0B70180E390E02C87AB
:1034D0000E94D71A2C8522FF17C021FF03C088E560
:1034E00090E002C088E790E0B7010CC0822F867898
:1034F00059F021FD02C080E201C08BE227FD8DE280
:10350000B70190E00E94D71AA51438F4B70180E300
:1035100090E00E94D71A5A94F7CFAA94F401EA0DCA
:10352000F11D8081B70190E00E94D71AA110F5CF5C
:10353000332009F451CEB70180E290E00E94D71AFF
:103540003A94F6CFF7018681978102C08FEF9FEF03
:103550002C960FB6F894DEBF0FBECDBFDF91CF9192
:103560001F910F91FF90EF90DF90CF90BF90AF90A1
:103570009F908F907F906F905F904F903F902F9093
:103580000895FC010590615070400110D8F78095B6
:1035900090958E0F9F1F0895FC016150704001901F
:1035A0000110D8F7809590958E0F9F1F08950F9367
:1035B0001F93CF93DF93182F092FEB018B8181FD90
:1035C00003C08FEF9FEF20C082FF10C04E815F814C
:1035D0002C813D81421753077CF4E881F9819F01DA
:1035E0002F5F3F4F39832883108306C0E885F98514
:1035F000812F1995892B29F72E813F812F5F3F4F0E
:103600003F832E83812F902FDF91CF911F910F91B8
:103610000895FA01AA27283051F1203181F1E89468
:103620006F936E7F6E5F7F4F8F4F9F4FAF4FB1E0B5
:103630003ED0B4E03CD0670F781F891F9A1FA11DB0
:10364000680F791F8A1F911DA11D6A0F711D811DB1
:10365000911DA11D20D009F468943F912AE0269F76
:1036600011243019305D3193DEF6CF010895462FD5
:103670004770405D4193B3E00FD0C9F7F6CF462FB6
:103680004F70405D4A3318F0495D31FD405241931F
:1036900002D0A9F7EACFB4E0A695979587957795DC
:1036A0006795BA95C9F700976105710508959B0163
:1036B000AC010A2E06945795479537952795BA95EC
:1036C000C9F7620F731F841F951FA01D0895F894FA
:0236D000FFCF2A
:1036D200010000000A00F401550019004B20264F9A
:1036E2001F354B202322262322252561207061636A
:1036F2006B657420686173206265656E2073656E08
:103702007420746F20307825782077697468207669
:10371200616C75653A20307825780A007261773AD3
:103722002000207C7C206465677265653A007477AE
:103732006F207061636B65747320686176652062C7
:1037420065656E2073656E7420746F2030782578FD
:1037520020776974682076616C756520413A203063
:103762007825780A000A43434D522070726F6772BF
:10377200616D20696E697469616C697A65640020A3
:103782005B4445425547204D4F44455D0A002D2D6F
:10379200426F6F74696E672D2D0052455345545424
:1037A200494E472056414C564553007265666C752A
:1037B20078696E672077617465722E2E00436C659E
:1037C200616E696E672056616C76657320616E6406
:1037D200205069706573003C7C2E2E002E2E7C3E9C
:1037E2000053455454494E47205354414E4441528C
:1037F20054204D49582E2E2E00434F322E2E2E008D
:1038020048322E2E2E0053595354454D20424F4FCD
:1038120054555020434F4D504C4554450055534547
:103822005220494E50555420524551554952454413
:10383200210050524548454154204F56454E203FA5
:103842000050524548454154494E47204F56454E37
:103852002E2E2E202874686973206D617920746180
:103862006B652061207768696C6529005072656814
:10387200656174696E672E2E207C7C2000252046AF
:10388200696E697368656400207C7C2054656D7084
:10389200657261747572653A2000EFBFBD430050D6
:1038A200524548454154494E472041424F525445A2
:1038B200440050524550524F445543494E472048C8
:1038C200320050726573737572653A2000206D6222
:1038D2006172000A0A2D2D2D2D2D2D2D2D2D2D52EB
:1038E2004541445920544F204255524E2D2D2D2DE5
:1038F2002D2D2D2D2D2D0A0000000000820D550DBD
:103902002A0D320D450D540D000000009B121F14AC
:10391200EE110712F91179120D0A006E616E00693B
:083922006E66006F766600007E
:00000001FF
