:1000000045C1000070C100006EC100006CC100005D
:100010006AC1000068C1000066C1000064C1000040
:1000200062C1000060C100005EC100005CC1000050
:100030005AC1000058C1000056C1000054C1000060
:1000400052C1000050C100004EC100004CC1000070
:100050004AC1000048C1000046C100000C94601372
:1000600042C100000C9418150C945C163CC10000B1
:100070003AC1000038C1000036C1000034C10000A0
:1000800032C1000030C100002EC100002CC10000B0
:100090000C9458150C949B1626C100000C94AF11BB
:1000A00022C1000020C100001EC100001CC10000D0
:1000B0001AC1000018C1000016C1000014C10000E0
:1000C00012C1000010C100000EC100000C94981570
:1000D0000C94DA1608C100000C94D8150C9419176A
:1000E00002C1000007634236B79BD8A71A39685689
:1000F00018AEBAAB558C1D3CB7CC5763BD6DEDFD4A
:10010000753EF6177231BF000000803F0800000006
:10011000BE922449123EABAAAA2ABECDCCCC4C3EFC
:1001200000000080BEABAAAAAA3E00000000BF00EB
:100130000000803F0000000000084178D3BB4387E7
:10014000D1133D190E3CC3BD4282AD2B3E68EC82FB
:1001500076BED98FE1A93E4C80EFFFBE01C4FF7F80
:100160003F000000000000002100240027002A00BA
:100170002D003000330001010000040107010A01D5
:1001800000002200250028002B002E003100340042
:1001900002010000050108010B01000020002300FE
:1001A000260029002C002F0032000001000003016E
:1001B00006010901050505050705080808080202EA
:1001C00002020A0A080804040404010101010101F1
:1001D00001010303030303030303040707070C0CD4
:1001E0000C0C0C0C0C0C020202020606060606069B
:1001F00006060B0B0B0B0B0B0B0B01021020200840
:100200000810204010204080020102010804020171
:1002100001020408102040808040201008040201E0
:100220008004020180402010080402010804020139
:1002300001020408102040800102040810204080C0
:100240000000090A02080B0C0D0706030401000058
:10025000000000000000000000000000000000009E
:1002600000000000000000000000000011100F005E
:10027000000000000000000000000000000000007E
:10028000000000000000630F5310881811241FBEE7
:10029000CFEFD1E2DEBFCDBF00E00CBF14E0A0E0A5
:1002A000B2E0ECEFFDE300E00BBF02C007900D925F
:1002B000A03DB107D9F71BBE18E0A0EDB4E001C026
:1002C0001D92AD3BB107E1F712E0CCE8D2E004C0EB
:1002D0002297FE010E94C11EC638D107C9F70E94AD
:1002E000BE190C94FC1E8CCEAEE0B0E0EAE7F1E063
:1002F0000C94D31E0E891F8986E08C831A83098390
:100300008FEF9FE79E838D839E01265E3F4FCE0138
:100310000196688D798DA9010AD02F813885020F49
:10032000131FF80110822E96E4E00C94EF1EABE050
:10033000B0E0EDE9F1E00C94C51E3C012B015A013F
:10034000FC0117821682838181FD03C06FEF7FEF6E
:10035000B9C19AE0892E1E010894211C311CF301B9
:100360002381F20123FD859123FF81912F018823B1
:1003700009F4A5C1853239F423FD859123FF8191CC
:100380002F01853221F490E0B301B7D1E8CF982F47
:10039000FF24EE249924FFE1FF15D0F09B3269F091
:1003A0009C3228F4903259F0933291F40EC09D3271
:1003B00049F0903369F441E024C052E0F52A84E02A
:1003C000F82A28C098E0F92A25C0E0E1FE2A22C0D8
:1003D000F7FC29C0892F80538A3070F4F6FE05C0DF
:1003E000989C902C1124980E15C0E89CE02C1124A8
:1003F000E80EF0E2FF2A0EC09E3229F4F6FC5FC13F
:1004000040E4F42A07C09C3619F450E8F52A02C0EB
:10041000983649F4F20123FD959123FF91912F0124
:10042000992309F0B8CF892F8554833018F0805272
:10043000833038F444E050E0A40EB51E5FE35983E6
:100440000FC0933631F0933779F0933509F052C0ED
:100450001FC0F5018081898342E050E0A40EB51EE3
:10046000610101E010E011C0F501C080D180F6FC0F
:1004700003C06FEF7FEF02C0692D70E042E050E0F3
:10048000A40EB51EC6012ED18C015FE7F52213C064
:10049000F501C080D180F6FC03C06FEF7FEF02C092
:1004A000692D70E042E050E0A40EB51EC6010FD1E8
:1004B0008C0150E8F52AF3FE06C018C080E290E0F7
:1004C000B3011BD1EA948E2D90E008171907B0F301
:1004D0000DC0F601F7FC8591F7FE81916F0190E068
:1004E000B3010BD1E110EA94015010400115110540
:1004F00081F7E2C0943611F0993661F5F7FE08C035
:10050000F501208131814281538184E090E00AC06D
:10051000F501808191819C01442737FD4095542F3E
:1005200082E090E0A80EB91E9FE6F92257FF09C0AD
:1005300050954095309521953F4F4F4F5F4FE0E8E4
:10054000FE2ACA01B901A1012AE030E002D1D82E69
:10055000D2183FC0953729F41F2D1F7E2AE030E0C6
:100560001DC01F2D197F9F3661F0903720F49835FC
:1005700009F0A5C00FC0903739F0983709F09FC037
:1005800004C028E030E00AC0106114FD146020E1CE
:1005900030E004C014FD166020E132E017FF08C00F
:1005A000F501608171818281938144E050E008C04F
:1005B000F50180819181BC0180E090E042E050E053
:1005C000A40EB51EA101C5D0D82ED2188FE7F82EE3
:1005D000F122F6FE0BC05EEFF522D91438F4F4FEDA
:1005E00007C0F2FC05C08FEEF82202C01D2D01C02D
:1005F000192DF4FE0DC0FE01ED0DF11D808180333B
:1006000019F499EEF92208C01F5FF2FE05C003C07D
:100610008F2D867809F01F5F0F2DF3FC13C0F0FEBD
:100620000EC01E1510F09D2C0AC09D2C9E0C911A18
:100630001E2D05C080E290E0B3015FD01F5F1E1544
:10064000C8F304C01E1510F4E11A01C0EE2404FF23
:100650000EC080E390E0B30150D002FF1BC001FD4B
:1006600003C088E790E00EC088E590E00BC0802FC3
:10067000867881F001FF02C08BE201C080E2F7FCC6
:100680008DE290E0B30139D005C080E390E0B30182
:1006900034D09A94D914C8F3DA94F101ED0DF11D18
:1006A000808190E0B30129D0DD20B1F705C080E260
:1006B00090E0B30122D0EA94EE20C9F750CEF301C6
:1006C00066817781CB012B96E2E10C94E11EFC015F
:1006D0000590615070400110D8F7809590958E0F6D
:1006E0009F1F0895FC016150704001900110D8F7E0
:1006F000809590958E0F9F1F08950F931F93CF9312
:10070000DF938C01EB018B8181FF1BC082FF0DC049
:100710002E813F818C819D812817390764F4E881FF
:10072000F9810193F983E88306C0E885F985802F74
:100730001995892B31F48E819F8101969F838E8339
:1007400002C00FEF1FEFC801DF91CF911F910F91F2
:100750000895FA01AA27283051F1203181F1E89457
:100760006F936E7F6E5F7F4F8F4F9F4FAF4FB1E0A4
:100770003ED0B4E03CD0670F781F891F9A1FA11D9F
:10078000680F791F8A1F911DA11D6A0F711D811DA0
:10079000911DA11D20D009F468943F912AE0269F65
:1007A00011243019305D3193DEF6CF010895462FC4
:1007B0004770405D4193B3E00FD0C9F7F6CF462FA5
:1007C0004F70405D4A3318F0495D31FD405241930E
:1007D00002D0A9F7EACFB4E0A695979587957795CB
:1007E0006795BA95C9F700976105710508959B0152
:1007F000AC010A2E06945795479537952795BA95DB
:10080000C9F7620F731F841F951FA01D0895CF9312
:10081000DF93EC016115710519F420E030E00FC0A1
:10082000DB010D900020E9F71197A61BB70BE881BB
:10083000F9810280F381E02DAD0119959C01C90178
:10084000DF91CF910895EF92FF920F931F93DF9363
:10085000CF93CDB7DEB7EC970FB6F894DEBF0FBEDF
:10086000CDBFF62EE42E82E995E00E94191082E9B0
:1008700095E06E2D0E949A1082E995E00E94DB10AF
:100880008091D004882369F18DB79EB708970FB681
:10089000F8949EBF0FBE8DBFEDB7FEB731968E01A7
:1008A0000F5F1F4FADB7BEB712961C930E931197F3
:1008B00080E092E093838283F4821582E68217823D
:1008C00013DD8DB79EB708960FB6F8949EBF0FBE86
:1008D0008DBF8091D104882321F085E398E0B80191
:1008E00096DFEC960FB6F894DEBF0FBECDBFCF916A
:1008F000DF911F910F91FF90EF900895DF92EF929B
:10090000FF920F931F93DF93CF93CDB7DEB7C05005
:10091000D1400FB6F894DEBF0FBECDBF8C01D62EEE
:10092000F42EEE24222311F4EE24E39482E995E0E0
:100930006D2D0E94191082E995E06D2D70E042E066
:1009400050E00E94E91082E995E00E942C10D80145
:1009500011968C9382E995E00E942C10282FF801C3
:100960008283F7E0FF15E8F0D80111962C911197DA
:10097000EE2061F481E090E002C0880F991FFA94A4
:10098000E2F78095282311962C9326C081E090E011
:1009900002C0880F991FFA94E2F7282BF8012183EF
:1009A0001BC04F2D4850EE2069F481E090E002C05A
:1009B000880F991F4A95E2F780958223D8011296F5
:1009C0008C930AC081E090E002C0880F991F4A957D
:1009D000E2F7282BF8012283D8011196FC90119799
:1009E00012961C9182E995E06D2D0E94191082E902
:1009F00095E06F2D0E949A1082E995E0612F0E9488
:100A00009A1082E995E00E94DB108091D00488233F
:100A100059F1EDB7FEB738970FB6F894FEBF0FBE89
:100A2000EDBF31968E010F5F1F4FADB7BEB7129667
:100A30001C930E93119783E492E093838283D48274
:100A40001582F682178250DCEDB7FEB738960FB6E6
:100A5000F894FEBF0FBEEDBF8091D104813021F428
:100A600085E398E0B801D3DEC050DF4F0FB6F894AD
:100A7000DEBF0FBECDBFCF91DF911F910F91FF90D1
:100A8000EF90DF900895662329F06091A40448E078
:100A900021E004C06091A40448E020E02FCF662349
:100AA00029F06091A40442E021E004C06091A40414
:100AB00042E020E023CF0F931F93182F092F6623C6
:100AC00061F06091A40444E021E018DF812F902FB1
:100AD0006091A40446E021E00BC06091A40444E0CE
:100AE00020E00CDF812F902F6091A40446E020E0ED
:100AF00005DF1F910F9108950F931F93182F092F52
:100B0000662361F06091A40445E021E0F7DE812FC7
:100B1000902F6091A40443E021E00BC06091A404F5
:100B200043E020E0EBDE812F902F6091A40445E0AC
:100B300020E0E4DE1F910F9108950F931F93182F6B
:100B4000092F6091A50441E020E0D8DE812F902F8D
:100B50006091A50446E020E0D1DE812F902F6091C6
:100B6000A50440E020E0CADE812F902F6091A5040B
:100B700047E020E0C3DE1F910F910895662329F01E
:100B80006091A40447E021E004C06091A40447E020
:100B900020E0B4CE662329F06091A40449E021E06E
:100BA00004C06091A40449E020E0A8CE662329F0A7
:100BB0006091A4044AE021E004C06091A4044AE0EA
:100BC00020E09CCE0F931F93182F092F662361F00E
:100BD0006091A40441E021E091DE812F902F60918B
:100BE000A40440E021E00BC06091A40441E020E0B7
:100BF00085DE812F902F6091A40440E020E07EDE0E
:100C00001F910F9108950F931F93182F092F609133
:100C1000A50443E020E072DE812F902F6091A504AF
:100C20004BE020E06BDE812F902F6091A5044AE01D
:100C300020E064DE812F902F6091A50442E020E047
:100C40005DDE1F910F910895662329F06091A40441
:100C500041E021E004C06091A40441E020E04ECED8
:100C6000662329F06091A50444E021E004C060916E
:100C7000A50444E020E042CE0F931F93182F092FC4
:100C8000662309F047C06091A50441E020E036DE0C
:100C9000812F902F6091A50446E021E02FDE65E0D2
:100CA00070E080E090E00E94B613812F902F609159
:100CB000A50440E020E022DE812F902F6091A50462
:100CC00047E021E01BDE65E070E080E090E00E94FC
:100CD000B613812F902F6091A50446E020E00EDE30
:100CE000812F902F6091A50441E021E007DE65E0AF
:100CF00070E080E090E00E94B613812F902F609109
:100D0000A50447E020E0FADD812F902F6091A50433
:100D100040E046C06091A50447E020E0EFDD812F70
:100D2000902F6091A50440E021E0E8DD65E070E0EF
:100D300080E090E00E94B613812F902F6091A5046F
:100D400046E020E0DBDD812F902F6091A50441E09B
:100D500021E0D4DD65E070E080E090E00E94B61311
:100D6000812F902F6091A50440E020E0C7DD812F06
:100D7000902F6091A50447E021E0C0DD65E070E0C0
:100D800080E090E00E94B613812F902F6091A5041F
:100D900041E020E0B3DD812F902F6091A50446E073
:100DA00021E0ACDD65E070E080E090E00E94B613E9
:100DB0001F910F9108950F931F93182F092F6623EA
:100DC00009F047C06091A50443E020E097DD812F42
:100DD000902F6091A5044BE021E090DD65E070E08C
:100DE00080E090E00E94B613812F902F6091A504BF
:100DF00042E020E083DD812F902F6091A5044AE03E
:100E000021E07CDD65E070E080E090E00E94B613B8
:100E1000812F902F6091A5044BE020E06FDD812FA2
:100E2000902F6091A50443E021E068DD65E070E06B
:100E300080E090E00E94B613812F902F6091A5046E
:100E40004AE020E05BDD812F902F6091A50442E015
:100E500046C06091A5044AE020E050DD812F902F2C
:100E60006091A50442E021E049DD65E070E080E0AA
:100E700090E00E94B613812F902F6091A5044BE063
:100E800020E03CDD812F902F6091A50443E021E01C
:100E900035DD65E070E080E090E00E94B613812FC0
:100EA000902F6091A50442E020E028DD812F902F53
:100EB0006091A5044AE021E021DD65E070E080E07A
:100EC00090E00E94B613812F902F6091A50443E01B
:100ED00020E014DD812F902F6091A5044BE021E0EC
:100EE0000DDD65E070E080E090E00E94B6131F9198
:100EF0000F9108951F936130710529F062307105DB
:100F000009F060C02FC06091A0044CEA9CDC82E92B
:100F100095E06091A0040E94191082E995E060912B
:100F2000A00442E00E94EB1082E995E00E942C10A0
:100F3000182F82E995E00E942C10312F20E0280F15
:100F4000391F3093D3042093D20482E995E00E94A4
:100F5000DB1020E08091D2049091D304815A9F400D
:100F600094F52EC06091A0044CED6DDC82E995E013
:100F70006091A0040E94191082E995E06091A0049C
:100F800042E00E94EB1082E995E00E942C10182F9D
:100F900082E995E00E942C10312F20E0280F391FA4
:100FA0003093D3042093D20482E995E00E94DB10B1
:100FB00020E08091D2049091D304895B9B401CF483
:100FC00021E001C001C0822F1F91089581E195E0C9
:100FD00061E070E08FDF8823F1F085E095E061E06B
:100FE0005EDD8BE095E061E04EDD06C062E370E01F
:100FF00080E090E00E94B61381E195E061E070E04E
:1010000079DF882399F78BE095E060E03CDD85E0AF
:1010100095E060E044CD0895DF92EF92FF920F9348
:101020001F936091A6044CEB0EDC02E915E0C801A9
:101030006091A604FED7C8016091A60442E00E9418
:10104000EB10C8010E942C10D82EC8010E942C1051
:101050007C01C8010E94DB103D2D20E02E0D3F1DBC
:10106000C9011F910F91FF90EF90DF900895DF92DB
:10107000EF92FF920F931F936091A6044CEFE3DB76
:1010800002E915E0C8016091A604D3D7C8016091B8
:10109000A60442E00E94EB10C801DED7D82EC8019A
:1010A000DBD77C01C8010E94DB103D2D20E02E0D16
:1010B0003F1DC9011F910F91FF90EF90DF900895A0
:1010C0000F931F9302E915E0C8016091A104B1D705
:1010D000C8016091A10448E10E94EB10C801BCD78F
:1010E0008093E204C801B8D78093E304C801B4D761
:1010F0008093E404C801B0D78093E504C801ACD75D
:101100008093E604C801A8D78093E704C801A4D758
:101110008093E804C801A0D78093E904C8019CD754
:101120008093EA04C80198D78093EB04C80194D750
:101130008093EC04C80190D78093ED04C8018CD74C
:101140008093EE04C80188D78093EF04C80184D748
:101150008093F004C80180D78093F104C8017CD744
:101160008093F204C80178D78093F304C80174D740
:101170008093F404C80170D78093F504C8016CD73C
:101180008093F604C80168D78093F704C80164D738
:101190008093F804C80160D78093F904C801609176
:1011A000A104F7D78091F2046091F3040E94FA1A27
:1011B0009C013F70442737FD4095542FCA01B90167
:1011C0000E94011C20E030E44CE955E40E94661BBB
:1011D0002AE037ED43E25DE30E94011B2CEB34E78C
:1011E00043E15CE30E94661B20E030E040E251E412
:1011F0000E948D1C0E94CE1BCB011F910F91089560
:10120000CF93DF9381E195E05BDFC091AB04D09198
:10121000AC048C1B9D0B181619065CF481E195E05B
:101220004FDF2091AB043091AC04821B930B9C01E7
:1012300006C081E195E044DF9E01281B390B8091B7
:10124000AD049091AE048217930794F481E195E088
:1012500037DF2091AB043091AC042817390724F410
:1012600088E095E060E003C088E095E061E044DC60
:10127000DF91CF9108952F923F924F925F926F929C
:101280007F928F929F92AF92BF92CF92DF92EF9216
:10129000FF920F931F9302E915E0C8016091A1042A
:1012A000C8D6C8016091A10448E195D7C801D4D639
:1012B0008093E204C801D0D68093E304C801CCD661
:1012C0008093E404C801C8D68093E504C801C4D65D
:1012D0008093E604C801C0D68093E704C801BCD659
:1012E0008093E804C801B8D68093E904C801B4D655
:1012F0008093EA04C801B0D68093EB04C801ACD651
:101300008093EC04C801A8D68093ED04C801A4D64C
:101310008093EE04C801A0D68093EF04C8019CD648
:101320008093F004C80198D68093F104C80194D644
:101330008093F204C80190D68093F304C8018CD640
:101340008093F404C80188D68093F504C80184D63C
:101350008093F604C80180D68093F704C8017CD638
:101360008093F804C80178D68093F904C80160918D
:10137000A1040FD78091E8046091E9040E94FA1A51
:101380009C013F70442737FD4095542FCA01B90195
:101390000E94011C1B012C01A20191010E948D1CC5
:1013A0003B014C01C201B10120E030E040E450E4D7
:1013B0000E94F01C5B016C01C201B10120E030E031
:1013C00040E850E40E94F01C7B018C01C201B10195
:1013D00023E83FE545E95DE30E948D1C28E133E801
:1013E00041E451E40E94021B1B012C01C401B30122
:1013F00023E33CE64DEE58E30E948D1C9B01AC01BB
:10140000C201B1010E94021B3B014C01C601B501A2
:101410002BE434E54EE853EB0E948D1C9B01AC019C
:10142000C401B3010E94021B5B016C01C801B7013A
:1014300020ED3CE447E55DE20E948D1C9B01AC0180
:10144000C601B5010E94021B0E94CE1BCB011F9159
:101450000F91FF90EF90DF90CF90BF90AF909F9053
:101460008F907F906F905F904F903F902F90089556
:1014700081E195E000DF8C52914034F081E195E00C
:101480001FDE8059914094F41092140581E195E09B
:10149000F2DE8159914034F481E195E011DE855806
:1014A000934044F085E095E061E007C081E08093DF
:1014B0001405ECCF85E095E060E0F1CAEF92FF9271
:1014C0000F931F930E94A813611571058105910563
:1014D00041F40E94A813623071058105910508F45A
:1014E00077C00E94A8139B01AC016093FE04709327
:1014F000FF0480930005909301058091FA04909178
:10150000FB04A091FC04B091FD04281739074A0799
:101510005B0740F42093FA043093FB044093FC04EF
:101520005093FD048091FA049091FB04A091FC0477
:10153000B091FD0479018A01E81AF90A0A0B1B0B24
:10154000D801C7018A3F9105A105B10508F440C043
:101550002093FA043093FB044093FC045093FD0461
:1015600085E195E064D580914605909147056AE74D
:1015700072E00E94E51A809146059091470562E865
:1015800072E00E94E51A00914605109147050E94FD
:10159000A813AB01BC01C8012AE030E00E94771A11
:1015A000809146059091470564E872E00E94E51A33
:1015B00065E070E080E090E00E94B6136AE070E0C1
:1015C00080E090E00E94B61385E195E061E0B2D43E
:1015D0004FDFFCDC15DE80911405882341F48BE09D
:1015E00095E060E0CBDA8BE095E060E0D3DA1F9124
:1015F0000F91FF90EF900895AF92BF92CF92DF923C
:10160000EF92FF920F931F93CF93DF936C01162FEE
:1016100085E398E040E855E260E070E00E945817EA
:1016200081E590E09093D5048093D4041092D70480
:101630001092D6041092D9041092D80487E790E053
:101640009093D9048093D8041092DB041092DA04AA
:101650001092DD041092DC0483E390E09093DD04AB
:101660008093DC0485E090E09093DF048093DE04B7
:101670001092E1041092E00482E995E0AED5C60133
:10168000609198044FEFDFD8C601609199044FEF45
:10169000DAD8C60160919A044FEFD5D8C60160919F
:1016A0009B044FEFD0D8C60160919B044FEFCBD87D
:1016B000C60160919D044FEFC6D8C60160919E049B
:1016C0004FEFC1D8C60160919F044FEFBCD8C6014F
:1016D00060919C044FEFB7D882E995E06091A40433
:1016E000A8D482E995E06FEF25D582E995E06FEF08
:1016F00021D582E995E05FD582E995E06091A50466
:1017000098D482E995E06FEF15D582E995E06FEF07
:1017100011D582E995E04FD5C6016091A10447E15A
:1017200092D8C6016091A10442ED8DD8C6016091A6
:10173000A30440E088D882E995E06091A20479D4BE
:1017400082E995E06091D404F5D482E995E0609156
:10175000D604F0D482E995E06091D804EBD482E914
:1017600095E029D582E995E06091A20462D482E9EE
:1017700095E06091D804DED482E995E06091DA04C6
:10178000D9D482E995E06091DC04D4D482E995E073
:1017900012D582E995E06091A2044BD482E995E0EC
:1017A0006091DC04C7D482E995E06091DE04C2D484
:1017B00082E995E06091E004BDD482E995E0FBD434
:1017C00082E995E06091A10434D482E995E06091CA
:1017D000A10448E100D582E995E03ED48093E2047B
:1017E00082E995E039D48093E30482E995E034D42A
:1017F0008093E40482E995E02FD48093E50482E9A4
:1018000095E02AD48093E60482E995E025D480937C
:10181000E70482E995E020D48093E80482E995E02A
:101820001BD48093E90482E995E016D48093EA04FE
:1018300082E995E011D48093EB0482E995E00CD421
:101840008093EC0482E995E007D48093ED0482E96B
:1018500095E002D48093EE0482E995E0FDD3809375
:10186000EF0482E995E0F8D38093F00482E995E0F3
:10187000F3D38093F10482E995E0EED38093F204F0
:1018800082E995E0E9D38093F30482E995E0E4D31B
:101890008093F40482E995E0DFD38093F50482E934
:1018A00095E0DAD38093F60482E995E0D5D380936E
:1018B000F70482E995E0D0D38093F80482E995E0BB
:1018C000CBD38093F90482E995E06091A304B1D36E
:1018D00082E995E06091A10442E07DD482E995E03F
:1018E000BBD38093F90482E995E0B6D38093FA04E0
:1018F00082958F709091F904292F30E004E0220F37
:10190000331F0A95E1F7280F311D88E02030380792
:1019100054F4B4E035952795BA95E1F73093E10496
:101920002093E0040BC0C9018050904160E170E059
:101930000E94761E7093E1046093E00482E995E0D2
:101940003AD485E398E06DE872E00E94E81A80914D
:10195000D004882329F085E398E067EA72E004C0A8
:1019600085E398E066EB72E00E94070468EE73E09E
:1019700080E090E0FBD6112309F41BC285E398E0D8
:1019800068EB72E00E94E81AC601039661E01AD97A
:1019900085E398E064EC72E00E94E81AA9E0EA2E80
:1019A000F12CEC0CFD1C8601045F1F4FC80134DBD9
:1019B0008C52914024F00CC0C70161E0FCD9C801F1
:1019C0002BDB8C529140C4F308C0C70160E0F3D90F
:1019D000C80122DB8D529140C4F764EF71E080E0D2
:1019E00090E0C4D6C80143DB805D974024F00CC072
:1019F000C70161E041D9C8013ADB805D9740C4F37B
:101A000008C0C70160E038D9C80131DB815D97406B
:101A1000C4F785E398E065ED72E00E94E81AC7011B
:101A200061E0C4D868EE73E080E090E09FD6C70123
:101A300060E0BCD8C70161E026D868EB7BE080E0BD
:101A400090E094D6C70160E01ED885E398E067EE89
:101A500072E00E94E51AC70161E0A8D8C70161E001
:101A600099D8C70161E0FCD868EE73E080E090E0AF
:101A70007DD685E398E061E073E00E94E51A68EEA8
:101A800073E080E090E072D685E398E066E073E072
:101A90000E94E51A68EE73E080E090E067D685E387
:101AA00098E066E073E00E94E51A68EE73E080E07B
:101AB00090E05CD685E398E066E073E00E94E51A6A
:101AC00068EE73E080E090E051D685E398E066E050
:101AD00073E00E94E51A68EE73E080E090E046D67D
:101AE00085E398E066E073E00E94E51A68EE73E033
:101AF00080E090E03BD685E398E066E073E00E94EA
:101B0000E51A68EE73E080E090E030D685E398E077
:101B100066E073E00E94E51A68EE73E080E090E012
:101B200025D685E398E066E073E00E94E51A68EE4A
:101B300073E080E090E01AD685E398E068E073E017
:101B40000E94E51AC70160E025D8C70160E02ED8E1
:101B5000C70160E085D885E398E06DE073E00E94FE
:101B6000E81A68EC70E080E090E000D685E398E049
:101B700067E173E00E94E81A85E398E06FE273E0A2
:101B80000E94E81A8091A7049091A804EC01F4E067
:101B9000CC0FDD1FFA95E1F7C80FD91FC45DDE4FEA
:101BA000C8013ADA8C179D0724F00CC0C70161E028
:101BB00002D9C80131DA8C179D07C4F308C0C701E8
:101BC00060E0F9D8C80128DAC817D907C4F385E35B
:101BD00098E066E373E00E94E81A8091A90490916E
:101BE000AA04880F991FEC0173E0CC0FDD1F7A95D2
:101BF000E1F7C80FD91FC853DF4FC80138DA8C1777
:101C00009D0724F00CC0C70161E036D8C8012FDA67
:101C10008C179D07C4F308C0C70160E02DD8C80128
:101C200026DAC817D907C4F385E398E06CE373E0BC
:101C30000E94E81A85E398E063E573E00E94E81AE1
:101C400085E398E068E673E00E94E81A8091D0048A
:101C5000882309F0AEC010E085E398E00E940F18D9
:101C6000893719F401E011E006C08E3619F401E05D
:101C700010E001C000E06AE070E080E090E076D51E
:101C8000002351F3112309F455C085E398E067E779
:101C900073E00E94E81A68EE73E080E090E066D599
:101CA00066E0A62EB12CAC0CBD1CC50161E00E9403
:101CB0005B05E6012F9634C0CE01DDDA8C0185E3A9
:101CC00098E062EA73E00E94E51AB801660F771F98
:101CD000600F711F85E398E04AE050E00E94D31A3C
:101CE00085E398E063EB73E00E94E51A85E398E0F2
:101CF0006EEB73E00E94E51ACE01BDDABC0185E30C
:101D000098E04AE050E00E94D31A85E398E060ED45
:101D100073E00E94E81A68EE73E080E090E026D558
:101D2000CE01A9DA8C5291403CF2C50160E00E94DC
:101D30005B0506C085E398E065ED73E00E94E81A54
:101D400085E398E068EE73E00E94E81AC7010E94FC
:101D50000306C7010E949D0586010A5F1F4FC80147
:101D600061E00E947C05E6012F961AC060ED77E0E5
:101D700080E090E0FBD485E398E068EF73E00E9498
:101D8000E51ACE019DD9BC0185E398E04AE050E018
:101D90000E94D31A85E398E063E074E00E94E81A99
:101DA000CE018ED9845F91400CF3C80160E00E949F
:101DB0007C0564EF71E080E090E0D8D485E398E0A2
:101DC00069E074E00E94070486010D5F1F4FC8019F
:101DD00060E00E94E205C80161E00E94240681E003
:101DE0008093D10464E670E080E090E0BFD4DF919E
:101DF000CF911F910F91FF90EF90DF90CF90BF9008
:101E0000AF900895CF92DF92EF92FF920F931F93BE
:101E100005E115E0C80140ED57E060E070E054D006
:101E2000C80165E378E020E032EC41E050E0D7D033
:101E3000C801FDD080914605909147056EE274E09F
:101E40000E94E51A6AE070E080E090E08FD4C8015B
:101E500060E041E0B3D092E0C92E95E0D92EC601F2
:101E600061E0CADB89E0E82EF12CEC0CFD1CC70117
:101E70000E940306C7010E949D0586010D5F1F4F4A
:101E8000C80160E00E942406C8016091A40440E0FB
:101E900021E00E947E04C70160E00E94BE05C701E8
:101EA00060E00E94CA05C601069660E00E945B05DC
:101EB000C70160E00E9430061F910F91FF90EF90E4
:101EC000DF90CF9008950895FC0113AA14AA15AAD3
:101ED00016AA1182128213821482411551056105DE
:101EE000710519F0CB01BA0141C40895FF920F9317
:101EF0001F938C01F62EFC0181A992A968E874E079
:101F00000E94E51AF80181A992A96F2D4AE050E0DC
:101F10000E94841AF80181A992A96FE874E00E94D6
:101F2000E51A62E370E080E090E020D41F910F9109
:101F3000FF9008950F931F93CF93DF93EC01062F2B
:101F40008D818823A1F1E9A9FAA9A081B181149614
:101F50002D913C911597CF01F9011995892B99F392
:101F600018C0E9A9FAA9A081B18116962D913C91DA
:101F70001797CF01F9011995182F833629F0863765
:101F8000B9F0883531F404C0CE01602FAFDF10C046
:101F90001D82E9A9FAA9A081B18114962D913C91E5
:101FA0001597CF01F901199518161906D4F213E601
:101FB000812FDF91CF911F910F9108951F93CF93A0
:101FC000DF93EC01142F662329F081E08D83CE018D
:101FD00060E0B0DF1D83DF91CF911F910895FC0178
:101FE00072AB61ABCB01BA01A90162C7CF93DF939A
:101FF000EC01662331F013C063E070E080E090E014
:10200000B5D3A6D329813A814B815C81621B730BC6
:10201000840B950B623371058105910568F398D3A4
:1020200069837A838B839C83DF91CF91089560E0ED
:10203000DDCF81E08093910560936E0510928F054E
:1020400010929005089520916D0530E080916C0507
:10205000281B3109C901089540916C0580916D05D7
:10206000481718F02FEF3FEF0AC0E42FF0E0E45BD1
:10207000FA4F8081282F30E04F5F40936C05C901F3
:102080000895E0916C0580916D05E81718F0EFEF69
:10209000FFEF06C0F0E0E45BFA4F8081E82FF0E04C
:1020A000CF0108950895109295051092940588EE39
:1020B00093E0A0E0B0E08093960590939705A093FD
:1020C0009805B093990583EB94E0909393058093E2
:1020D00092050895CF92DF92EF92FF920F931F9394
:1020E000CF93DF937C016B018A0180919105882356
:1020F000A1F0C0E0D0E00DC0D701ED91FC91D60178
:10210000AC0FBD1F0190F081E02DC7016C911995B6
:102110002196C017D10780F303C0CB01642F04D1EF
:10212000C801DF91CF911F910F91FF90EF90DF9049
:10213000CF900895DF93CF930F92CDB7DEB7FC0118
:102140006983809191058823C9F080919005803240
:1021500038F081E090E09383828320E030E014C087
:1021600080918F05E82FF0E0E159FA4F9981908333
:102170008F5F80938F058093900504C0CE010196F8
:1021800061E0D2D021E030E0C9010F90CF91DF9122
:1021900008950F93062F80916E056FE675E04091CC
:1021A000900521E06CD010928F051092900510924E
:1021B00091050F91089561E0ECCF413208F040E2C3
:1021C000862F6CE475E012D010926C0580936D053B
:1021D000089521E0F2CF21E0F0CF10926C0510922B
:1021E0006D0510928F05109290054EC2382F413226
:1021F00010F040E042C080919E058823E1F791E015
:1022000090939E052093A0058FEF80930B0610926C
:10221000C60541504093C7054F5F90939F0580913D
:102220009F05330F832B80939F058091A1058130FB
:1022300041F41092A10580919F058093BB0085EC2D
:1022400001C085EE8093BC0080919E058130E1F352
:102250008091C605841710F44091C60520E030E057
:102260000AC0FB01E20FF31FD901AA55BA4F8C91A6
:1022700080832F5F3F4F2417A0F3842F08950F937F
:102280001F93582F122F413210F081E04AC08091E5
:102290009E058823E1F782E080939E050093A005C8
:1022A0008FEF80930B061092C6054093C705A6EAF0
:1022B000B5E0FB0102C081918D938E2F861B8417A0
:1022C000D0F310929F0580919F05550F852B809329
:1022D0009F058091A105813041F41092A105809164
:1022E0009F058093BB0085EC01C085EE8093BC0008
:1022F000112321F080919E058230E1F380910B063D
:102300008F3F11F480E00DC080910B06803211F4F4
:1023100082E007C080910B06803311F084E001C099
:1023200083E01F910F910895482F613210F081E0F2
:10233000089580919E05843011F082E008956093A5
:10234000E905A8ECB5E0842F9C01F90102C0819158
:102350008D938E2F841B8617D0F380E008951F92F3
:102360000F920FB60F920BB60F9211242F933F933B
:102370004F935F936F937F938F939F93AF93BF938D
:10238000EF93FF938091B90090E0887F9070803642
:10239000910509F4F2C081369105CCF5883291059A
:1023A00009F47BC089329105B4F48031910509F4B8
:1023B0006FC0813191053CF4009709F447C108973B
:1023C00009F04FC165C08831910509F466C0809756
:1023D00009F047C182C08034910509F4A4C081345A
:1023E000910544F48033910509F482C0C89709F03F
:1023F00038C189C08035910509F489C088359105B7
:1024000009F496C08834910509F02BC1AEC0883913
:10241000910509F413C189399105ECF488379105C8
:1024200009F4ABC0893791054CF48836910509F45D
:10243000A4C08037910509F014C19FC08838910568
:1024400009F4FCC08039910509F49DC080389105DC
:1024500009F007C198C0803B910509F4C6C0813BD3
:1024600091054CF4803A910509F49FC0883A910592
:1024700009F0F7C0BAC0803C910509F4E3C0883C7C
:10248000910509F4DFC0883B910509F0EAC0C2C09C
:1024900080919F058093BB00CFC09091C60580912D
:1024A000C705981768F49091C605E92FF0E0EA5542
:1024B000FA4F80818093BB009F5F9093C605BCC09C
:1024C0008091A005882309F44BC085ED8093BC0062
:1024D0008091BC0084FDFCCFC2C080E280930B06DB
:1024E00085ED8093BC008091BC0084FDFCCFB7C01B
:1024F00080E380930B0685ED8093BC008091BC0047
:1025000084FDFCCFACC088E380930B069BC0809118
:10251000C6059091BB00E82FF0E0EA55FA4F908392
:102520008F5F8093C6059091C6058091C70582C0D4
:102530008091C6059091BB00E82FF0E0EA55FA4F74
:1025400090838F5F8093C6058091A005882341F01A
:1025500085ED8093BC008091BC0084FDFCCF7FC0E2
:1025600081E08093A10584EA6EC085ED8093BC0074
:102570008091BC0084FDFCCF72C083E080939E05F7
:1025800010920A0659C080910A06803208F056C09F
:1025900080910A069091BB00E82FF0E0E651FA4FD7
:1025A00090838F5F80930A0647C080910A0680322D
:1025B00030F4E0910A06F0E0E651FA4F108285ED22
:1025C0008093BC008091BC0084FDFCCF10929E05DE
:1025D00060910A06E091A405F091A5058AEE95E0C8
:1025E00070E0199510920A062DC084E080939E0534
:1025F0001092E8051092E905E091A205F091A3057B
:1026000019958091E905882329F481E08093E905F3
:102610001092C8059091E805E92FF0E0E853FA4FD1
:1026200080818093BB009F5F9093E8059091E805BF
:102630008091E905981710F485EC01C085E8809336
:10264000BC000FC085EC8093BC0009C010920B0643
:1026500085ED8093BC008091BC0084FDFCCF10927E
:102660009E05FF91EF91BF91AF919F918F917F91C7
:102670006F915F914F913F912F910F900BBE0F90F3
:102680000FBE0F901F90189510929E0581E08093C9
:10269000A0051092A10584E161E097D185E161E098
:1026A00094D1E9EBF0E080818E7F808380818D7F03
:1026B000808388E48093B80085E48093BC0008950B
:1026C0001F920F920FB60F9211242F933F938F9367
:1026D0009F93AF93BF938091100690911106A091A4
:1026E0001206B0911306309114060196A11DB11D7A
:1026F000232F2D5F2D3720F02D570196A11DB11DE1
:10270000209314068093100690931106A09312064E
:10271000B093130680910C0690910D06A0910E06C1
:10272000B0910F060196A11DB11D80930C069093E8
:102730000D06A0930E06B0930F06BF91AF919F9127
:102740008F913F912F910F900FBE0F901F90189572
:102750008FB7F8942091100630911106409112061F
:10276000509113068FBFB901CA0108959B01AC01B6
:102770007FB7F89480910C0690910D06A0910E06FB
:10278000B0910F0666B5A89B05C06F3F19F0019682
:10279000A11DB11D7FBFBA2FA92F982F8827860FA3
:1027A000911DA11DB11D62E0880F991FAA1FBB1FBB
:1027B0006A95D1F7BC012DC0FFB7F89480910C0643
:1027C00090910D06A0910E06B0910F06E6B5A89B5C
:1027D00005C0EF3F19F00196A11DB11DFFBFBA2F33
:1027E000A92F982F88278E0F911DA11DB11DE2E002
:1027F000880F991FAA1FBB1FEA95D1F7861B970B5D
:10280000885E9340C8F221503040404050406851AB
:102810007C4F211531054105510571F608957894D5
:1028200084B5826084BD84B5816084BD85B58260D5
:1028300085BD85B5816085BDEEE6F0E08081816073
:102840008083E1E8F0E01082808182608083808173
:1028500081608083E0E8F0E0808181608083E1EB4B
:10286000F0E0808184608083E0EBF0E08081816033
:102870008083E1E9F0E080818260808380818160F3
:102880008083E0E9F0E0808181608083E1EAF0E02C
:10289000808182608083808181608083E0EAF0E0D3
:1028A000808181608083E1E2F1E0808182608083C9
:1028B000808181608083E0E2F1E0808181608083BB
:1028C000EAE7F0E080818460808380818260808399
:1028D0008081816080838081806880831092C100C4
:1028E0000895893009F449C08A30A0F4843051F148
:1028F000853040F4823079F1833000F5813009F081
:1029000063C026C0873079F1883098F5863009F0A9
:102910005BC025C08D3009F442C08E3028F48B3066
:10292000B1F18C30C0F52DC0803109F442C0813145
:1029300009F445C08F3009F047C037C0809180004E
:102940008F7703C0809180008F7D809380000895F1
:1029500084B58F7702C084B58F7D84BD0895809142
:10296000B0008F7703C08091B0008F7D8093B0005E
:102970000895809190008F7707C0809190008F7D9F
:1029800003C080919000877F80939000089580918C
:10299000A0008F7707C08091A0008F7D03C0809139
:1029A000A000877F8093A0000895809120018F77F9
:1029B00003C0809120018F7D809320010895809134
:1029C0002001877F809320010895FF920F931F932A
:1029D000F62E482F50E0CA01805C9D4FFC012491E7
:1029E000CA0186509E4FFC0114914C545E4FFA016F
:1029F00004910023C1F0222311F0822F72DFE02F17
:102A0000F0E0EE0FFF1FE058FE4FA591B4919FB785
:102A1000F894FF2021F48C911095812302C08C91B1
:102A2000812B8C939FBF1F910F91FF900895089564
:102A30001F920F920FB60F920BB60F9211242F9385
:102A40003F934F938F939F93EF93FF938091C00099
:102A500082FD1DC04091C60020915506309156065A
:102A60002F5F3F4F2F73307080915706909158061B
:102A70002817390771F0E0915506F0915606EB5E84
:102A8000F94F4083309356062093550602C080913B
:102A9000C600FF91EF919F918F914F913F912F91A0
:102AA0000F900BBE0F900FBE0F901F9018950895BA
:102AB0001F920F920FB60F920BB60F9211242F9305
:102AC0003F934F938F939F93EF93FF938091C80011
:102AD00082FD1DC04091CE002091DD063091DE06C2
:102AE0002F5F3F4F2F7330708091DF069091E0068B
:102AF0002817390771F0E091DD06F091DE06E35604
:102B0000F94F40833093DE062093DD0602C08091AA
:102B1000CE00FF91EF919F918F914F913F912F9117
:102B20000F900BBE0F900FBE0F901F901895089539
:102B30001F920F920FB60F920BB60F9211242F9384
:102B40003F934F938F939F93EF93FF938091D00088
:102B500082FD1DC04091D600209165073091660727
:102B60002F5F3F4F2F7330708091670790916807F8
:102B70002817390771F0E0916507F0916607EB5D62
:102B8000F84F4083309366072093650702C0809119
:102B9000D600FF91EF919F918F914F913F912F918F
:102BA0000F900BBE0F900FBE0F901F9018950895B9
:102BB0001F920F920FB60F920BB60F9211242F9304
:102BC0003F934F938F939F93EF93FF9380913001A7
:102BD00082FD1DC0409136012091ED073091EE0736
:102BE0002F5F3F4F2F7330708091EF079091F00768
:102BF0002817390771F0E091ED07F091EE07E355E2
:102C0000F84F40833093EE072093ED0702C0809188
:102C10003601FF91EF919F918F914F913F912F91AD
:102C20000F900BBE0F900FBE0F901F901895E09164
:102C30004108F0914208E05CFF4F81919191208121
:102C40003181821B930B8F739070892B09F0EFDE1B
:102C5000E0916308F0916408E05CFF4F81919191ED
:102C600020813181821B930B8F739070892B09F027
:102C70001EDFE0918508F0918608E05CFF4F8191AE
:102C8000919120813181821B930B8F739070892BDE
:102C900009F04DDFE091A708F091A808E05CFF4F34
:102CA0008191919120813181821B930B8F73907060
:102CB000892B09F07CCF08951F920F920FB60F92C7
:102CC0000BB60F9211242F933F938F939F93EF9303
:102CD000FF932091990630919A0680919B069091DE
:102CE0009C062817390731F48091C1008F7D8093AD
:102CF000C10014C0E0919B06F0919C06E75AF94F81
:102D0000208180919B0690919C0601968F73907014
:102D100090939C0680939B062093C600FF91EF91B1
:102D20009F918F913F912F910F900BBE0F900FBEEF
:102D30000F901F9018951F920F920FB60F920BB61F
:102D40000F9211242F933F938F939F93EF93FF93B1
:102D50002091210730912207809123079091240729
:102D60002817390731F48091C9008F7D8093C900FD
:102D700014C0E0912307F0912407EF51F94F20810F
:102D8000809123079091240701968F739070909300
:102D90002407809323072093CE00FF91EF919F910A
:102DA0008F913F912F910F900BBE0F900FBE0F9000
:102DB0001F9018951F920F920FB60F920BB60F929D
:102DC00011242F933F938F939F93EF93FF93209121
:102DD000A9073091AA078091AB079091AC072817FB
:102DE000390731F48091D1008F7D8093D10014C0D8
:102DF000E091AB07F091AC07E759F84F2081809143
:102E0000AB079091AC0701968F7390709093AC07CD
:102E10008093AB072093D600FF91EF919F918F9104
:102E20003F912F910F900BBE0F900FBE0F901F90F0
:102E300018951F920F920FB60F920BB60F92112496
:102E40002F933F938F939F93EF93FF93209131089C
:102E5000309132088091330890913408281739074F
:102E600031F4809131018F7D8093310114C0E09164
:102E70003308F0913408EF50F84F208180913308E7
:102E80009091340801968F739070909334088093DA
:102E9000330820933601FF91EF919F918F913F91DD
:102EA0002F910F900BBE0F900FBE0F901F90189593
:102EB000AF92BF92DF92EF92FF920F931F93CF9347
:102EC000DF93EC017A018B01DD24403081EE58075D
:102ED00080E0680780E0780711F0DD24D39491E06A
:102EE000A92EB12CEC89FD89DD2069F0C50108A06F
:102EF00002C0880F991F0A94E2F7808360E079E0AE
:102F00008DE390E005C0108260E874E88EE190E007
:102F1000A8019701FED621503040404050405695C0
:102F200047953795279580E12030380720F0DD2040
:102F300011F0DD24D7CFE889F9893083EA89FB894C
:102F4000208319A2EE89FF89408121E030E0C90188
:102F50000C8C02C0880F991F0A94E2F7482B40831B
:102F6000EE89FF894081C9010D8C02C0880F991F2D
:102F70000A94E2F7482B4083EE89FF894081C9011A
:102F80000E8C02C0880F991F0A94E2F7482B4083E9
:102F9000EE89FF8980810F8C02C0220F331F0A94B3
:102FA000E2F7209528232083DF91CF911F910F9185
:102FB000FF90EF90DF90BF90AF900895DC011C96DA
:102FC000ED91FC911D97E05CFF4F21913191808143
:102FD0009181281B390B2F733070C9010895DC01D2
:102FE0001C96ED91FC911D97E05CFF4F2081318193
:102FF000E054F040DF01AE5BBF4F8D919C91119783
:103000002817390719F42FEF3FEF07C08D919C91D6
:10301000E80FF91F8081282F30E0C9010895DC01F5
:103020001C96ED91FC911D97E05CFF4F2081318152
:10303000E054F040DF01AE5BBF4F8D919C91119742
:103040002817390719F42FEF3FEF10C08D919C918D
:103050001197E80FF91F20818D919C91119701968E
:103060008F73907011969C938E9330E0C9010895F0
:10307000DC0191968C919197882339F05496ED91CB
:10308000FC915597808186FFF9CF91961C92089507
:10309000CF93DF93EC01EE85FF85E05CFF4F20814D
:1030A0003181E054F0402F5F3F4F2F733070DF01CC
:1030B000AE5BBF4F8D919C91119728173907D1F3C3
:1030C000E05CFF4F80819181E054F040E80FF91FF0
:1030D0006083EE85FF85E05CFF4F31832083EE89BE
:1030E000FF89208181E090E00F8C02C0880F991F3A
:1030F0000A94E2F7282B208381E089A3EC89FD89DB
:1031000080818064808381E090E0DF91CF91089599
:103110001F93109238081092370828EE33E040E0F1
:1031200050E02093390830933A0840933B0850937D
:103130003C0863EC74E0709336086093350885E1D1
:1031400096E0909342088093410889E596E0909339
:1031500044088093430885EC90E090934608809360
:10316000450884EC90E0909348088093470880ECF1
:1031700090E090934A088093490881EC90E0909306
:103180004C0880934B0882EC90E090934E0880931B
:103190004D0886EC90E09093500880934F0814E01F
:1031A00010935108B3E0B0935208A7E0A0935308DE
:1031B000F5E0F0935408E1E0E093550810925A08C6
:1031C0001092590820935B0830935C0840935D0887
:1031D00050935E0870935808609357088DE996E005
:1031E000909364088093630881EE96E0909366085C
:1031F000809365088DEC90E0909368088093670851
:103200008CEC90E090936A088093690888EC90E0D9
:1032100090936C0880936B0889EC90E090936E0813
:1032200080936D088AEC90E09093700880936F080B
:103230008EEC90E09093720880937108109373085D
:10324000B0937408A0937508F0937608E09377081C
:1032500010927C0810927B0820937D0830937E08A2
:1032600040937F085093800870937A0860937908A0
:1032700085E297E0909386088093850889E697E039
:10328000909388088093870885ED90E090938A0852
:103290008093890884ED90E090938C0880938B084C
:1032A00080ED90E090938E0880938D0881ED90E002
:1032B0009093900880938F0882ED90E0909392080D
:1032C0008093910886ED90E0909394088093930802
:1032D00010939508B0939608A0939708F0939808D8
:1032E000E093990810929E0810929D0820939F08E1
:1032F0003093A0084093A1085093A20870939C08B3
:1033000060939B088DEA97E09093A8088093A708A4
:1033100081EF97E09093AA088093A90885E391E054
:103320009093AC088093AB0884E391E09093AE084F
:103330008093AD0880E391E09093B0088093AF084C
:1033400081E391E09093B2088093B10882E391E029
:103350009093B4088093B30886E391E09093B60805
:103360008093B5081093B708B093B808A093B90834
:10337000F093BA08E093BB081F910895CF93DF93B1
:103380004EDA0E94020FC7E1D6E10E945E0A209742
:10339000E1F34DDCFACFCF92DF92EF92FF920F93E1
:1033A0001F93CF93DF937C016B018A01C0E0D0E0D3
:1033B0000FC0D6016D916D01D701ED91FC91019087
:1033C000F081E02DC7011995C80FD91F0150104099
:1033D0000115110571F7CE01DF91CF911F910F916A
:1033E000FF90EF90DF90CF900895EF92FF920F93B0
:1033F0001F938C01DC01ED91FC910190F081E02D97
:103400006DE019957C01D801ED91FC910190F0815E
:10341000E02DC8016AE019959C012E0D3F1DC901E0
:103420001F910F91FF90EF9008954F925F927F92BE
:103430008F929F92AF92BF92CF92DF92EF92FF92C4
:103440000F931F93DF93CF93CDB7DEB7A1970FB63E
:10345000F894DEBF0FBECDBF2C01742ECB012230FD
:1034600008F42AE019A231E2C32ED12CCC0EDD1EC5
:10347000822E9924AA24BB24672D752FA5019401BF
:1034800048D479018A01C801B701A50194010FD47C
:10349000472D461B0894C108D1084A3014F4405DFA
:1034A00001C0495CF6014083E114F10401051105F6
:1034B00021F07E2C5F2DC801DFCFC201B6010E9432
:1034C0000704A1960FB6F894DEBF0FBECDBFCF9113
:1034D000DF911F910F91FF90EF90DF90CF90BF9001
:1034E000AF909F908F907F905F904F900895DC01F8
:1034F0002115310541F4ED91FC910190F081E02D11
:10350000642F1995089591CFEF92FF920F931F9317
:103510009A01E62EFF2400E010E0B801A701E7DFE2
:103520001F910F91FF90EF900895CF92DF92EF924D
:10353000FF920F931F93CF93DF93EC016A017B01FE
:103540002115310541F4E881F9810190F081E02DE8
:10355000642F19951DC02A303105C9F477FF16C0B4
:10356000E881F9810190F081E02D6DE219958C01DF
:1035700044275527BA014C195D096E097F09CE0110
:103580002AE053DF9801280F391F03C02AE04DDFDE
:103590009C01C901DF91CF911F910F91FF90EF9096
:1035A000DF90CF900895EF92FF920F931F937B01CE
:1035B0009A010027F7FC0095102FB801A701B5DF8D
:1035C0001F910F91FF90EF9008950C9407040895B8
:1035D000EF92FF920F931F937C010E9407048C01CE
:1035E000C70103DF080F191FC8011F910F91FF903A
:1035F000EF90089570E0382F20E0622B732BCB0101
:1036000008955058BB27AA270ED04DC13ED130F0A7
:1036100043D120F031F49F3F11F41EF433C10EF476
:10362000E095E7FB29C1E92F4FD180F3BA17620774
:1036300073078407950718F071F49EF567C10EF4BF
:10364000E0950B2EBA2FA02D0B01B90190010C01B2
:10365000CA01A0011124FF27591B99F0593F50F4CA
:10366000503E68F11A16F040A22F232F342F442722
:10367000585FF3CF469537952795A795F04053951A
:10368000C9F77EF41F16BA0B620B730B840BBAF0EA
:103690009150A1F0FF0FBB1F661F771F881FC2F755
:1036A0000EC0BA0F621F731F841F48F48795779569
:1036B0006795B795F7959E3F08F0B3CF9395880F20
:1036C00008F09927EE0F9795879508950CD0EBC0D9
:1036D000E3D040F0DAD030F021F45F3F19F0CCC0F5
:1036E000511115C1CFC0F0D098F39923C9F35523D8
:1036F000B1F3951B550BBB27AA27621773078407E5
:1037000038F09F5F5F4F220F331F441FAA1FA9F39A
:1037100033D00E2E3AF0E0E830D091505040E6958C
:10372000001CCAF729D0FE2F27D0660F771F881FED
:10373000BB1F261737074807AB07B0E809F0BB0BDC
:10374000802DBF01FF2793585F4F2AF09E3F510500
:1037500068F092C0DCC05F3FECF3983EDCF38695E6
:1037600077956795B795F7959F5FC9F7880F911D76
:103770009695879597F90895E1E0660F771F881F62
:10378000BB1F621773078407BA0720F0621B730B15
:10379000840BBA0BEE1F88F7E095089504D0689467
:1037A000B111B5C0089598D088F09F5790F0B92F07
:1037B0009927B751A0F0D1F0660F771F881F991F86
:1037C0001AF0BA95C9F712C0B13081F09FD0B1E0BC
:1037D00008959CC0672F782F8827B85F39F0B93FCC
:1037E000CCF3869577956795B395D9F73EF4909588
:1037F0008095709561957F4F8F4F9F4F0895E89406
:1038000009C097FB3EF490958095709561957F4F28
:103810008F4F9F4F9923A9F0F92F96E9BB279395D6
:10382000F695879577956795B795F111F8CFFAF4E6
:10383000BB0F11F460FF1BC06F5F7F4F8F4F9F4F17
:1038400016C0882311F096E911C0772321F09EE875
:10385000872F762F05C0662371F096E8862F70E0DB
:1038600060E02AF09A95660F771F881FDAF7880FB5
:103870009695879597F9089597F99F6780E870E086
:1038800060E008959FEF80EC089500240A941616D6
:10389000170618060906089500240A94121613063E
:1038A000140605060895092E0394000C11F48823CC
:1038B00052F0BB0F40F4BF2B11F460FF04C06F5FE8
:1038C0007F4F8F4F9F4F089557FD9058440F551FBE
:1038D00059F05F3F71F04795880F97FB991F61F092
:1038E0009F3F79F087950895121613061406551F09
:1038F000F2CF4695F1DF08C0161617061806991F75
:10390000F1CF86957105610508940895E894BB2769
:1039100066277727CB0197F908950BD0C4CFB5DF81
:1039200028F0BADF18F0952309F0A6CFABCF112409
:10393000EECFCADFA0F3959FD1F3950F50E0551F4E
:10394000629FF001729FBB27F00DB11D639FAA27F4
:10395000F00DB11DAA1F649F6627B00DA11D661F43
:10396000829F2227B00DA11D621F739FB00DA11D64
:10397000621F839FA00D611D221F749F3327A00D1E
:10398000611D231F849F600D211D822F762F6A2FBA
:1039900011249F5750408AF0E1F088234AF0EE0F3F
:1039A000FF1FBB1F661F771F881F91505040A9F74C
:1039B0009E3F510570F060CFAACF5F3FECF3983E79
:1039C000DCF3869577956795B795F795E7959F5FB3
:1039D000C1F7FE2B880F911D9695879597F908954D
:1039E000FA01EE0FFF1F30962105310599F161159F
:1039F000710561F48038BFE39B0749F16894903802
:103A0000810561F08038BFEF9B0741F0992342F5B3
:103A1000FF3FE1053105210511F1E8940894E79590
:103A2000D901AA2329F4AB2FBE2FF85FD0F310C021
:103A3000FF5F70F4A695E0F7F73950F019F0FF3A00
:103A400038F49F779F930CD00F9007FC90580895FF
:103A50003EF018CF60E070E080E89FE308954FE704
:103A60009F775F934F933F932F939ED02F913F91DA
:103A70004F915F9152DF05C019F40EF0FDCE46CF95
:103A800001CF2ADFC8F39638C0F707F80F92E89401
:103A90002BE33AEA48EB5FE74EDF0F920F920F926B
:103AA0004DB75EB70F92C0D0E4EEF0E016D04F9164
:103AB0005F91EF91FF91E595EE1FFF1F49F0FE57D3
:103AC000E0684427EE0F441FFA95E1F74195550B46
:103AD00032D00F9007FE26C00895DF93CF931F9337
:103AE0000F93FF92EF92DF927B018C01689405C0E7
:103AF000DA2EEF011EDFFE01E894A59125913591A4
:103B000045915591AEF3EF018EDDFE019701A801BD
:103B1000DA9479F7DF90EF90FF900F911F91CF919A
:103B2000DF9108959B01AC0160E070E080E89FE3C5
:103B3000CDCDA2CEACC0D0DEE8F39923D9F3940F5B
:103B4000511DBBF39150504094F059F0882332F04E
:103B5000660F771F881F91505040C1F79E3F510557
:103B600044F7880F911D9695879597F908955F3FC3
:103B7000ACF0983E9CF0BB27869577956795B795F6
:103B800008F4B1609395C1F7BB0F58F711F460FFCB
:103B9000E8CF6F5F7F4F8F4F9F4FE3CFB8CE0EF0D0
:103BA00076C070CE689468CE97DEC8F39923D1F3BF
:103BB000C6F3DF93CF931F930F93FF92C92FDD2797
:103BC00088232AF02197660F771F881FDAF720E0F5
:103BD00030E040E85FEB9FE3883920F0803E30F032
:103BE00021968F770FDDECE0F1E003C00BDDE9E318
:103BF000F1E073DF8B01BE01EC01FB2E6F57710901
:103C00007595771F880B990BFCDD28E132E741E3BE
:103C10005FE38FDEAF2D9801AE01FF900F911F91F2
:103C2000CF91DF9100DD3FCEFA01DC01AA0FBB1F6F
:103C30009B01AC01BF5728F4222733274427507833
:103C40001FC0B75188F4AB2F0024469537952795B0
:103C5000011CA395D2F3002069F0220F331F441FEB
:103C6000B395DAF30DD0CDCC61307105A0E88A07A9
:103C7000B94630F49B01AC016627772788279078F6
:103C8000309621F0208331834283538308959F3FF0
:103C900049F0915028F4869577956795B7959F5F81
:103CA00080389F4F880F9695879597F90895629F62
:103CB000D001739FF001829FE00DF11D649FE00D24
:103CC000F11D929FF00D839FF00D749FF00D659F85
:103CD000F00D9927729FB00DE11DF91F639FB00D84
:103CE000E11DF91FBD01CF011124089597FB092E95
:103CF00007260AD077FD04D02ED006D000201AF473
:103D0000709561957F4F0895F6F7909581959F4F37
:103D10000895A1E21A2EAA1BBB1BFD010DC0AA1F0C
:103D2000BB1FEE1FFF1FA217B307E407F50720F024
:103D3000A21BB30BE40BF50B661F771F881F991F9F
:103D40001A9469F760957095809590959B01AC01E8
:103D5000BD01CF010895AA1BBB1B51E107C0AA1FDB
:103D6000BB1FA617B70710F0A61BB70B881F991F1C
:103D70005A95A9F780959095BC01CD010895EE0F55
:103D8000FF1F0590F491E02D19942F923F924F92CE
:103D90005F926F927F928F929F92AF92BF92CF92DB
:103DA000DF92EF92FF920F931F93CF93DF93CDB7E4
:103DB000DEB7CA1BDB0B0FB6F894DEBF0FBECDBF5C
:103DC00019942A88398848885F846E847D848C841D
:103DD0009B84AA84B984C884DF80EE80FD800C8136
:103DE0001B81AA81B981CE0FD11D0FB6F894DEBF19
:0C3DF0000FBECDBFED010895F894FFCF89
:103DFC0061207061636B6574206861732062656516
:103E0C006E2073656E7420746F203078257820775F
:103E1C006974682076616C75653A20307825780A6B
:103E2C00007261773A2000207C7C206465677265A3
:103E3C00653A0074776F207061636B6574732068EA
:103E4C00617665206265656E2073656E7420746F93
:103E5C00203078257820776974682076616C7565D8
:103E6C0020413A20307825780A00564D4450455F61
:103E7C0031007C005F564D4450450D0A000A434307
:103E8C004D522070726F6772616D20696E69746932
:103E9C00616C697A656400205B4445425547204D4E
:103EAC004F44455D0A000A002D2D426F6F74696EF8
:103EBC00672D2D00524553455454494E47205641C9
:103ECC004C564553007265666C7578696E67207741
:103EDC00617465722E2E00436C65616E696E67208D
:103EEC0056616C76657320616E64205069706573E1
:103EFC00003C7C2E2E002E002E2E7C3E0020434FAC
:103F0C004D504C4554450053455454494E4720534D
:103F1C0054414E44415254204D49582E2E2E0043AC
:103F2C004F322E2E2E0048322E2E2E005359535423
:103F3C00454D20424F4F54555020434F4D504C450A
:103F4C005445005553455220494E50555420524526
:103F5C005155495245442100505245484541542041
:103F6C004F56454E203F0050524548454154494E0E
:103F7C0047204F56454E2E2E2E20287468697320EC
:103F8C006D61792074616B652061207768696C655F
:103F9C00290050726568656174696E672E2E207CED
:103FAC007C2000252046696E697368656400207C5E
:103FBC007C2054656D70657261747572653A200071
:103FCC00EFBFBD430050524548454154494E472030
:103FDC0041424F525445440050524550524F445563
:103FEC0043494E47204832005072657373757265B1
:103FFC003A2000206D626172000A0A2D2D2D2D2DA4
:10400C002D2D2D2D2D524541445920544F204255D4
:10401C00524E2D2D2D2D2D2D2D2D2D2D0A00564D85
:10402C004450565F317C315F564D4450560D0A005A
:10403C004572726F723A20417474656D707420749D
:10404C006F20736574206120726561642D6F6E6CD6
:10405C0079207661726961626C65206F722064618F
:10406C0074612074797065206E6F74207375707034
:10407C006F727465640D0A00564D4450435F005FC7
:10408C00564D4450430D0A00252522232622232079
:10409C004B351F4F26204B19005500F4010A000028
:1040AC000000009A106A1023102C104110521000BE
:1040BC000000004818CB19DE170F18EF173818003E
:00000001FF
