:1000000045C1000070C100006EC100006CC100005D
:100010006AC1000068C1000066C1000064C1000040
:1000200062C1000060C100005EC100005CC1000050
:100030005AC1000058C1000056C1000054C1000060
:1000400052C1000050C100004EC100004CC1000070
:100050004AC1000048C1000046C100000C94941140
:1000600042C100000C944C130C94A0143CC100003D
:100070003AC1000038C1000036C1000034C10000A0
:1000800032C1000030C100002EC100002CC10000B0
:100090000C948C130C94DF1426C100000C94E30F15
:1000A00022C1000020C100001EC100001CC10000D0
:1000B0001AC1000018C1000016C1000014C10000E0
:1000C00012C1000010C100000EC100000C94CC133E
:1000D0000C941E1508C100000C940C140C945D15B2
:1000E00002C1000007634236B79BD8A71A39685689
:1000F00018AEBAAB558C1D3CB7CC5763BD6DEDFD4A
:10010000753EF6177231BF000000803F0800000006
:10011000BE922449123EABAAAA2ABECDCCCC4C3EFC
:1001200000000080BEABAAAAAA3E00000000BF00EB
:100130000000803F0000000000084178D3BB4387E7
:10014000D1133D190E3CC3BD4282AD2B3E68EC82FB
:1001500076BED98FE1A93E4C80EFFFBE01C4FF7F80
:100160003F000000000000002100240027002A00BA
:100170002D003000330001010000040107010A01D5
:1001800000002200250028002B002E003100340042
:1001900002010000050108010B01000020002300FE
:1001A000260029002C002F0032000001000003016E
:1001B00006010901050505050705080808080202EA
:1001C00002020A0A080804040404010101010101F1
:1001D00001010303030303030303040707070C0CD4
:1001E0000C0C0C0C0C0C020202020606060606069B
:1001F00006060B0B0B0B0B0B0B0B01021020200840
:100200000810204010204080020102010804020171
:1002100001020408102040808040201008040201E0
:100220008004020180402010080402010804020139
:1002300001020408102040800102040810204080C0
:100240000000090A02080B0C0D0706030401000058
:10025000000000000000000000000000000000009E
:1002600000000000000000000000000011100F005E
:10027000000000000000000000000000000000007E
:10028000000000000000970D870ECE1611241FBE3F
:10029000CFEFD1E2DEBFCDBF00E00CBF14E0A0E0A5
:1002A000B2E0E4EBFCE300E00BBF02C007900D926C
:1002B000AE39B107D9F71BBE18E0AEE9B4E001C012
:1002C0001D92A438B107E1F712E0CCE8D2E004C0F7
:1002D0002297FE010E941D1EC638D107C9F70E9451
:1002E00005180C94581E8CCEAEE0B0E0EAE7F1E0C1
:1002F0000C942F1E0E891F8986E08C831A83098334
:100300008FEF9FE79E838D839E01265E3F4FCE0138
:100310000196688D798DA9010AD02F813885020F49
:10032000131FF80110822E96E4E00C944B1EABE0F4
:10033000B0E0EDE9F1E00C94211E3C012B015A01E3
:10034000FC0117821682838181FD03C06FEF7FEF6E
:10035000B9C19AE0892E1E010894211C311CF301B9
:100360002381F20123FD859123FF81912F018823B1
:1003700009F4A5C1853239F423FD859123FF8191CC
:100380002F01853221F490E0B301B7D1E8CF982F47
:10039000FF24EE249924FFE1FF15D0F09B3269F091
:1003A0009C3228F4903259F0933291F40EC09D3271
:1003B00049F0903369F441E024C052E0F52A84E02A
:1003C000F82A28C098E0F92A25C0E0E1FE2A22C0D8
:1003D000F7FC29C0892F80538A3070F4F6FE05C0DF
:1003E000989C902C1124980E15C0E89CE02C1124A8
:1003F000E80EF0E2FF2A0EC09E3229F4F6FC5FC13F
:1004000040E4F42A07C09C3619F450E8F52A02C0EB
:10041000983649F4F20123FD959123FF91912F0124
:10042000992309F0B8CF892F8554833018F0805272
:10043000833038F444E050E0A40EB51E5FE35983E6
:100440000FC0933631F0933779F0933509F052C0ED
:100450001FC0F5018081898342E050E0A40EB51EE3
:10046000610101E010E011C0F501C080D180F6FC0F
:1004700003C06FEF7FEF02C0692D70E042E050E0F3
:10048000A40EB51EC6012ED18C015FE7F52213C064
:10049000F501C080D180F6FC03C06FEF7FEF02C092
:1004A000692D70E042E050E0A40EB51EC6010FD1E8
:1004B0008C0150E8F52AF3FE06C018C080E290E0F7
:1004C000B3011BD1EA948E2D90E008171907B0F301
:1004D0000DC0F601F7FC8591F7FE81916F0190E068
:1004E000B3010BD1E110EA94015010400115110540
:1004F00081F7E2C0943611F0993661F5F7FE08C035
:10050000F501208131814281538184E090E00AC06D
:10051000F501808191819C01442737FD4095542F3E
:1005200082E090E0A80EB91E9FE6F92257FF09C0AD
:1005300050954095309521953F4F4F4F5F4FE0E8E4
:10054000FE2ACA01B901A1012AE030E002D1D82E69
:10055000D2183FC0953729F41F2D1F7E2AE030E0C6
:100560001DC01F2D197F9F3661F0903720F49835FC
:1005700009F0A5C00FC0903739F0983709F09FC037
:1005800004C028E030E00AC0106114FD146020E1CE
:1005900030E004C014FD166020E132E017FF08C00F
:1005A000F501608171818281938144E050E008C04F
:1005B000F50180819181BC0180E090E042E050E053
:1005C000A40EB51EA101C5D0D82ED2188FE7F82EE3
:1005D000F122F6FE0BC05EEFF522D91438F4F4FEDA
:1005E00007C0F2FC05C08FEEF82202C01D2D01C02D
:1005F000192DF4FE0DC0FE01ED0DF11D808180333B
:1006000019F499EEF92208C01F5FF2FE05C003C07D
:100610008F2D867809F01F5F0F2DF3FC13C0F0FEBD
:100620000EC01E1510F09D2C0AC09D2C9E0C911A18
:100630001E2D05C080E290E0B3015FD01F5F1E1544
:10064000C8F304C01E1510F4E11A01C0EE2404FF23
:100650000EC080E390E0B30150D002FF1BC001FD4B
:1006600003C088E790E00EC088E590E00BC0802FC3
:10067000867881F001FF02C08BE201C080E2F7FCC6
:100680008DE290E0B30139D005C080E390E0B30182
:1006900034D09A94D914C8F3DA94F101ED0DF11D18
:1006A000808190E0B30129D0DD20B1F705C080E260
:1006B00090E0B30122D0EA94EE20C9F750CEF301C6
:1006C00066817781CB012B96E2E10C943D1EFC0103
:1006D0000590615070400110D8F7809590958E0F6D
:1006E0009F1F0895FC016150704001900110D8F7E0
:1006F000809590958E0F9F1F08950F931F93CF9312
:10070000DF938C01EB018B8181FF1BC082FF0DC049
:100710002E813F818C819D812817390764F4E881FF
:10072000F9810193F983E88306C0E885F985802F74
:100730001995892B31F48E819F8101969F838E8339
:1007400002C00FEF1FEFC801DF91CF911F910F91F2
:100750000895FA01AA27283051F1203181F1E89457
:100760006F936E7F6E5F7F4F8F4F9F4FAF4FB1E0A4
:100770003ED0B4E03CD0670F781F891F9A1FA11D9F
:10078000680F791F8A1F911DA11D6A0F711D811DA0
:10079000911DA11D20D009F468943F912AE0269F65
:1007A00011243019305D3193DEF6CF010895462FC4
:1007B0004770405D4193B3E00FD0C9F7F6CF462FA5
:1007C0004F70405D4A3318F0495D31FD405241930E
:1007D00002D0A9F7EACFB4E0A695979587957795CB
:1007E0006795BA95C9F700976105710508959B0152
:1007F000AC010A2E06945795479537952795BA95DB
:10080000C9F7620F731F841F951FA01D0895CF9312
:10081000DF93EC016115710519F420E030E00FC0A1
:10082000DB010D900020E9F71197A61BB70BE881BB
:10083000F9810280F381E02DAD0119959C01C90178
:10084000DF91CF910895EF92FF920F931F93DF9363
:10085000CF93CDB7DEB7EC970FB6F894DEBF0FBEDF
:10086000CDBFF62EE42E89E595E00E944D0E89E578
:1008700095E06E2D0E94CE0E89E595E00E940F0F47
:1008800080919E04882369F18DB79EB708970FB6B3
:10089000F8949EBF0FBE8DBFEDB7FEB731968E01A7
:1008A0000F5F1F4FADB7BEB712961C930E931197F3
:1008B00080E092E093838283F4821582E68217823D
:1008C00013DD8DB79EB708960FB6F8949EBF0FBE86
:1008D0008DBF80919F04882321F08CEF97E0B801B1
:1008E00096DFEC960FB6F894DEBF0FBECDBFCF916A
:1008F000DF911F910F91FF90EF9008951F9361304A
:10090000710529F06230710509F060C02FC0609157
:100910006B044CEA98DF89E595E060916B040E94D6
:100920004D0E89E595E060916B0442E00E941F0F37
:1009300089E595E00E94600E182F89E595E00E94F8
:10094000600E312F20E0280F391F3093A10420932F
:10095000A00489E595E00E940F0F20E08091A0049B
:100960009091A104815A9F4094F52EC060916B0430
:100970004CED69DF89E595E060916B040E944D0EB6
:1009800089E595E060916B0442E00E941F0F89E5C4
:1009900095E00E94600E182F89E595E00E94600E98
:1009A000312F20E0280F391F3093A1042093A00499
:1009B00089E595E00E940F0F20E08091A0049091BE
:1009C000A104895B9B401CF421E001C001C0822F7F
:1009D0001F910895DF92EF92FF920F931F93609102
:1009E00071044CEF30DF09E515E0C8016091710436
:1009F0000E944D0EC8016091710442E00E941F0FD9
:100A0000C8010E94600ED82EC8010E94600E7C01B1
:100A1000C8010E940F0F3D2D20E02E0D3F1DC90182
:100A20001F910F91FF90EF90DF900895EF92FF924A
:100A30000F931F93CF93DF937C01CB01880F991FF6
:100A4000EC0123E0CC0FDD1F2A95E1F7C80FD91F79
:100A5000C853DF4F87010D5F1F4FC801BBDF8C17E5
:100A60009D072CF00EC0C70161E070E0DFDFC80118
:100A7000B1DF8C179D07BCF309C0C70160E070E0CF
:100A8000D5DFC801A7DFC817D907BCF3DF91CF9125
:100A90001F910F91FF90EF900895DF92EF92FF92D8
:100AA0000F931F93609171044CEBCDDE09E515E0C7
:100AB000C801609171040E944D0EC80160917104DB
:100AC00042E00E941F0FC8010E94600ED82EC8018C
:100AD0000E94600E7C01C8010E940F0F3D2D20E096
:100AE0002E0D3F1DC9011F910F91FF90EF90DF90D8
:100AF0000895EF92FF920F931F93CF93DF937C01A2
:100B0000EB0144E0CC0FDD1F4A95E1F7C60FD71F7C
:100B1000C45DDE4F8C010D5F1F4FC801BEDF8C1717
:100B20009D072CF00EC0C70161E070E0E2DFC80154
:100B3000B4DF8C179D07BCF309C0C70160E070E00B
:100B4000D8DFC801AADFC817D907BCF3DF91CF915E
:100B50001F910F91FF90EF900895DF92EF92FF9217
:100B60000F931F93DF93CF93CDB7DEB7C050D14023
:100B70000FB6F894DEBF0FBECDBF8C01D62EF42E7B
:100B8000EE24222311F4EE24E39489E595E06D2D03
:100B90000E944D0E89E595E06D2D70E042E050E039
:100BA0000E941D0F89E595E00E94600ED801119604
:100BB0008C9389E595E00E94600E282FF8018283CE
:100BC000F7E0FF15E8F0D80111962C911197EE206F
:100BD00061F481E090E002C0880F991FFA94E2F777
:100BE0008095282311962C9326C081E090E002C0C6
:100BF000880F991FFA94E2F7282BF80121831BC074
:100C00004F2D4850EE2069F481E090E002C0880F3B
:100C1000991F4A95E2F780958223D80112968C930A
:100C20000AC081E090E002C0880F991F4A95E2F760
:100C3000282BF8012283D8011196FC901197129667
:100C40001C9189E595E06D2D0E944D0E89E595E09A
:100C50006F2D0E94CE0E89E595E0612F0E94CE0E89
:100C600089E595E00E940F0F80919E04882359F139
:100C7000EDB7FEB738970FB6F894FEBF0FBEEDBFC5
:100C800031968E010F5F1F4FADB7BEB712961C9302
:100C90000E93119781E392E093838283D48215822D
:100CA000F682178221DBEDB7FEB738960FB6F894BF
:100CB000FEBF0FBEEDBF80919F04813021F48CEF09
:100CC00097E0B801A4DDC050DF4F0FB6F894DEBF47
:100CD0000FBECDBFCF91DF911F910F91FF90EF908D
:100CE000DF900895662329F060916F0448E021E0C9
:100CF00004C060916F0448E020E02FCF662329F004
:100D000060916F0442E021E004C060916F0442E012
:100D100020E023CF87ED94E061E070E0EFDD8823F1
:100D2000F1F08BEC94E061E0E9DF81ED94E061E0CB
:100D3000D9DF06C062E370E080E090E00E94EA1133
:100D400087ED94E061E070E0D9DD882399F781EDCB
:100D500094E060E0C7DF8BEC94E060E0CFCF0895D3
:100D60000F931F93182F092F662361F060916F0472
:100D700044E021E0F2DE812F902F60916F0446E085
:100D800021E00BC060916F0444E020E0E6DE812F9B
:100D9000902F60916F0446E020E0DFDE1F910F91FD
:100DA00008950F931F93182F092F662361F0609108
:100DB0006F0445E021E0D1DE812F902F60916F0418
:100DC00043E021E00BC060916F0443E020E0C5DE0A
:100DD000812F902F60916F0445E020E0BEDE1F91CF
:100DE0000F9108950F931F93182F092F609170048E
:100DF00041E020E0B2DE812F902F6091700446E048
:100E000020E0ABDE812F902F6091700440E020E065
:100E1000A4DE812F902F6091700447E020E09DDEDA
:100E20001F910F9108958091DA049091DB0497FF50
:100E300005C081ED94E061E070E0F8DD81ED94E0C3
:100E4000D1CF662329F060916F044AE021E004C00D
:100E500060916F044AE020E080CE0F931F93182F1B
:100E6000092F662361F060916F0441E021E075DE97
:100E7000812F902F60916F0440E021E00BC06091C2
:100E80006F0441E020E069DE812F902F60916F04B4
:100E900040E020E062DE1F910F910895662329F063
:100EA00060916F0441E021E004C060916F0441E073
:100EB00020E053CE662329F060916F0447E021E0E3
:100EC00004C060916F0447E020E047CE662329F01C
:100ED00060916F0449E021E004C060916F0449E033
:100EE00020E03BCE0F931F9309E515E0C801609108
:100EF0006C04D3D6C80160916C0448E1A0D7C80146
:100F0000DFD68093B004C801DBD68093B104C8015A
:100F1000D7D68093B204C801D3D68093B304C80156
:100F2000CFD68093B404C801CBD68093B504C80152
:100F3000C7D68093B604C801C3D68093B704C8014E
:100F4000BFD68093B804C801BBD68093B904C8014A
:100F5000B7D68093BA04C801B3D68093BB04C80146
:100F6000AFD68093BC04C801ABD68093BD04C80142
:100F7000A7D68093BE04C801A3D68093BF04C8013E
:100F80009FD68093C004C8019BD68093C104C8013A
:100F900097D68093C204C80193D68093C304C80136
:100FA0008FD68093C404C8018BD68093C504C80132
:100FB00087D68093C604C80183D68093C704C8012E
:100FC00060916C041AD78091C0046091C1040E94A2
:100FD000261A9C013F70442737FD4095542FCA01C3
:100FE000B9010E94311B20E030E44CE955E40E9435
:100FF000961A2AE037ED43E25DE30E942D1A2CEBAE
:1010000034E743E15CE30E94961A20E030E040E2DE
:1010100051E40E94E51B0E94FE1ACB011F910F9123
:101020000895CF93DF9387ED94E05CDFC091760461
:10103000D09177048C1B9D0B181619065CF487ED74
:1010400094E050DF2091760430917704821B930B5B
:101050009C0106C087ED94E045DF9E01281B390BFB
:1010600080917804909179048217930794F487ED26
:1010700094E038DF209176043091770428173907FF
:1010800024F48EEC94E060E003C08EEC94E061E028
:1010900088DEDF91CF9108956F927F928F929F9219
:1010A000AF92BF92CF92DF92EF92FF920F931F9376
:1010B0003A014B01CB01BA01A40193010E94E51B47
:1010C0005B016C01C401B30120E030E040E450E476
:1010D0000E94481C7B018C01C401B30122E736E267
:1010E00042E45BE30E94E51B26E736E641E952E471
:1010F0000E942E1A3B014C01C601B50122E334E4E3
:1011000046EB57E30E94E51B9B01AC01C401B30110
:101110000E942E1A5B016C01C801B7012EE330E476
:1011200048EA51E30E94E51B9B01AC01C601B501F1
:101130000E942E1A1F910F91FF90EF90DF90CF9099
:10114000BF90AF909F908F907F906F900895AF92D7
:10115000BF92CF92DF92EF92FF920F931F935C01A9
:1011600009E515E0C80160916C0497D5C80160914C
:101170006C0448E164D6C801A3D58093B004C801CB
:101180009FD58093B104C8019BD58093B204C80158
:1011900097D58093B304C80193D58093B404C80154
:1011A0008FD58093B504C8018BD58093B604C80150
:1011B00087D58093B704C80183D58093B804C8014C
:1011C0007FD58093B904C8017BD58093BA04C80148
:1011D00077D58093BB04C80173D58093BC04C80144
:1011E0006FD58093BD04C8016BD58093BE04C80140
:1011F00067D58093BF04C80163D58093C004C8013C
:101200005FD58093C104C8015BD58093C204C80137
:1012100057D58093C304C80153D58093C404C80133
:101220004FD58093C504C8014BD58093C604C8012F
:1012300047D58093C704C80160916C04DED58091C6
:10124000B6046091B7040E94261A7C018FEF9FE0DC
:10125000E822F9225CEFC52E57E0D52EC601B70172
:101260004AE050E00E941B19C60168E672E00E9445
:101270002D190027F7FC0095102FC801B7010E9417
:10128000311B7B018C01C501B801A70105DFAB0152
:10129000BC01C60122E030E00E94031AC501B8017A
:1012A000A701FADE0E94FE1ACB011F910F91FF9059
:1012B000EF90DF90CF90BF90AF90089587ED94E0CE
:1012C00046DF8E52914034F487ED94E00BDE855872
:1012D000934024F08BEC94E061E003C08BEC94E04D
:1012E00060E00CCDCF93DF9387ED94E030DFC091C9
:1012F0007A04D0917B048C1B9D0B181619065CF4A4
:1013000087ED94E024DF20917A0430917B04821BE6
:10131000930B9C0106C087ED94E019DF9E01281B0A
:10132000390B80917C0490917D048217930794F48B
:1013300087ED94E00CDF20917A0430917B0428172C
:10134000390724F48EEC94E060E003C08EEC94E066
:1013500061E006DDDF91CF910895B0DFDBDC61DE77
:10136000C1DF61CDCF92DF92EF92FF920F931F9377
:10137000CF93DF937C01162F8CEF97E040E855E286
:1013800060E070E00E949C1581E590E09093A304DA
:101390008093A2041092A5041092A4041092A704B2
:1013A0001092A60487E790E09093A7048093A60488
:1013B0001092A9041092A8041092AB041092AA04EF
:1013C00083E390E09093AB048093AA0485E090E0DF
:1013D0009093AD048093AC041092AF041092AE04CD
:1013E00089E595E02ED5C701609163044FEF2BDAB4
:1013F000C701609164044FEF26DAC701609165046C
:101400004FEF21DAC701609166044FEF1CDAC70184
:10141000609166044FEF17DAC701609168044FEFDF
:1014200012DAC701609169044FEF0DDAC7016091CC
:101430006A044FEF08DAC701609167044FEF03DADF
:1014400089E595E060916F0428D489E595E06FEF18
:10145000A5D489E595E06FEFA1D489E595E0DFD4C7
:1014600089E595E06091700418D489E595E06FEF07
:1014700095D489E595E06FEF91D489E595E0CFD4D7
:10148000C70160916C0447E1DED9C70160916C042B
:1014900042EDD9D9C70160916E0440E0D4D989E505
:1014A00095E060916D04F9D389E595E06091A2041F
:1014B00075D489E595E06091A40470D489E595E040
:1014C0006091A6046BD489E595E0A9D489E595E0FF
:1014D00060916D04E2D389E595E06091A6045ED445
:1014E00089E595E06091A80459D489E595E060917B
:1014F000AA0454D489E595E092D489E595E06091F9
:101500006D04CBD389E595E06091AA0447D489E5C1
:1015100095E06091AC0442D489E595E06091AE0419
:101520003DD489E595E07BD489E595E060916C0434
:10153000B4D389E595E060916C0448E180D489E5F5
:1015400095E0BED38093B00489E595E0B9D380934C
:10155000B10489E595E0B4D38093B20489E595E0C0
:10156000AFD38093B30489E595E0AAD38093B40404
:1015700089E595E0A5D38093B50489E595E0A0D3EE
:101580008093B60489E595E09BD38093B70489E501
:1015900095E096D38093B80489E595E091D3809344
:1015A000B90489E595E08CD38093BA0489E595E088
:1015B00087D38093BB0489E595E082D38093BC04F4
:1015C00089E595E07DD38093BD0489E595E078D3E6
:1015D0008093BE0489E595E073D38093BF0489E5C9
:1015E00095E06ED38093C00489E595E069D380933C
:1015F000C10489E595E064D38093C20489E595E050
:101600005FD38093C30489E595E05AD38093C404E3
:1016100089E595E055D38093C50489E595E050D3DD
:101620008093C60489E595E04BD38093C70489E590
:1016300095E060916E0431D389E595E060916C048A
:1016400042E0FDD389E595E03BD38093C70489E56B
:1016500095E036D38093C80482958F709091C7042B
:10166000292F30E0B4E0220F331FBA95E1F7280F9D
:10167000311D88E02030380754F4A4E035952795D3
:10168000AA95E1F73093AF042093AE040BC0C901D3
:101690008050904160E170E00E94D21D7093AF04D1
:1016A0006093AE0489E595E0BAD38CEF97E062E7EA
:1016B00072E00E94141A80919E04882329F08CEF16
:1016C00097E06CE872E004C08CEF97E06BE972E0A1
:1016D0009ED868EE73E080E090E07CD6112309F498
:1016E0009EC18CEF97E06DE972E00E94141AC70169
:1016F000039661E0B2DB8CEF97E069EA72E00E944A
:10170000141AE70129968701045F1F4FC801C5D944
:10171000805D97402CF00EC0CE0161E070E0E9D909
:10172000C801BBD9805D9740BCF309C0CE0160E021
:1017300070E0DFD9C801B1D9815D9740BCF7C8011D
:1017400049D9805D97402CF00EC0CE0161E070E079
:101750006DD9C8013FD9805D9740BCF309C0CE0167
:1017600060E070E063D9C80135D9815D9740BCF76E
:101770008CEF97E06AEB72E00E94141ACE0161E0F0
:1017800099DBCE0161E0A2DBCE0161E0ABDA68EB70
:101790007BE080E090E01ED6CE0160E08BDBCE01E6
:1017A00060E0A0DA8CEF97E06CEC72E00E942D19FB
:1017B000CE0161E046DB68EE73E080E090E00AD69F
:1017C0008CEF97E066EE72E00E942D1968EE73E0F0
:1017D00080E090E0FFD58CEF97E06BEE72E00E9426
:1017E0002D1968EE73E080E090E0F4D58CEF97E07F
:1017F0006BEE72E00E942D1968EE73E080E090E0DD
:10180000E9D58CEF97E06BEE72E00E942D1968EE3F
:1018100073E080E090E0DED58CEF97E06BEE72E055
:101820000E942D1968EE73E080E090E0D3D58CEF34
:1018300097E06BEE72E00E942D1968EE73E080E095
:1018400090E0C8D58CEF97E06BEE72E00E942D1906
:1018500068EE73E080E090E0BDD58CEF97E06BEE32
:1018600072E00E942D1968EE73E080E090E0B2D53E
:101870008CEF97E06BEE72E00E942D1968EE73E03A
:1018800080E090E0A7D58CEF97E06DEE72E00E94CB
:101890002D19CE0160E00EDBCE0160E017DBCE013A
:1018A00060E0CFDACE0161E005DB68E873E180E05B
:1018B00090E090D5CE0160E0FDDACE0160E012DA72
:1018C0008CEF97E062EF72E00E94141A8CEF97E0C1
:1018D0006CEF72E00E94141A8CEF97E064E173E001
:1018E0000E94141A6091720470917304CE0101D9A0
:1018F0008CEF97E06BE173E00E94141A609174041E
:1019000070917504CE0192D88CEF97E061E273E09C
:101910000E94141A8CEF97E068E373E00E94141A97
:101920008CEF97E06DE473E00E94141A80919E049E
:10193000882309F074C010E08CEF97E00E945516E0
:10194000893711F411E003C08E3619F410E001E07C
:1019500001C000E06AE070E080E090E03BD5002349
:1019600059F3112309F439C08CEF97E06CE573E06B
:101970000E94141AF6E0CF2ED12CCE0CDF1CC6012B
:1019800061E0EED9E7012F961FC0CE01E0DB8C01AC
:101990008CEF97E067E873E00E942D19B801660F9D
:1019A000771F600F711F8CEF97E04AE050E00E94B4
:1019B0001B198CEF97E068E973E00E942D1968EE1F
:1019C00073E080E090E006D5CE01C1DB8C529140FF
:1019D000E4F2C60160E0C4D906C08CEF97E063EA88
:1019E00073E00E94141A8CEF97E066EB73E00E949C
:1019F000141A87010A5F1F4FC80161E0D2D9E701BD
:101A00002F9605C064E670E080E090E0E3D4CE015C
:101A100069DA84589340B4F3C80160E0C2D964EF36
:101A200071E080E090E0D6D48CEF97E066EC73E054
:101A30000E94070487010D5F1F4FC80160E00DDAA7
:101A4000C80161E02BDA81E080939F0464E670E0D6
:101A500080E090E0BFD4DF91CF911F910F91FF9074
:101A6000EF90DF90CF900895EF92FF920F931F9326
:101A70000CED14E0C80140ED57E060E070E058D094
:101A8000C8016CEF77E020E032EC41E050E0DBD0C1
:101A9000C80101D180910D0590910E056BEE73E0A8
:101AA0000E942D196AE070E080E090E093D4C801B4
:101AB00060E041E0B7D018ECE12E14E0F12EC70150
:101AC00060E050DC8701075F1F4FC8016091700420
:101AD00043E020E042D8C801609170044BE020E070
:101AE0003CD8C801609170044AE020E036D8C801B3
:101AF0006091700442E020E030D8C80173D983E0DF
:101B000090E0E80EF91EC70160E0C8D9C7016091F6
:101B10006F0440E021E021D8C80161E0CBD9C801C1
:101B200061E0D4D91F910F91FF90EF90089508952F
:101B3000FC0113AA14AA15AA16AA118212821382F2
:101B40001482411551056105710519F0CB01BA01E7
:101B500041C40895FF920F931F938C01F62EFC0150
:101B600081A992A965E474E00E942D19F80181A968
:101B700092A96F2D4AE050E00E94CC18F80181A98B
:101B800092A96CE474E00E942D1962E370E080E099
:101B900090E020D41F910F91FF9008950F931F9311
:101BA000CF93DF93EC01062F8D818823A1F1E9A962
:101BB000FAA9A081B18114962D913C911597CF017E
:101BC000F9011995892B99F318C0E9A9FAA9A081FF
:101BD000B18116962D913C911797CF01F901199576
:101BE000182F833629F08637B9F0883531F404C0D0
:101BF000CE01602FAFDF10C01D82E9A9FAA9A08134
:101C0000B18114962D913C911597CF01F901199549
:101C100018161906D4F213E6812FDF91CF911F9188
:101C20000F9108951F93CF93DF93EC01142F662338
:101C300029F081E08D83CE0160E0B0DF1D83DF916C
:101C4000CF911F910895FC0172AB61ABCB01BA013A
:101C5000A90172C7CF93DF93EC01662331F013C063
:101C600063E070E080E090E0B5D3A6D329813A81AB
:101C70004B815C81621B730B840B950B6132710588
:101C80008105910568F398D369837A838B839C835C
:101C9000DF91CF91089560E0DDCF81E0809358051A
:101CA00060933505109256051092570508952091BE
:101CB000340530E080913305281B3109C9010895AE
:101CC0004091330580913405481718F02FEF3FEF0E
:101CD0000AC0E42FF0E0ED5EFA4F8081282F30E05B
:101CE0004F5F40933305C9010895E091330580911A
:101CF0003405E81718F0EFEFFFEF06C0F0E0ED5EF7
:101D0000FA4F8081E82FF0E0CF01089508951092F6
:101D10005C0510925B0588EE93E0A0E0B0E0809354
:101D20005D0590935E05A0935F05B093600582E822
:101D300094E090935A05809359050895CF92DF92CD
:101D4000EF92FF920F931F93CF93DF937C016B0170
:101D50008A01809158058823A1F0C0E0D0E00DC031
:101D6000D701ED91FC91D601AC0FBD1F0190F08120
:101D7000E02DC7016C9119952196C017D10780F30A
:101D800003C0CB01642F04D1C801DF91CF911F9113
:101D90000F91FF90EF90DF90CF900895DF93CF9356
:101DA0000F92CDB7DEB7FC01698380915805882377
:101DB000C9F080915705803238F081E090E093833C
:101DC000828320E030E014C080915605E82FF0E0D7
:101DD000EA5CFA4F998190838F5F809356058093D8
:101DE000570504C0CE01019661E0D2D021E030E079
:101DF000C9010F90CF91DF9108950F93062F809125
:101E0000350566E375E04091570521E06CD01092EE
:101E1000560510925705109258050F91089561E0EC
:101E2000ECCF413208F040E2862F63E175E012D03A
:101E30001092330580933405089521E0F2CF21E01C
:101E4000F0CF10923305109234051092560510927F
:101E500057054EC2382F413210F040E042C0809109
:101E600065058823E1F791E0909365052093670568
:101E70008FEF8093D20510928D05415040938E05CF
:101E80004F5F9093660580916605330F832B809397
:101E9000660580916805813041F410926805809153
:101EA00066058093BB0085EC01C085EE8093BC0085
:101EB000809165058130E1F380918D05841710F4E0
:101EC00040918D0520E030E00AC0FB01E20FF31FD6
:101ED000D901A359BA4F8C9180832F5F3F4F2417AC
:101EE000A0F3842F08950F931F93582F122F413280
:101EF00010F081E04AC0809165058823E1F782E017
:101F000080936505009367058FEF8093D20510924B
:101F10008D0540938E05ADE6B5E0FB0102C08191D1
:101F20008D938E2F861B8417D0F3109266058091B7
:101F30006605550F852B8093660580916805813075
:101F400041F410926805809166058093BB0085EC92
:101F500001C085EE8093BC00112321F080916505BE
:101F60008230E1F38091D2058F3F11F480E00DC003
:101F70008091D205803211F482E007C08091D205B1
:101F8000803311F084E001C083E01F910F91089528
:101F9000482F613210F081E008958091650584300A
:101FA00011F082E008956093B005AFE8B5E0842FAA
:101FB0009C01F90102C081918D938E2F841B86179D
:101FC000D0F380E008951F920F920FB60F920BB6D8
:101FD0000F9211242F933F934F935F936F937F93AF
:101FE0008F939F93AF93BF93EF93FF938091B9002B
:101FF00090E0887F90708036910509F4F2C08136B8
:102000009105CCF58832910509F47BC089329105A0
:10201000B4F48031910509F46FC0813191053CF42D
:10202000009709F447C1089709F04FC165C088318E
:10203000910509F466C0809709F047C182C08034D9
:10204000910509F4A4C08134910544F480339105CD
:1020500009F482C0C89709F038C189C0803591055C
:1020600009F489C08835910509F496C08834910532
:1020700009F02BC1AEC08839910509F413C1893923
:102080009105ECF48837910509F4ABC089379105C7
:102090004CF48836910509F4A4C08037910509F005
:1020A00014C19FC08838910509F4FCC0803991059E
:1020B00009F49DC08038910509F007C198C0803BA4
:1020C000910509F4C6C0813B91054CF4803A910515
:1020D00009F49FC0883A910509F0F7C0BAC0803C66
:1020E000910509F4E3C0883C910509F4DFC0883B01
:1020F000910509F0EAC0C2C0809166058093BB00DB
:10210000CFC090918D0580918E05981768F49091BD
:102110008D05E92FF0E0E359FA4F80818093BB00F1
:102120009F5F90938D05BCC080916705882309F45B
:102130004BC085ED8093BC008091BC0084FDFCCF3A
:10214000C2C080E28093D20585ED8093BC0080916F
:10215000BC0084FDFCCFB7C080E38093D20585ED41
:102160008093BC008091BC0084FDFCCFACC088E3B0
:102170008093D2059BC080918D059091BB00E82F84
:10218000F0E0E359FA4F90838F5F80938D05909133
:102190008D0580918E0582C080918D059091BB0048
:1021A000E82FF0E0E359FA4F90838F5F80938D051D
:1021B00080916705882341F085ED8093BC00809174
:1021C000BC0084FDFCCF7FC081E08093680584EA79
:1021D0006EC085ED8093BC008091BC0084FDFCCF77
:1021E00072C083E0809365051092D10559C080913B
:1021F000D105803208F056C08091D1059091BB0086
:10220000E82FF0E0EF54FA4F90838F5F8093D10571
:1022100047C08091D105803230F4E091D105F0E0E3
:10222000EF54FA4F108285ED8093BC008091BC0082
:1022300084FDFCCF109265056091D105E0916B059E
:10224000F0916C0581EB95E070E019951092D10545
:102250002DC084E0809365051092AF051092B00503
:10226000E0916905F0916A0519958091B005882380
:1022700029F481E08093B00510928F059091AF050D
:10228000E92FF0E0E157FA4F80818093BB009F5F18
:102290009093AF059091AF058091B005981710F419
:1022A00085EC01C085E88093BC000FC085EC80936D
:1022B000BC0009C01092D20585ED8093BC008091CE
:1022C000BC0084FDFCCF10926505FF91EF91BF919A
:1022D000AF919F918F917F916F915F914F913F91BE
:1022E0002F910F900BBE0F900FBE0F901F9018955F
:1022F0001092650581E0809367051092680584E17E
:1023000061E097D185E161E094D1E9EBF0E0808173
:102310008E7F808380818D7F808388E48093B80066
:1023200085E48093BC0008951F920F920FB60F9220
:1023300011242F933F938F939F93AF93BF938091DB
:10234000D7059091D805A091D905B091DA053091C3
:10235000DB050196A11DB11D232F2D5F2D3720F028
:102360002D570196A11DB11D2093DB058093D70544
:102370009093D805A093D905B093DA058091D30541
:102380009091D405A091D505B091D6050196A11DD7
:10239000B11D8093D3059093D405A093D505B09338
:1023A000D605BF91AF919F918F913F912F910F9043
:1023B0000FBE0F901F9018958FB7F8942091D705F6
:1023C0003091D8054091D9055091DA058FBFB901F8
:1023D000CA0108959B01AC017FB7F8948091D305A1
:1023E0009091D405A091D505B091D60566B5A89B6E
:1023F00005C06F3F19F00196A11DB11D7FBFBA2F17
:10240000A92F982F8827860F911DA11DB11D62E06D
:10241000880F991FAA1FBB1F6A95D1F7BC012DC059
:10242000FFB7F8948091D3059091D405A091D5057C
:10243000B091D605E6B5A89B05C0EF3F19F001960F
:10244000A11DB11DFFBFBA2FA92F982F88278E0F6E
:10245000911DA11DB11DE2E0880F991FAA1FBB1F8E
:10246000EA95D1F7861B970B885E9340C8F22150FE
:1024700030404040504068517C4F211531054105A6
:10248000510571F60895789484B5826084BD84B551
:10249000816084BD85B5826085BD85B5816085BD5F
:1024A000EEE6F0E0808181608083E1E8F0E0108278
:1024B000808182608083808181608083E0E8F0E0B9
:1024C000808181608083E1EBF0E0808184608083A3
:1024D000E0EBF0E0808181608083E1E9F0E08081E1
:1024E00082608083808181608083E0E9F0E0808188
:1024F00081608083E1EAF0E0808182608083808176
:1025000081608083E0EAF0E0808181608083E1E2A5
:10251000F1E0808182608083808181608083E0E25D
:10252000F1E0808181608083EAE7F0E0808184606F
:1025300080838081826080838081816080838081CC
:10254000806880831092C1000895893009F449C0E1
:102550008A30A0F4843051F1853040F4823079F132
:10256000833000F5813009F063C026C0873079F1EF
:10257000883098F5863009F05BC025C08D3009F4AD
:1025800042C08E3028F48B30B1F18C30C0F52DC0B4
:10259000803109F442C0813109F445C08F3009F01F
:1025A00047C037C0809180008F7703C08091800042
:1025B0008F7D80938000089584B58F7702C084B5A5
:1025C0008F7D84BD08958091B0008F7703C0809186
:1025D000B0008F7D8093B0000895809190008F7738
:1025E00007C0809190008F7D03C080919000877F0D
:1025F0008093900008958091A0008F7707C080910C
:10260000A0008F7D03C08091A000877F8093A000F1
:102610000895809120018F7703C0809120018F7DE4
:1026200080932001089580912001877F809320016D
:102630000895FF920F931F93F62E482F50E0CA0182
:10264000805C9D4FFC012491CA0186509E4FFC0185
:1026500014914C545E4FFA0104910023C1F02223DF
:1026600011F0822F72DFE02FF0E0EE0FFF1FE05835
:10267000FE4FA591B4919FB7F894FF2021F48C915F
:102680001095812302C08C91812B8C939FBF1F9149
:102690000F91FF90089508951F920F920FB60F9219
:1026A0000BB60F9211242F933F934F938F939F93C9
:1026B000EF93FF938091C00082FD1DC04091C60042
:1026C00020911C0630911D062F5F3F4F2F733070F5
:1026D00080911E0690911F062817390771F0E0912E
:1026E0001C06F0911D06E452FA4F408330931D06FC
:1026F00020931C0602C08091C600FF91EF919F912C
:102700008F914F913F912F910F900BBE0F900FBE65
:102710000F901F90189508951F920F920FB60F9269
:102720000BB60F9211242F933F934F938F939F9348
:10273000EF93FF938091C80082FD1DC04091CE00B1
:102740002091A4063091A5062F5F3F4F2F73307064
:102750008091A6069091A7062817390771F0E0919D
:10276000A406F091A506EC59F94F40833093A506D5
:102770002093A40602C08091CE00FF91EF919F911B
:102780008F914F913F912F910F900BBE0F900FBEE5
:102790000F901F90189508951F920F920FB60F92E9
:1027A0000BB60F9211242F933F934F938F939F93C8
:1027B000EF93FF938091D00082FD1DC04091D60021
:1027C00020912C0730912D072F5F3F4F2F733070D2
:1027D00080912E0790912F072817390771F0E0910B
:1027E0002C07F0912D07E451F94F408330932D07CA
:1027F00020932C0702C08091D600FF91EF919F910A
:102800008F914F913F912F910F900BBE0F900FBE64
:102810000F901F90189508951F920F920FB60F9268
:102820000BB60F9211242F933F934F938F939F9347
:10283000EF93FF938091300182FD1DC040913601DE
:102840002091B4073091B5072F5F3F4F2F73307041
:102850008091B6079091B7072817390771F0E0917A
:10286000B407F091B507EC58F84F40833093B507A3
:102870002093B40702C080913601FF91EF919F91A0
:102880008F914F913F912F910F900BBE0F900FBEE4
:102890000F901F901895E0910808F0910908E05CEE
:1028A000FF4F8191919120813181805C9F4F821BEC
:1028B000930B60E470E00E94D21D892B09F0EBDEDF
:1028C000E0912A08F0912B08E05CFF4F81919191F3
:1028D00020813181805C9F4F821B930B60E470E00C
:1028E0000E94D21D892B09F016DFE0914C08F0916F
:1028F0004D08E05CFF4F8191919120813181805C96
:102900009F4F821B930B60E470E00E94D21D892BC5
:1029100009F041DFE0916E08F0916F08E05CFF4F35
:102920008191919120813181805C9F4F821B930B1B
:1029300060E470E00E94D21D892B09F06CCF0895ED
:102940001F920F920FB60F920BB60F9211242F9376
:102950003F938F939F93EF93FF9320916006309165
:10296000610680916206909163062817390731F459
:102970008091C1008F7D8093C10014C0E0916206F8
:10298000F0916306E05EF94F20818091620690919C
:10299000630601968F73907090936306809362062E
:1029A0002093C600FF91EF919F918F913F912F91BE
:1029B0000F900BBE0F900FBE0F901F9018951F9297
:1029C0000F920FB60F920BB60F9211242F933F93D5
:1029D0008F939F93EF93FF932091E8063091E90640
:1029E0008091EA069091EB062817390731F480911F
:1029F000C9008F7D8093C90014C0E091EA06F09170
:102A0000EB06E855F94F20818091EA069091EB069C
:102A100001968F7390709093EB068093EA06209353
:102A2000CE00FF91EF919F918F913F912F910F9049
:102A30000BBE0F900FBE0F901F9018951F920F9214
:102A40000FB60F920BB60F9211242F933F938F93D3
:102A50009F93EF93FF9320917007309171078091BE
:102A60007207909173072817390731F48091D100CC
:102A70008F7D8093D10014C0E0917207F0917307AD
:102A8000E05DF84F20818091720790917307019665
:102A90008F73907090937307809372072093D60082
:102AA000FF91EF919F918F913F912F910F900BBECE
:102AB0000F900FBE0F901F9018951F920F920FB698
:102AC0000F920BB60F9211242F933F938F939F93E6
:102AD000EF93FF932091F8073091F9078091FA075F
:102AE0009091FB072817390731F4809131018F7DD0
:102AF0008093310114C0E091FA07F091FB07E8548C
:102B0000F84F20818091FA079091FB0701968F730F
:102B100090709093FB078093FA0720933601FF9102
:102B2000EF919F918F913F912F910F900BBE0F903E
:102B30000FBE0F901F901895AF92BF92DF92EF9249
:102B4000FF920F931F93CF93DF93EC017A018B01D8
:102B5000DD24403081EE580780E0680780E0780788
:102B600011F0DD24D39491E0A92EB12CEC89FD89DC
:102B7000DD2069F0C50108A002C0880F991F0A94E2
:102B8000E2F7808360E079E08DE390E005C0108299
:102B900060E874E88EE190E0A80197010E94E51DCD
:102BA00021503040404050405695479537952795E5
:102BB00080E12030380720F0DD2011F0DD24D6CF71
:102BC000E889F9893083EA89FB89208319A2EE8993
:102BD000FF89408121E030E0C9010C8C02C0880FE0
:102BE000991F0A94E2F7482B4083EE89FF894081C0
:102BF000C9010D8C02C0880F991F0A94E2F7482B77
:102C00004083EE89FF894081C9010E8C02C0880F84
:102C1000991F0A94E2F7482B4083EE89FF8980814F
:102C20000F8C02C0220F331F0A94E2F7209528234D
:102C30002083DF91CF911F910F91FF90EF90DF9054
:102C4000BF90AF900895DC011C96ED91FC911D970B
:102C5000E05CFF4F8191919120813181805C9F4F99
:102C6000821B930B60E470E09DC7DC011C96ED9124
:102C7000FC911D97E05CFF4F20813181E054F040D2
:102C8000DF01AE5BBF4F8D919C91119728173907DB
:102C900019F42FEF3FEF07C08D919C91E80FF91FBA
:102CA0008081282F30E0C9010895DC011C96ED9148
:102CB000FC911D97E05CFF4F20813181E054F04092
:102CC000DF01AE5BBF4F8D919C911197281739079B
:102CD00019F42FEF3FEF10C08D919C911197E80FE1
:102CE000F91F20818D919C91119701968F7390709F
:102CF00011969C938E9330E0C9010895DC01919662
:102D00008C919197882339F05496ED91FC915597C9
:102D1000808186FFF9CF91961C920895CF93DF931F
:102D2000EC01EE85FF85E05CFF4F20813181E054AE
:102D3000F0402F5F3F4F2F733070DF01AE5BBF4F0E
:102D40008D919C91119728173907D1F3E05CFF4FC3
:102D500080819181E054F040E80FF91F6083EE8597
:102D6000FF85E05CFF4F31832083EE89FF8920815E
:102D700081E090E00F8C02C0880F991F0A94E2F75F
:102D8000282B208381E089A3EC89FD8980818064E0
:102D9000808381E090E0DF91CF9108951F9310929E
:102DA000FF071092FE0728EE33E040E050E020934A
:102DB000000830930108409302085093030862E929
:102DC00074E07093FD076093FC078CED95E09093A1
:102DD00009088093080880E296E090930B0880939E
:102DE0000A0885EC90E090930D0880930C0884EC21
:102DF00090E090930F0880930E0880EC90E0909301
:102E000011088093100881EC90E090931308809350
:102E1000120882EC90E0909315088093140886ECD9
:102E200090E0909317088093160814E01093180808
:102E3000B3E0B0931908A7E0A0931A08F5E0F09367
:102E40001B08E1E0E0931C08109221081092200872
:102E50002093220830932308409324085093250898
:102E600070931F0860931E0884E696E090932B08E9
:102E700080932A0888EA96E090932D0880932C0886
:102E80008DEC90E090932F0880932E088CEC90E0CE
:102E9000909331088093300888EC90E09093330849
:102EA0008093320889EC90E0909335088093340841
:102EB0008AEC90E090933708809336088EEC90E08F
:102EC000909339088093380810933A08B0933B08E0
:102ED000A0933C08F0933D08E0933E08109243080D
:102EE00010924208209344083093450840934608C6
:102EF0005093470870934108609340088CEE96E029
:102F000090934D0880934C0880E397E090934F088E
:102F100080934E0885ED90E090935108809350087F
:102F200084ED90E0909353088093520880ED90E0F8
:102F3000909355088093540881ED90E09093570842
:102F40008093560882ED90E090935908809358083A
:102F500086ED90E090935B0880935A0810935C088C
:102F6000B0935D08A0935E08F0935F08E09360085B
:102F700010926508109264082093660830936708E1
:102F800040936808509369087093630860936208DF
:102F900084E797E090936F0880936E0888EB97E042
:102FA000909371088093700885E391E09093730883
:102FB0008093720884E391E090937508809374087D
:102FC00080E391E0909377088093760881E391E025
:102FD000909379088093780882E391E090937B083E
:102FE00080937A0886E391E090937D0880937C0833
:102FF00010937E08B0937F08A0938008F093810817
:10300000E09382081F9108950895CF93DF933BDAF0
:10301000FBDF0E94340DCBE4D4E10E94AD09209780
:10302000E1F339DCFACFCF92DF92EF92FF920F9368
:103030001F93CF93DF937C016B018A01C0E0D0E046
:103040000FC0D6016D916D01D701ED91FC910190FA
:10305000F081E02DC7011995C80FD91F015010400C
:103060000115110571F7CE01DF91CF911F910F91DD
:10307000FF90EF90DF90CF900895EF92FF920F9323
:103080001F938C01DC01ED91FC910190F081E02D0A
:103090006DE019957C01D801ED91FC910190F081D2
:1030A000E02DC8016AE019959C012E0D3F1DC90154
:1030B0001F910F91FF90EF9008954F925F927F9232
:1030C0008F929F92AF92BF92CF92DF92EF92FF9238
:1030D0000F931F93DF93CF93CDB7DEB7A1970FB6B2
:1030E000F894DEBF0FBECDBF2C01742ECB01223071
:1030F00008F42AE019A231E2C32ED12CCC0EDD1E39
:10310000822E9924AA24BB24672D752FA501940132
:103110005CD579018A01C801B701A501940123D5C5
:10312000472D461B0894C108D1084A3014F4405D6D
:1031300001C0495CF6014083E114F1040105110569
:1031400021F07E2C5F2DC801DFCFC201B6010E94A5
:103150000704A1960FB6F894DEBF0FBECDBFCF9186
:10316000DF911F910F91FF90EF90DF90CF90BF9074
:10317000AF909F908F907F905F904F900895DC016B
:103180002115310541F4ED91FC910190F081E02D84
:10319000642F1995089591CFEF92FF920F931F938B
:1031A0009A01E62EFF2400E010E0B801A701E7DF56
:1031B0001F910F91FF90EF900895CF92DF92EF92C1
:1031C000FF920F931F93CF93DF93EC016A017B0172
:1031D0002115310541F4E881F9810190F081E02D5C
:1031E000642F19951DC02A303105C9F477FF16C028
:1031F000E881F9810190F081E02D6DE219958C0153
:1032000044275527BA014C195D096E097F09CE0183
:103210002AE053DF9801280F391F03C02AE04DDF51
:103220009C01C901DF91CF911F910F91FF90EF9009
:10323000DF90CF900895EF92FF920F931F937B0141
:103240009A010027F7FC0095102FB801A701B5DF00
:103250001F910F91FF90EF9008950C94070408952B
:103260007F928F929F92AF92BF92CF92DF92EF9216
:10327000FF920F931F93CF93DF934C017A018B0141
:10328000722ECB01BA01A80197014ED3882321F0F9
:10329000C40165E574E01FC0C0E0D0E057016801DB
:1032A000E894D7F8C601B5012FEF3FEF4FE75FE78E
:1032B0003BD3882349F4C601B5012FEF3FEF4FE719
:1032C0005FE730D1181614F0C1E0D0E0219739F053
:1032D000C40169E574E00E940704EC0185C0C801DF
:1032E000B7012FEF3FEF4FE75FE46BD218164CF0BA
:1032F000C801B7012FEF3FEF4FE75FEC13D18823F1
:1033000024F4C4016DE574E0E6CFC801B70120E004
:1033100030E040E050E006D187FD03C0C0E0D0E0DF
:103320000EC0D401ED91FC910190F081E02DC4011B
:103330006DE21995EC0117FB109517F9109520E037
:1033400030E040E05FE3DD240AC0CA01B90120E0BB
:1033500030E040E251E4EAD09B01AC01D394D714B1
:10336000A0F3C801B7017AD05B016C014CD17B019D
:103370008C01C401B801A7012AE030E000DFC80FCA
:10338000D91F772039F0C40161E674E00E94070478
:10339000C80FD91FC801B70162D19B01AC01C6019A
:1033A000B5015BD01FC020E030E040E251E40DD217
:1033B0007B018C0123D15B016C01CC24B7FCC09450
:1033C000DC2CC401B601A5012AE030E0F6DEC80F0E
:1033D000D91FC601B50145D19B01AC01C801B70198
:1033E0003CD07A947720F9F6CE01DF91CF911F91EE
:1033F0000F91FF90EF90DF90CF90BF90AF909F9094
:103400008F907F900895EF92FF920F931F937C010E
:1034100027DF8C01C70131DE080F191FC8011F917A
:103420000F91FF90EF900895EF92FF920F931F93EB
:103430007C010E9407048C01C7011FDE080F191FC1
:10344000C8011F910F91FF90EF90089570E0382F01
:1034500020E0622B732BCB0108955058BB27AA277D
:103460000ED075C166D130F06BD120F031F49F3FA2
:1034700011F41EF45BC10EF4E095E7FB51C1E92F96
:1034800077D180F3BA17620773078407950718F09E
:1034900071F49EF58FC10EF4E0950B2EBA2FA02D7E
:1034A0000B01B90190010C01CA01A0011124FF27F1
:1034B000591B99F0593F50F4503E68F11A16F040EC
:1034C000A22F232F342F4427585FF3CF46953795EB
:1034D0002795A795F0405395C9F77EF41F16BA0BB0
:1034E000620B730B840BBAF09150A1F0FF0FBB1F5E
:1034F000661F771F881FC2F70EC0BA0F621F731FA7
:10350000841F48F4879577956795B795F7959E3F03
:1035100008F0B3CF9395880F08F09927EE0F979591
:1035200087950895D9D008F481E008950CD00FC193
:1035300007D140F0FED030F021F45F3F19F0F0C029
:10354000511139C1F3C014D198F39923C9F355230C
:10355000B1F3951B550BBB27AA2762177307840786
:1035600038F09F5F5F4F220F331F441FAA1FA9F33C
:1035700033D00E2E3AF0E0E830D091505040E6952E
:10358000001CCAF729D0FE2F27D0660F771F881F8F
:10359000BB1F261737074807AB07B0E809F0BB0B7E
:1035A000802DBF01FF2793585F4F2AF09E3F5105A2
:1035B00068F0B6C000C15F3FECF3983EDCF386953F
:1035C00077956795B795F7959F5FC9F7880F911D18
:1035D0009695879597F90895E1E0660F771F881F04
:1035E000BB1F621773078407BA0720F0621B730BB7
:1035F000840BBA0BEE1F88F7E095089504D0689409
:10360000B111D9C00895BCD088F09F5790F0B92F60
:103610009927B751A0F0D1F0660F771F881F991F27
:103620001AF0BA95C9F712C0B13081F0C3D0B1E039
:103630000895C0C0672F782F8827B85F39F0B93F49
:10364000CCF3869577956795B395D9F73EF4909529
:103650008095709561957F4F8F4F9F4F0895E894A7
:1036600009C097FB3EF490958095709561957F4FCA
:103670008F4F9F4F9923A9F0F92F96E9BB27939578
:10368000F695879577956795B795F111F8CFFAF488
:10369000BB0F11F460FF1BC06F5F7F4F8F4F9F4FB9
:1036A00016C0882311F096E911C0772321F09EE817
:1036B000872F762F05C0662371F096E8862F70E07D
:1036C00060E02AF09A95660F771F881FDAF7880F57
:1036D0009695879597F90895990F0008550FAA0BAD
:1036E000E0E8FEEF16161706E807F907C0F0121615
:1036F0001306E407F50798F0621B730B840B950B18
:1037000039F40A2661F0232B242B252B21F408956C
:103710000A2609F4A140A6958FEF811D811D089509
:1037200097F99F6780E870E060E008959FEF80EC74
:10373000089500240A941616170618060906089517
:1037400000240A9412161306140605060895092E7D
:103750000394000C11F4882352F0BB0F40F4BF2BEC
:1037600011F460FF04C06F5F7F4F8F4F9F4F08952C
:1037700057FD9058440F551F59F05F3F71F0479522
:10378000880F97FB991F61F09F3F79F08795089507
:10379000121613061406551FF2CF4695F1DF08C026
:1037A000161617061806991FF1CF86957105610543
:1037B00008940895E894BB2766277727CB0197F9EB
:1037C00008958ADF08F48FEF08950BD0C0CFB1DFE2
:1037D00028F0B6DF18F0952309F0A2CFA7CF112467
:1037E000EACFC6DFA0F3959FD1F3950F50E0551FA8
:1037F000629FF001729FBB27F00DB11D639FAA2746
:10380000F00DB11DAA1F649F6627B00DA11D661F94
:10381000829F2227B00DA11D621F739FB00DA11DB5
:10382000621F839FA00D611D221F749F3327A00D6F
:10383000611D231F849F600D211D822F762F6A2F0B
:1038400011249F5750408AF0E1F088234AF0EE0F90
:10385000FF1FBB1F661F771F881F91505040A9F79D
:103860009E3F510570F05CCFA6CF5F3FECF3983ED2
:10387000DCF3869577956795B795F795E7959F5F04
:10388000C1F7FE2B880F911D9695879597F908959E
:10389000FA01EE0FFF1F30962105310599F16115F0
:1038A000710561F48038BFE39B0749F16894903853
:1038B000810561F08038BFEF9B0741F0992342F505
:1038C000FF3FE1053105210511F1E8940894E795E2
:1038D000D901AA2329F4AB2FBE2FF85FD0F310C073
:1038E000FF5F70F4A695E0F7F73950F019F0FF3A52
:1038F00038F49F779F930CD00F9007FC9058089551
:103900003EF014CF60E070E080E89FE308954FE759
:103910009F775F934F933F932F93A2D02F913F9127
:103920004F915F9152DF09C0D7DE880B990B089544
:1039300019F40EF0F5CE3ECFF9CE22DFC8F396385B
:10394000C0F707F80F92E8942BE33AEA48EB5FE7F9
:103950004ADF0F920F920F924DB75EB70F92C0D011
:10396000E4EEF0E016D04F915F91EF91FF91E59575
:10397000EE1FFF1F49F0FE57E0684427EE0F441F7B
:10398000FA95E1F74195550B32D00F9007FE26C00E
:103990000895DF93CF931F930F93FF92EF92DF92DF
:1039A0007B018C01689405C0DA2EEF011ADFFE015D
:1039B000E894A5912591359145915591AEF3EF018C
:1039C0005EDDFE019701A801DA9479F7DF90EF90B0
:1039D000FF900F911F91CF91DF9108959B01AC0152
:1039E00060E070E080E89FE3A1CD9ACEACC0C8DE75
:1039F000E8F39923D9F3940F511DBBF39150504034
:103A000094F059F0882332F0660F771F881F915089
:103A10005040C1F79E3F510544F7880F911D969580
:103A2000879597F908955F3FACF0983E9CF0BB27CF
:103A3000869577956795B79508F4B1609395C1F72A
:103A4000BB0F58F711F460FFE8CF6F5F7F4F8F4FC8
:103A50009F4FE3CFB0CE0EF076C068CE689460CEB4
:103A60008FDEC8F39923D1F3C6F3DF93CF931F936F
:103A70000F93FF92C92FDD2788232AF02197660F25
:103A8000771F881FDAF720E030E040E85FEB9FE324
:103A9000883920F0803E30F021968F77DFDCECE033
:103AA000F1E003C0DBDCE9E3F1E073DF8B01BE0191
:103AB000EC01FB2E6F5771097595771F880B990BD9
:103AC000D0DD28E132E741E35FE38BDEAF2D9801E3
:103AD000AE01FF900F911F91CF91DF91D0DC37CED7
:103AE000FA01DC01AA0FBB1F9B01AC01BF5728F4F0
:103AF00022273327442750781FC0B75188F4AB2FB3
:103B00000024469537952795011CA395D2F30020F4
:103B100069F0220F331F441FB395DAF30DD09DCC0B
:103B200061307105A0E88A07B94630F49B01AC0109
:103B30006627772788279078309621F02083318375
:103B40004283538308959F3F49F0915028F486950E
:103B500077956795B7959F5F80389F4F880F9695AB
:103B6000879597F90895629FD001739FF001829F16
:103B7000E00DF11D649FE00DF11D929FF00D839FFC
:103B8000F00D749FF00D659FF00D9927729FB00D99
:103B9000E11DF91F639FB00DE11DF91FBD01CF01AC
:103BA0001124089597FB092E07260AD077FD04D02B
:103BB0002ED006D000201AF4709561957F4F08959D
:103BC000F6F7909581959F4F0895A1E21A2EAA1BB2
:103BD000BB1BFD010DC0AA1FBB1FEE1FFF1FA217BD
:103BE000B307E407F50720F0A21BB30BE40BF50BBA
:103BF000661F771F881F991F1A9469F76095709543
:103C0000809590959B01AC01BD01CF010895AA1B41
:103C1000BB1B51E107C0AA1FBB1FA617B70710F0B7
:103C2000A61BB70B881F991F5A95A9F780959095E9
:103C3000BC01CD010895EE0FFF1F0590F491E02D1A
:103C400019942F923F924F925F926F927F928F9230
:103C50009F92AF92BF92CF92DF92EF92FF920F931B
:103C60001F93CF93DF93CDB7DEB7CA1BDB0B0FB625
:103C7000F894DEBF0FBECDBF19942A8839884888D2
:103C80005F846E847D848C849B84AA84B984C88478
:103C9000DF80EE80FD800C811B81AA81B981CE0F6F
:103CA000D11D0FB6F894DEBF0FBECDBFED01089554
:043CB000F894FFCFB6
:103CB40061207061636B657420686173206265655F
:103CC4006E2073656E7420746F20307825782077A9
:103CD4006974682076616C75653A20307825780AB5
:103CE4000074776F207061636B657473206861760C
:103CF40065206265656E2073656E7420746F203074
:103D040078257820776974682076616C7565204120
:103D14003A20307825780A00206465677265653A30
:103D240020000A43434D522070726F6772616D2008
:103D3400696E697469616C697A656400205B4445E5
:103D4400425547204D4F44455D0A000A002D2D423F
:103D54006F6F74696E672D2D005245534554544955
:103D64004E472056414C564553007265666C757833
:103D7400696E672077617465722E2E00436C6561ED
:103D84006E696E672056616C76657320616E64207F
:103D94005069706573003C7C2E2E002E002E2E7C04
:103DA4003E0020434F4D504C455445005345545418
:103DB400494E47205354414E44415254204D495892
:103DC4002E2E2E00434F322E2E2E0048322E2E2E13
:103DD4000053595354454D20424F4F54555020439E
:103DE4004F4D504C455445005553455220494E5073
:103DF400555420524551554952454421005052458D
:103E040048454154204F56454E203F0050524548A6
:103E1400454154494E47204F56454E2E2E2E2028BC
:103E240074686973206D61792074616B6520612009
:103E34007768696C65290050726568656174696E9C
:103E4400672E2E207C7C2000252046696E697368CD
:103E540065640050524548454154494E472041420B
:103E64004F525445440050524550524F44554349D3
:103E74004E47204832000A0A2D2D2D2D2D2D2D2D93
:103E84002D2D524541445920544F204255524E2D18
:103E94002D2D2D2D2D2D2D2D2D0A00564D445056F2
:103EA4005F317C315F564D4450560D0A00457272A5
:103EB4006F723A20417474656D707420746F20734E
:103EC4006574206120726561642D6F6E6C79207653
:103ED40061726961626C65206F7220646174612033
:103EE40074797065206E6F7420737570706F72745E
:103EF40065640D0A00564D4450435F005F564D44BF
:103F040050430D0A006E616E00696E66006F76663E
:103F1400002E0025252223262223204B351F4F2641
:103F2400204B09002D0090010A002C01050000001F
:103F34000000CE0E9E0E570E600E750E860E00000B
:0E3F440000008E1613182316551635167E161D
:00000001FF
